:020000040800F2
:1000000000000824ADAB000879A000087BA0000820
:100010007DA000087FA0000881A00008000000006B
:10002000000000000000000000000000412D010859
:1000300083A0000800000000E12D0108A1250108AF
:10004000FDAB0008FDAB0008FDAB0008FDAB0008F0
:10005000FDAB0008FDAB0008FDAB0008FDAB0008E0
:10006000FDAB0008FDAB0008FDAB0008FDAB0008D0
:10007000FDAB0008FDAB0008FDAB0008FDAB0008C0
:10008000FDAB0008FDAB0008FDAB0008FDAB0008B0
:10009000FDAB0008FDAB0008FDAB0008FDAB0008A0
:1000A000FDAB0008FDAB0008FDAB0008FDAB000890
:1000B000FDAB0008FDAB0008FDAB0008FDAB000880
:1000C000FDAB0008FDAB0008FDAB0008FDAB000870
:1000D000FDAB0008FDAB0008FDAB0008FDAB000860
:1000E000FDAB0008FDAB000800000000FDAB000800
:1000F000FDAB0008FDAB0008FDAB0008FDAB000840
:10010000FDAB0008FDAB0008FDAB0008FDAB00082F
:10011000FDAB0008FDAB0008FDAB0008FDAB00081F
:10012000FDAB0008FDAB0008FDAB0008FDAB00080F
:10013000FDAB000885A00008FDAB0008FDAB000882
:1001400000000000000000000000000000000000AF
:10015000FDAB0008FDAB0008FDAB0008FDAB0008DF
:10016000FDAB0008FDAB0008FDAB0008FDAB0008CF
:10017000FDAB0008FDAB0008FDAB0008000000006F
:10018000FDAB0008FDAB0008FDAB0008FDAB0008AF
:10019000FDAB0008FDAB0008FDAB0008FDAB00089F
:1001A000FDAB0008FDAB0008FDAB0008FDAB00088F
:1001B000FDAB0008FDAB0008FDAB0008FDAB00087F
:1001C000FDAB0008FDAB0008FDAB0008FDAB00086F
:1001D000FDAB0008FDAB0008FDAB0008FDAB00085F
:1001E000FDAB0008FDAB0008FDAB0008FDAB00084F
:1001F000FDAB0008FDAB0008FDAB0008FDAB00083F
:10020000FDAB0008FDAB0008FDAB0008FDAB00082E
:10021000FDAB000895A00008B1A00008FDAB0008E8
:10022000FDAB0008FDAB0008FDAB000800000000BE
:10023000FDAB0008FDAB000800000000FDAB0008AE
:10024000FDAB0008FDAB0008FDAB0008FDAB0008EE
:10025000FDAB0008FDAB0008FDAB0008FDAB0008DE
:10026000FDAB0008FDAB0008FDAB0008FDAB0008CE
:10027000FDAB0008FDAB0008FDAB0008000000006E
:10028000FDAB0008FDAB0008FDAB0008000000005E
:0802900000000000FDAB0008B6
:1002C0000348044B834202D0034B03B118477047E5
:1002D000EC090024EC090024000000000548064950
:1002E0000B1AD90F01EBA301491002D0034B03B144
:1002F00018477047EC090024EC09002400000000B6
:1003000010B5064C237843B9FFF7DAFF044B13B15D
:100310000448AFF300800123237010BD7053002404
:1003200000000000E8E1010808B5044B1BB10449D6
:100330000448AFF30080BDE80840CFE700000000AC
:1003400074530024E8E1010853B94AB9002908BFF1
:1003500000281CBF4FF0FF314FF0FF3000F06EB9A6
:10036000ADF1080C6DE904CE00F006F8DDF804E00C
:10037000DDE9022304B070472DE9F047089D0446EB
:100380008C46002B40F083808A42174647D9B2FA48
:1003900082F242B1C2F1200024FA00F0914097406D
:1003A00040EA010C94404FEA1748230CBCFBF8F6D6
:1003B0001FFA87FE08FB16C143EA014306FB0EF154
:1003C000994209D9FB1806F1FF3080F01981994252
:1003D00040F21681023E3B445B1AA4B2B3FBF8F034
:1003E00008FB103344EA034400FB0EFEA64509D97E
:1003F0003C1900F1FF3380F00581A64540F20281EF
:1004000002383C4440EA0640A4EB0E0400261DB12D
:10041000D4400023C5E900433146BDE8F08702B966
:10042000FFDEB2FA82F2002A50D1CB1B4FEA174E00
:100430001FFA87F80126B3FBFEFC210C0EFB1C33D0
:1004400041EA034108FB0CF38B4207D979180CF100
:10045000FF3002D28B4200F2E9808446C91AA3B26F
:10046000B1FBFEF00EFB101143EA014408FB00F85B
:10047000A04507D93C1900F1FF3302D2A04500F294
:10048000D9801846A4EB080440EA0C40BFE78B4231
:1004900009D9002D00F0B1800026C5E900013046E1
:1004A0003146BDE8F087B3FA83F6002E4AD18B427D
:1004B00002D3824200F2B880841A61EB030101206A
:1004C0008C46002DA8D0C5E9004CA5E7C2F1200359
:1004D00020FA03F6974001FA02F04FEA174ED9408E
:1004E0003043030CB1FBFEF61FFA87F80EFB161122
:1004F00043EA014306FB08F1994204FA02F409D9E0
:10050000FB1806F1FF3C80F08D80994240F28A8012
:10051000023E3B445B1A81B2B3FBFEF00EFB10338C
:1005200041EA034100FB08F38B4207D9791800F137
:10053000FF3C73D28B4271D902383944CB1A40EA5E
:10054000064678E7C6F1200C03FA06F422FA0CF30B
:100550001C4320FA0CF701FA06F34FEA144E21FA75
:100560000CF11F433B0CB1FBFEF91FFA84F80EFBA4
:10057000191143EA014109FB08FA8A4502FA06F219
:1005800000FA06F308D9611809F1FF3048D28A450C
:1005900046D9A9F102092144A1EB0A01BFB2B1FB7E
:1005A000FEF00EFB101147EA014700FB08F8B845C2
:1005B00007D9E71900F1FF312ED2B8452CD90238FE
:1005C000274440EA0940A7EB0807A0FB02894F45F2
:1005D000C64649461AD317D05DB1B3EB0E0267EB9E
:1005E000010707FA0CFCF2404CEA0202F740C5E9A9
:1005F000002700263146BDE8F0872E4628460BE747
:100600000646E9E61846FDE64345E5D2B8EB020E9C
:1006100069EB04010138DFE70846D2E760468DE761
:100620008146B9E7664675E730464AE7ACF1020C09
:10063000394413E702383C4424E700BF704700BF49
:10064000002301461A46184603F09EB838B50A4CF6
:100650000A4D641BA4100AD004F18043013B05EB52
:100660008305013C55F804399847002CF9D1BDE8C1
:1006700038401DF0BFBD00BFBC170208B817020804
:1006800070B50D4E0D4D761BB61006D0002401340A
:1006900055F8043B9847A642F9D1094E094D761BFF
:1006A0001DF0A2FDB61006D00024013455F8043B1D
:1006B0009847A642F9D170BDB0170208B0170208DA
:1006C000B8170208B0170208032A70B412D940EA1A
:1006D0000105AD0704460B4620D11946204653F8C4
:1006E000045B54F8046BAE4218D1043A032A204646
:1006F0001946F2D8541E72B103780A789A4208BF9C
:10070000241806D00CE010F8013F11F8012F934295
:1007100006D1A042F7D1002070BC7047541EEBE711
:10072000981A70BC704700BF844641EA000313F07A
:1007300003036DD1403A41D351F8043B40F8043BE8
:1007400051F8043B40F8043B51F8043B40F8043BAB
:1007500051F8043B40F8043B51F8043B40F8043B9B
:1007600051F8043B40F8043B51F8043B40F8043B8B
:1007700051F8043B40F8043B51F8043B40F8043B7B
:1007800051F8043B40F8043B51F8043B40F8043B6B
:1007900051F8043B40F8043B51F8043B40F8043B5B
:1007A00051F8043B40F8043B51F8043B40F8043B4B
:1007B00051F8043B40F8043B403ABDD2303211D3EB
:1007C00051F8043B40F8043B51F8043B40F8043B2B
:1007D00051F8043B40F8043B51F8043B40F8043B1B
:1007E000103AEDD20C3205D351F8043B40F8043BEB
:1007F000043AF9D2043208D0D2071CBF11F8013BE9
:1008000000F8013B01D30B8803806046704700BFAE
:10081000082A13D38B078DD010F003038AD0C3F1BD
:100820000403D21ADB071CBF11F8013B00F8013B9F
:1008300080D331F8023B20F8023B7BE7043AD9D35E
:10084000013A11F8013B00F8013BF9D20B78037033
:100850004B7843708B788370604670478842F0B461
:100860000DD98B1883420AD9841832B1224613F865
:10087000014D02F8014D9942F9D1F0BC70470F2AA1
:100880000ED80346541E002AF7D001340C44013B15
:1008900011F8012B03F8012FA142F9D1F0BC7047E8
:1008A00040EA01039B073BD1A2F110073F0901F188
:1008B000200606EB071601F1100300F1100453F8AF
:1008C000105C44F8105C53F80C5C44F80C5C53F872
:1008D000085C44F8085C53F8045C44F8045C10338A
:1008E000B34204F11004EAD17B1C1B0112F00C0F7F
:1008F000194402F00F05034415D0043DAD0803EB85
:10090000850C1C1F0E4656F8047B44F8047F644592
:10091000F9D10135AD002B44294402F00302B1E7BF
:10092000541E0346B1E72A46ACE700BFF0B4860781
:1009300046D0541E002A3CD0CAB2034602E014F14D
:10094000FF3436D303F8012B9D07F8D1032C29D9A6
:10095000CDB245EA05250F2C45EA054533D9A4F16A
:100960001006360903F1200707EB061703F1100202
:1009700042E9045542E902551032BA42F8D1721CDC
:1009800014F00C0F03EB021204F00F0613D0331F08
:1009900023F003030433134442F8045B9342FBD176
:1009A00006F003042CB1C9B21C4403F8011B9C429D
:1009B000FBD1F0BC704734461346002CF3D1F8E766
:1009C00014460346C2E71A462646E0E70EB400B5D1
:1009D00082B003AB816853F8042B019301F0ACFBA8
:1009E00002B05DF804EB03B0704700BF0FB400B570
:1009F000074983B004AB086853F8042B816801935E
:100A000001F09AFB03B05DF804EB04B0704700BF3F
:100A100000000024024B1B680022C3E92A02704731
:100A2000000000240B4B0C481968D1E92A2310B4AC
:100A30000A4C00FB02F004FB0300A2FB0434044454
:100A40005A1C44F10000C1E92A205DF8044B20F053
:100A500000407047000000242DF451582D7F954C24
:100A600038B50C460968054609B1FFF7F9FF21467C
:100A70002846BDE8384004F0B7B800BF204B1B68DB
:100A800083423BD0C36C70B505468BB100269959A3
:100A900039B10C68284604F0A7F82146002CF8D19B
:100AA000EB6C0436802EF2D11946284604F09CF8EF
:100AB000296C11B1284604F097F8D5F8481151B1C6
:100AC00005F5A676B14206D00C68284604F08CF8ED
:100AD000A6422146F8D1696D11B1284604F084F888
:100AE000AB6B53B1EB6B28469847D5F8E01221B1B8
:100AF0002846BDE87040FFF7B3BF70BD704700BF28
:100B0000000000240CB470B59CB020AC0B4E54F81F
:100B1000042B0291234606916FF0004502A901942F
:100B20000795CDE9045600F0BBF8029B00221A702D
:100B30001CB0BDE8704002B0704700BF0802FFFF64
:100B40000EB430B59CB01FAB0C4C0D4D53F8042BBC
:100B50000193014602910691206802A96FF00044BA
:100B60000794CDE9044500F09BF8029B00221A701F
:100B70001CB0BDE8304003B0704700BF0000002447
:100B80000802FFFF0000000000000000000000005D
:100B90000000000000000000000000000000000055
:100BA0000000000000000000000000000000000045
:100BB0000000000000000000000000000000000035
:100BC00090F800F06DE9024520F007016FF0000C8D
:100BD00010F0070491F820F040F049804FF0000435
:100BE0006FF00700D1E9002391F840F000F1080010
:100BF00082FA4CF2A4FA8CF283FA4CF3A2FA8CF348
:100C00004BBBD1E9022382FA4CF200F10800A4FAAE
:100C10008CF283FA4CF3A2FA8CF3E3B9D1E9042302
:100C200082FA4CF200F10800A4FA8CF283FA4CF339
:100C3000A2FA8CF37BB9D1E9062301F1200182FAF3
:100C40004CF200F10800A4FA8CF283FA4CF3A2FAF9
:100C50008CF3002BC6D0002A04BF04301A4612BA07
:100C6000B2FA82F2FDE8024500EBD2007047D1E90A
:100C7000002304F00305C4F100004FEAC50514F099
:100C8000040F91F840F00CFA05F562EA05021CBF6A
:100C900063EA050362464FF00004A9E70000000084
:100CA0002DE9F04FBFB00C4607919246CDE90803FD
:100CB00004F0E6F8036811931846FFF781FFA38953
:100CC0000F901D0603D52369002B00F02D879FEDA3
:100CD000AC7B00238DED0C7B0E93CDE9223310937A
:100CE000129304932EAB219399469AF80030002B6F
:100CF00000F0C180252B00F06586554603E0252BCA
:100D000000F0AB8025466B786C1C002BF7D1B4EB60
:100D10000A0600F0B080DDE9223201333244072BAD
:100D2000C9F800A0C9F80460CDE9223200F39A8026
:100D300009F10809049A6B7832440492002B00F000
:100D40009A80002367788DF867301A461946059314
:100D50009B4604F1010A4FF0FF360AF1010AA7F1A0
:100D60002003582B00F2D482DFE813F0E000D20217
:100D7000D202DB00D202D202D202D202D202D202CC
:100D8000D000CB00D202C600AD00D202A80099006C
:100D9000990099009900990099009900990099008B
:100DA000D202D202D202D202D202D202D202D202A3
:100DB000D202D20299025802D2025802D202D202C0
:100DC000D202D2025302D202D2026800D202D2026E
:100DD000D202D202D2025900D202D2023B02D20285
:100DE000D202D202D202D202D202D202D202D20263
:100DF000D202C00196015802580258029101960190
:100E0000D202D2028401D2026E016A003F013A018D
:100E1000D2021001D2025B00D202D202E8004BF0F3
:100E2000100B1BF0200F00F05E82099C073424F0A9
:100E30000703F3E8024509930123E6E04BF0100BAA
:100E40001BF0200300F04582099C073424F00703BF
:100E5000F3E8024509930023D7E0B4EB0A063FF418
:100E600070AF58E721AADDE9071005F0C3F848B9CB
:100E70000DF1B8095EE7239B23B10898079921AAD1
:100E800005F0B8F8079B9B8913F0400F049B18BF2F
:100E90004FF0FF33049304983FB0BDE8F08FA7F103
:100EA000300300201AF8017B00EB800003EB4000C8
:100EB000A7F13003092BF5D9059050E74BF0800BD3
:100EC0009AF8007049E7504610F8017B2A2F01F08C
:100ED0001881A7F13003092B82464FF000063FF638
:100EE0003EAF1AF8017B06EB860603EB4606A7F138
:100EF0003003092BF5D932E79AF800704BF0040B58
:100F00002BE79AF8007001222B2126E7099B9AF81B
:100F1000007053F8040B05900028C0F2F485099383
:100F20001BE74BF0010B9AF8007016E79AF8007077
:100F300000297FF412AF012220210EE7002A41F0A0
:100F40008680114B10931BF0200F00F05381099CF9
:100F5000073424F00703F3E8024509931BF0010F5F
:100F600000F0E78154EA050300F0E38130238DF8B7
:100F700068308DF869704BF0020B022345E000BF2A
:100F80000000000000000000B0160208099C54F8A0
:100F9000043B0A9300258DF86750002B00F09786DC
:100FA000711C00F0FC85324629460A9804F0A0FA2C
:100FB000002801F01E800A9BC31A06932E4623EADE
:100FC000E3739DF867800994CDF808B003930B96FE
:100FD000B8F1000F00F09C80039B0133039397E06E
:100FE0004BF0200B9AF80070B7E6099C54F8043BCC
:100FF000099447F630021C46C04B1093ADF86820A8
:101000004BF0020B0025022378274FF000088DF8E3
:101010006780721C00F091812BF08002029254EAEA
:10102000050240F08881002E40F08D83002B58D1BE
:101030001BF00103069300F0E08430238DF8B730F5
:101040000DF1B7030A939EE3002A40F0FC87099A4A
:101050001BF0200F52F8043B099240F0D1841BF0A2
:10106000100F40F0A4851BF0400F00F0A085049AFB
:101070001A803AE69AF800706C2F03BF9AF8017054
:101080004BF0200B0AF1010A4BF0100B65E64BF018
:10109000400B9AF8007060E6002A40F0D0871BF001
:1010A000200F00F00581099C073424F0070319463E
:1010B000F1E80223099114461D46002A73F100034A
:1010C000C0F27384731C9DF8678000F066832BF078
:1010D0008003029354EA050340F05D83002E40F044
:1010E000488700262EAB06960A934CE3099C002302
:1010F00054F8042B8DF890208DF86730012224AB32
:101100000392099406920A930026CDF808B00B9634
:10111000029B13F0020302D0039A02320392029A56
:10112000239C12F0840B05D1059A0399551A002DC2
:1011300000F375829DF8672072B1229A0132013462
:101140000DF167000121072ACDE92224C9E9000138
:1011500000F3A08209F108096BB1229B013302342C
:101160001AA90222072BCDE92234C9E9001200F3A3
:101170009F8209F10809BBF1800F00F06A81069B8C
:10118000F61A002E00F3AC81029BDE0500F102810D
:10119000229B0A9AC9F80020069AC9F80420013354
:1011A0001444072B2394229300F32D8209F108099C
:1011B000029B5A0705D5059B039A9D1A002D00F343
:1011C0008382DDE9043203998A42ACBF9B185B1825
:1011D0000493002C40F0BD81002322930DF1B80947
:1011E00083E5002A40F01087454B10931BF0200F39
:1011F0007FF4ADAE099B1BF0100F53F8044B09931D
:1012000040F0DD831BF0400F00F0D983A4B200252D
:10121000A4E64BF0080B9AF800709EE5002A40F017
:10122000F786099C073424F00703B3EC027B55ECE6
:10123000174B099325F0004315938DED147ADDE9E2
:1012400014014FF0FF322F4B8DED0C7B07F09EFF0A
:10125000002840F0F1834FF0FF322A4BDDE9140102
:1012600007F076FF002840F0E783002200232046A5
:10127000294607F063FF002840F013869DF8678039
:10128000214A224B032100262BF08000472FC8BFA4
:101290001A46039102900A9206910B9698E6002A4C
:1012A00040F0D9864BF0100B1BF0200F7FF4FBAE03
:1012B000099B1BF0100F53F8044B099340F06D830A
:1012C0001BF0400F00F0698324B2E51722462B463D
:1012D000F3E6099A52F8044B09921BF0100200F051
:1012E0009E83002591E6099B1BF0100F53F8044BD9
:1012F000099300F08C830025012386E6B0160208CE
:101300009C160208FFFFEF7F8C1602089016020859
:10131000002A40F0EF85002F3FF4ADAD00230122FD
:101320008DF8673024AB03928DF8907006920A9383
:10133000EAE6022369E6DDF808B0012B00F02D8211
:10134000022B00F008822EA900E01146E20842EAD2
:101350004572E80804F0070305461446303354EAA2
:10136000050001F8013C01F1FF32EED11BF0010F45
:101370000A9200F0C382302B00F0E5830A9ACDF880
:1013800008B03023023902F8013C2EAB5B1A0693F9
:101390000A91F8E1652F40F3E58000220023DDE9A2
:1013A0000C0107F0C1FE002800F00782229BCA4A08
:1013B000C9F80020013301340122072BCDE9223482
:1013C000C9F8042000F35D8409F108091B9B0E9AFB
:1013D000239C934203DB029BDD077FF5E9AE229B52
:1013E000119AC9F800200F9AC9F804200133144457
:1013F000072BCDE9223400F35D8409F108090E9B27
:101400005D1E002D7FF7D4AE102D229ADFF8D0B2EA
:1014100040F32D841026DDE9078705E009F108096E
:10142000103D102D40F3238401321034072ACDE9FA
:101430002224C9E900B6F1DD21AA4146384604F06C
:10144000D9FD00287FF41EADDDE922240DF1B80995
:10145000E6E7059B039A9D1A002D7FF790AE102DAD
:10146000229ADFF87CB22BDD58464B462146B14626
:10147000BB464FF01008DDE90764074604E0103D65
:10148000102D03F1080315DD01321031072ACDE9D3
:101490002221C3E90078F2DD21AA3146204604F07A
:1014A000A9FD00287FF4EEAC103D102DDDE92221CE
:1014B0002EABE9DC4E4699463B460C465F469B46C2
:1014C00001322C44072ACDE92224C9E900B500F3F2
:1014D000E483069BF61A002E09F108097FF754AE43
:1014E000102E229ADFF8F8B127DD59462346BB4675
:1014F0001025DDE907480F4604E0103E102E09F1E3
:10150000080916DD01321033072ACDE92223C9E983
:101510000075F2DD21AA2146404604F06BFD00284B
:101520007FF4B0AC103E102EDDE922230DF1B80996
:10153000E8DC1C463B465F469B4601323444072AA2
:10154000CDE92224C9E900B600F31A8209F108099D
:101550001AE621AADDE9071004F04CFD00283FF44B
:101560003BAE8FE40E9A229B012A04F1010403F1A1
:10157000010509F1080640F3C78101230A9AC9F859
:101580000020072DCDE92254C9F8043000F31D8254
:101590000F9B119A01351C44072DCDE92254C6E951
:1015A000002300F31E8208366B1C1F46B8460E9FB0
:1015B000069300220023DDE90C0106F10809013F32
:1015C00007F0B2FD002840F0B3810A9B7760013339
:1015D0003C44B8F1070F33602394CDF8888000F3C2
:1015E000F28206F1100305F102084E469946129A5E
:1015F000726014441DABB8F1070F2394CDF88880B6
:1016000033607FF7D5AD21AADDE9071004F0F2FCC5
:1016100000287FF437AC239C0DF1B809C8E5102DE4
:10162000229A2ADD49462046B1464FF010082E4640
:101630001393DDE9075404E0103E102E01F1080178
:1016400016DD0132254B1030072ACDE92220C1E9F1
:101650000038F1DD21AA2946204604F0CBFC002801
:101660007FF410AC103E102EDDE922202EA9E8DC1C
:10167000139B354604464E468946013217492C4491
:10168000072ACDE92224C9E9001500F3AC8209F14B
:1016900008094FE521AADDE90710139304F0AAFC1D
:1016A00000287FF4EFAB239C139B0DF1B80953E5A1
:1016B00021AADDE9071004F09DFC00287FF4E2ABCD
:1016C000239C0DF1B80956E5102D229B27DD10262D
:1016D000DDE907870BE000BFD80F020854E30108DB
:1016E00064E30108103D102D09F1080917DD0133ED
:1016F000CF4A1034072BCDE92234C9E90026F1DDA9
:1017000021AA4146384604F075FC00287FF4BAABA4
:10171000103D102DDDE922340DF1B809E7DC01336D
:10172000C34A2C44072BCDE92234C9E900257FF7B1
:1017300048AD21AADDE9071004F05CFC00287FF425
:10174000A1AB239C3DE5012B00F01384022BDDF8B7
:1017500008B07FF4F8ADDDF840C02EAA230904F0EC
:101760000F0043EA057329091C460D461CF800309A
:1017700002F8013D54EA0503F0D12EAB9B1A0A9200
:10178000CDF808B00693069BB342B8BF3346039327
:1017900000230B931CE4DDF808B0002D08BF0A2CD1
:1017A00080F08A800123303406930DF1B7038DF861
:1017B000B740CDF808B00A93E5E71B9B002B40F338
:1017C00021820E9B0B9A9342A8BF1346002B1D4605
:1017D0000EDD229B0A9AC9F8002001332C44072B06
:1017E0002394C9F80450229300F3E68309F1080911
:1017F0000B9B002DA8BF5B1B002B1D4600F3AA818D
:101800001B9A0E9B9A4280F28381229B1199C9F800
:1018100000100F99C9F8041001330C44072B2394CE
:10182000229300F3588309F108090B990E9B91420A
:10183000A3EB020380F2BF811D46002D10DD229A2A
:10184000C9F80450DDE90A10013201442C44072A8A
:10185000C9F80010CDE9222400F3BC8309F108097E
:10186000002DACBF5D1B1D46002D7FF7A1AC102DD8
:10187000229ADFF8C0B140F3FA811026DDE907872C
:1018800005E009F10809103D102D40F3F081013207
:101890001034072ACDE92224C9E900B6F1DD21AAD6
:1018A0004146384604F0A6FB00287FF4EBAADDE9A8
:1018B00022240DF1B809E6E72EABCDF808A0C24608
:1018C000B0461E4601E004460D460A22002320468B
:1018D0002946FEF739FD303206F8012D00230A2291
:1018E00020462946FEF730FD002D08BF0A2CEAD21B
:1018F00032460A964646D046DDF808A0CDF808B034
:101900002EAB9B1A06933EE7029AD1073FF535AE00
:1019100001220A99C9F80010072DCDE92254C9F80F
:10192000042000F3508103F1020809F110095EE67A
:10193000002F7FF75CAE102FDFF8F8B040F3DF83A5
:1019400023464FF01008DDE90749069D05E00836FB
:10195000103F102F40F3008201351033072DCDE9E1
:101960002253C6E900B8F2DD21AA2146484604F018
:1019700041FB00287FF486AADDE922532EAEE7E77B
:1019800021AADDE9071004F035FB00287FF47AAACC
:10199000239C0DF1B809FFF7F7BBE51722462B464C
:1019A000002A73F10003BFF68DAB4FF02D0864429F
:1019B00065EB45058DF867800123FFF72ABB0025FD
:1019C000FFF7CCBA5446FFF7BCB921AADDE90710EE
:1019D00004F010FB00287FF455AADDE922542EAE56
:1019E000D6E521AADDE9071004F004FB00287FF406
:1019F00049AADDE922542EAED6E52EAB0A93C2E603
:101A0000049A1046D117C3E90001FFF76EB91BF025
:101A1000400F18BFA4B200250123FFF7F6BA1BF050
:101A200040031CBF1346A4B20025FFF7EEBA00BF67
:101A300054E3010864E30108DDE90C0102460B46AA
:101A400007F0A4FB002840F03683741C27F0200523
:101A500000F0BE82472D00F0B280DDE90C014BF4AE
:101A6000807200290292C0F222829DED0C7B8DEDE6
:101A7000167B00231393662F00F08381462F00F01E
:101A80008081452D00F078821FAA1CABCDE9003281
:101A900002211BAB32469DED160B089801F03AFF70
:101AA000672F0A90344640F075821BF0010F40F01A
:101AB00074821B9A1F9B0B920A9A472DA3EB020379
:101AC0000E9340F0A1810B9BD81CC0F29C819E42DA
:101AD000C0F299810E9B19460B9B994200F39C82A0
:101AE0001BF0010F40F0FA8223EAE372039206939F
:101AF0006727139B002B00F05A822D238DF8673047
:101B00000026FFF769BA404205900993FFF7F6B93E
:101B1000029BD8073FF579AE0B990E9B8A42A3EB47
:101B2000020348DD1D469BE64021089803F028FA91
:101B3000079B18601861002800F0F182079A402383
:101B40005361FFF7C4B80A9ACDF808B02EAB9B1AC0
:101B5000069318E6102B229ADFF8C8B340F396815B
:101B60001026DDE9078705E009F10809103D102D71
:101B700040F38C8101321034072ACDE92224C9E9CF
:101B800000B6F1DD21AA4146384604F033FA0028B8
:101B90007FF478A9DDE922240DF1B809E6E70A9877
:101BA000FFF70EF82E4603460690FFF708BA049A90
:101BB0001A60FFF79AB80E9A0B99551A3DE6002E57
:101BC00008BF012649E721AADDE9071004F012FA4F
:101BD00000287FF457A9DDE922340DF1C00903F193
:101BE00001082EAE03E521AADDE90710139304F0E6
:101BF00001FA00287FF446A9239C139B0DF1B80934
:101C0000FFF798BA229AC449C9F80010013201348A
:101C10000121072ACDE92224C9F8041000F34E81DE
:101C200009F10809002B5DD1029B0E9A03F0010314
:101C300013433FF4BDAA229A119BC9F800300F9BB1
:101C4000C9F8043001321C44072A2394229200F37D
:101C5000558109F108090E9B0A9901321C44072A93
:101C6000CDE92224C9E900137FF7A0AACBE4013211
:101C70002C44072ACDE92224C9E900B57FF796AAAA
:101C8000C1E421AADDE9071004F0B4F900287FF4CB
:101C9000F9A80DF1B809FFF799BB21AADDE90710F2
:101CA00004F0A8F900287FF4EDA8239C0DF1B809F1
:101CB000FFF765BA21AADDE9071004F09BF90028B7
:101CC0007FF4E0A8239C0DF1B809FFF798BB062E1E
:101CD000334628BF062306930393904B09940A9337
:101CE000FFF712BA229A1199C9F800100F99C9F892
:101CF000041001320C44072A2394229200F3FE8040
:101D000009F10809002BA6DA5D421033DFF814B29E
:101D100080F2A6815F461026DDF81C80DDF820B039
:101D200005E009F10809103D102D40F398810132BA
:101D30001034072ACDE92224C9E90076F1DD21AA71
:101D40004146584604F056F900287FF49BA8DDE987
:101D500022240DF1B809E6E71C4605F1010806F159
:101D600008023C44B8F1070F2394C6E900B7CDF848
:101D700088803FF728AF08F1010802F108091646EC
:101D800035E41FAA1CABCDE9003203211BAB324660
:101D90009DED160B089801F0BDFD0A900A9B1B787B
:101DA000302B00EB060400F071811B9B1C440022C9
:101DB0000023DDE9160107F0B7F9002840F098800C
:101DC0001F9BA34206D230215A1C1F9219701F9BE1
:101DD0009C42F9D80A9A9B1A0E93472D1B9B0B9392
:101DE0003FF471AE662F0FD10B9A0BF00103002A5E
:101DF00043EA060340F3D480002B40F054810B9B50
:101E00000393069375E6023F0B9B8DF874705A1E80
:101E1000002A1B92B6BFC3F101022B232D23092AEE
:101E20008DF8753040F38C800DF1830420463C4DD5
:101E300001E008461A4685FB0231D317C3EBA10324
:101E400003EB8301A2EB41013031632A00F8011C4E
:101E500000F1FF31EDDC3033821EDBB2944201F839
:101E6000013C40F259810DF1760201E011F8013B8D
:101E700002F8013B8C42F9D10DF185030DF1760298
:101E80001B1A13441DAA9B1A129361E001322C44C1
:101E9000072ACDE92224C9E900B545DC09F1080982
:101EA000AEE44FF02D088DF86780FFF7E9B901F136
:101EB000004317932D2316901393DCE521AADDE947
:101EC000071004F097F800287EF4DCAF1B9B239CDE
:101ED0000DF1B809A6E621AADDE9071004F08AF899
:101EE00000287EF4CFAF1B9A239C0DF1B8099CE427
:101EF00023466FE78DF86710FFF70DBA21AADDE9D9
:101F0000071004F077F800287EF4BCAF1B9BDDE9D6
:101F100022240DF1B809F5E6D80F0208C41602080C
:101F20006766666664E3010821AADDE9071004F02C
:101F300061F800287EF4A6AF239C0DF1B8095FE498
:101F4000302330328DF8763004238DF877201293C9
:101F50000E9A129B012A1344069340F3B980069B04
:101F60000F9A1344069323EAE373039300230B931E
:101F7000BFE5DDF808B015E41FA91CAB741CCDE962
:101F8000003122461BAB02219DED160B089801F093
:101F9000C1FC0A90472F3FF488AD0A9B1C4406E71A
:101FA000002B40F0A480012303930693A1E59DF844
:101FB0006780139EFFF70CB821AADDE9071004F033
:101FC00019F800287EF45EAF239C0DF1B8090FE4E8
:101FD000062642E521AADDE9071004F00BF80028E7
:101FE0007EF450AF1B9B0E9A239CD31A0DF1B809B7
:101FF00036E40396069609940646CDF808B00B9091
:102000009DF86780FEF7E4BF8DF86710FFF7ECB826
:102010008DF86710FFF705B9DDE90E3213440B9A0E
:102020000693002A06DC0B9B069AC3F101031A44AF
:102030001346069223EAE3730393672759E58DF865
:102040006710FFF72CB88DF86710FFF700B88DF810
:102050006710FEF776BF8DF86710FFF723B9BB4610
:1020600001322C44072ACDE92224C9E900B57FF7C3
:10207000F0AD21AADDE9071003F0BCFF00287EF4D3
:1020800001AFDDE922240DF1B809E4E500220023C7
:10209000DDE9160107F048F800287FF486AEC6F1A6
:1020A00001031B9382E60F9BD3183344069323EA64
:1020B000E37303931DE50D9B1D4A002BB6BF4FF044
:1020C0002D089DF867808DF867801A4BFFF7DAB806
:1020D0001BF001020B927FF442AFE8E70B9B0F9AD3
:1020E0001344069323EAE3730393672701E50F9BE9
:1020F00001333344069323EAE3730393F9E44A4636
:102100002FE6099B9AF8017053F8046B09938246F5
:1021100046EAE676FEF721BE0223129318E7089AF4
:102120000C2313604FF0FF330493FEF7B4BE00BFDF
:1021300094160208981602082DE9F04FBFB01C460D
:10214000049191460546089002F09AFE03681193A7
:102150001846FEF735FD09940F901DB1AB6B002BAF
:1021600000F067830499B1F90C2093B29E040846ED
:1021700007D4496E42F4005321F400518381416633
:102180009BB21D0740F1D080049A1269002A00F02A
:10219000CB8003F01A030A2B00F0D4809FED9A7BCA
:1021A00000238DED0C7B0E93CDE922331093129317
:1021B00005932EAB21939A4699F80030002B00F03E
:1021C000DD80252B00F0BE864D4603E0252B00F078
:1021D000C78025466B786C1C002BF7D1B4EB090641
:1021E00000F0CC80DDE9223201333244072BCAF8FB
:1021F0000090CAF80460CDE9223200F3B6800AF1FB
:10220000080A059A6B7832440592002B00F0B680DC
:10221000002367788DF867301A46194606939B4667
:1022200004F101094FF0FF3609F10109A7F120037C
:10223000582B00F20283DFE813F0DA0200030003F8
:10224000E20200030003000300030003000329026D
:10225000BC020003B702C1020003C000B100B1001C
:10226000B100B100B100B100B100B100B100000394
:102270000003000300030003000300030003000346
:1022800000039D02510200035102000300030003FA
:1022900000034C0200030003680000030003000376
:1022A000000300035900000300033402000300038D
:1022B0000003000300030003000300030003000306
:1022C000AE0174015102510251026F017401000309
:1022D0000003620100034C016A001C0117010003A6
:1022E000ED0000035B0000030003C5004BF0100B82
:1022F0001BF0200F00F09282099C073424F00703A2
:10230000F3E8024509930123C3E04BF0100B1BF0E7
:10231000200300F07982099C073424F00703F3E8D6
:10232000024509930023B4E00499089801F0C4F928
:10233000002841F01381049B9B8903F01A030A2BA8
:102340007FF42CAF049BB3F90E30002BFFF626AFC1
:1023500023464A460499089801F078F9059019E057
:10236000B4EB09063FF454AF3CE721AA049908985E
:1023700004F02EFC48B90DF1B80A42E7239B23B1C3
:102380000898049921AA04F023FC049B9B895A060F
:1023900001F1E48005983FB0BDE8F08FA7F130036C
:1023A000002019F8017B00EB800003EB4000A7F14F
:1023B0003003092BF5D9069038E74BF0800B99F8DC
:1023C000007031E7002A41F0B180114B10931BF0EF
:1023D000200F00F06F81099C073424F00703F3E815
:1023E000024509931BF0010F00F0388254EA0503FF
:1023F00000F0348230238DF868308DF869704BF02E
:10240000020B022345E000BF0000000000000000B6
:10241000B0160208099C54F8043B0A9300258DF875
:102420006750002B00F07F86711C00F05387324606
:1024300029460A9803F05CF8002801F059800A9BAD
:10244000C31A07932E4623EAE3739DF86780099425
:10245000CDF808B003930B96B8F1000F00F0AD80F3
:10246000039B01330393A8E04BF0200B99F8007015
:10247000DAE6099C54F8043B099447F630021C46FE
:10248000B74B1093ADF868204BF0020B00250223E8
:1024900078274FF000088DF86780721C00F0E28109
:1024A0002BF08002029254EA050240F0D981002EFE
:1024B00040F01284002B40F0DC841BF001030793F2
:1024C00000F0498530238DF8B7300DF1B7030A933A
:1024D00059E0002A41F03280099A1BF0200F52F88F
:1024E000043B099240F03B851BF0100F40F05486EE
:1024F0001BF0400F00F05086059A1A805CE699F8B0
:1025000000706C2F03BF99F801704BF0200B09F19C
:1025100001094BF0100B87E64BF0400B99F8007067
:1025200082E6002A41F012801BF0200F00F02B8180
:10253000099C073424F007031946F1E802230991A6
:1025400014461D46002A73F10003C0F2F184731C87
:102550009DF8678008D02BF08003029354EA0503AE
:1025600000F08484DDF808B0002D08BF0A2C80F04C
:1025700054840123303407930DF1B7038DF8B7402D
:10258000CDF808B00A93079BB342B8BF3346039314
:1025900000230B9360E7099C002354F8042B8DF86B
:1025A00090208DF86730012224AB039209940792A2
:1025B0000A930026CDF808B00B96029B13F0020395
:1025C00002D0039A02320392029A239C12F0840BE7
:1025D00005D1069A0399551A002D00F3E8829DF85B
:1025E000672072B1229A013201340DF16700012196
:1025F000072ACDE92224CAE9000100F31A830AF16F
:10260000080A6BB1229B013302341AA90222072B5C
:10261000CDE92234CAE9001200F319830AF1080A4D
:10262000BBF1800F00F0A881079BF61A002E00F383
:10263000EC81029BDB0500F14281229B0A9ACAF8D9
:102640000020079ACAF8042001331444072B23946E
:10265000229300F34E820AF1080A029B590705D51E
:10266000069B039A9D1A002D00F3FD82DDE90532D9
:1026700003998A42ACBF9B185B180593002C40F06D
:10268000FE81002322930DF1B80A95E5099B99F884
:10269000007053F8040B06900028C0F216850993C9
:1026A000C2E5002A40F056872E4B10931BF0200FF6
:1026B0007FF491AE099B1BF0100F53F8044B099364
:1026C00040F02B841BF0400F00F02784A4B20025BB
:1026D00088E64BF0080B99F80070A5E5002A40F059
:1026E0002987099C073424F00703B3EC027B55ECDF
:1026F000174B099325F0004315938DED147ADDE90E
:1027000014014FF0FF32184B8DED0C7B06F03EFDAF
:10271000002840F02B844FF0FF32134BDDE9140109
:1027200006F016FD002840F02184002200232046F8
:10273000294606F003FD002840F03E869DF867809C
:102740000A4A0B4B032100262BF08000472FC8BFFD
:102750001A46039102900A9207910B967CE600BFFD
:10276000B01602089C160208FFFFEF7F8C160208C5
:1027700090160208002A40F0E5864BF0100B1BF083
:10278000200F7FF4D5AE099B1BF0100F53F8044BBC
:10279000099340F0C5831BF0400F00F0C18324B2C1
:1027A000E51722462B46CDE699F800704BF0040B56
:1027B0003AE599F8007001222B2135E5484610F8DA
:1027C000017B2A2F00F02387A7F13003092B8146D4
:1027D0004FF000063FF62AAD19F8017B06EB86069E
:1027E00003EB4606A7F13003092BF5D91EE599F84E
:1027F000007000297FF418AD0122202114E54BF070
:10280000010B99F800700FE5099A52F8044B0992F0
:102810001BF0100200F0518400253AE6099B1BF0E2
:10282000100F53F8044B099300F03F840025012357
:102830002FE6089802F068F994E4002A40F0D68563
:10284000002F3FF49BAD002301228DF8673024ABAD
:1028500003928DF8907007920A93AAE6022318E675
:10286000DDF808B0012B3FF47FAE022B00F03C8274
:102870002EA900E01146E20842EA4572E80804F099
:10288000070305461446303354EA050001F8013CBD
:1028900001F1FF32EED11BF0010F0A9200F0DF824E
:1028A000302B00F04B840A9ACDF808B0302302395F
:1028B00002F8013C2EAB5B1A07930A9163E6652F81
:1028C00040F3238100220023DDE90C0106F02CFCFB
:1028D000002800F02282229BBC4ACAF80020013363
:1028E00001340122072BCDE92234CAF8042000F379
:1028F0009D840AF1080A1B9B0E9A239C934280F246
:102900002483229B119ACAF800200F9ACAF8042047
:1029100001331444072BCDE9223400F3F7830AF185
:10292000080A0E9B5D1E002D7FF797AE102D229A90
:10293000DFF89CB240F370841026089FDDF8108009
:1029400005E00AF1080A103D102D40F365840132BC
:102950001034072ACDE92224CAE900B6F1DD21AA04
:102960004146384604F034F900287FF40EADDDE925
:1029700022240DF1B80AE6E7069B039A9D1A002D62
:102980007FF752AE102D229ADFF844B22DDD584663
:1029900053462146CA46BB46B1464FF01008089C34
:1029A000049E074604E0103D102D03F1080315DDD9
:1029B00001321031072ACDE92221C3E90078F2DD86
:1029C00021AA3146204604F003F900287FF4DDAC4B
:1029D000103D102DDDE922212EABE9DC4E46D1461B
:1029E0009A463B460C465F469B4601322C44072ADA
:1029F000CDE92224CAE900B500F32484079BF61A26
:102A0000002E0AF1080A7FF714AE102E229ADFF882
:102A1000C0B128DD59462346BB461025DDF820808D
:102A2000049C0F4604E0103E102E0AF1080A16DD41
:102A300001321033072ACDE92223CAE90075F2DDFD
:102A400021AA2146404604F0C3F800287FF49DAC3B
:102A5000103E102EDDE922230DF1B80AE8DC1C46F9
:102A60003B465F469B4601323444072ACDE9222487
:102A7000CAE900B600F344820AF1080AD9E521AA9E
:102A80000499089804F0A4F800283FF4FAAD7CE417
:102A900021AA0499089804F09BF800287FF475ACEB
:102AA0001B9B239C0DF1B80A002B40F0D883029B9E
:102AB0000E9A03F0010313433FF4CFAD229A119B0A
:102AC000CAF800300F9BCAF8043001321C44072AB0
:102AD0002394229200F39E840AF1080A0E9B0A991D
:102AE00001321C44072ACDE92224CAE900137FF7EA
:102AF000B2AD21AA0499089804F06AF800287FF47E
:102B000044AC239C0DF1B80AA7E50E9A229B012A3A
:102B100004F1010403F101050AF1080640F3AF8155
:102B200001230A9ACAF80020072DCDE92254CAF8D9
:102B3000043000F345830F9B119A01351C44072D87
:102B4000CDE92254C6E9002300F32E8308366B1C1E
:102B50001F46B8460E9F079300220023DDE90C01B3
:102B600006F1080A013F06F0DFFA002840F09B81D9
:102B70000A9B776001333C44B8F1070F336023941C
:102B8000CDF8888000F3B28206F1100305F1020847
:102B900056469A46129A726014441DABB8F1070F5C
:102BA0002394CDF8888033607FF757ADA1E7102DCF
:102BB000229A31DD51462046CA464FF01008B146F0
:102BC00013932E46089C049D09E000BFD80F02080D
:102BD00084E30108103E102E01F1080116DD0132D8
:102BE000C54B1030072ACDE92220C1E90038F1DDBC
:102BF00021AA2946204603F0EBFF00287FF4C5AB4D
:102C0000103E102EDDE922202EA9E8DC139B35466C
:102C100004464E46D1468A460132B7492C44072A1B
:102C2000CDE92224CAE9001500F3D6820AF1080A88
:102C3000D5E421AA04990898139303F0C9FF00284A
:102C40007FF4A3AB239C139B0DF1B80AD9E421AA0E
:102C50000499089803F0BCFF00287FF496AB239CEE
:102C60000DF1B80ADCE4102D229B21DD1026089F0F
:102C7000DDF8108004E0103D102D0AF1080A17DD80
:102C800001339D4A1034072BCDE92234CAE90026CE
:102C9000F1DD21AA4146384603F09AFF00287FF46F
:102CA00074AB103D102DDDE922340DF1B80AE7DCDC
:102CB0000133914A2C44072BCDE92234CAE900257F
:102CC0007FF7D4AC21AA0499089803F081FF00286B
:102CD0007FF45BAB239CC9E4012B00F0B583022B8E
:102CE000DDF808B07FF4C4ADDDF840C02EAA23099A
:102CF00004F00F0043EA057329091C460D461CF831
:102D0000003002F8013D54EA0503F0D12EAB9B1AC6
:102D10000A92CDF808B0079335E41B9B002B40F3D3
:102D20006A820E9B0B9A9342A8BF1346002B1D4646
:102D30000EDD229B0A9ACAF8002001332C44072B8F
:102D40002394CAF80450229300F3B5830AF1080AC9
:102D50000B9B002DA8BF5B1B002B1D4600F3F681CB
:102D60001B9A0E9B9A4280F2B581229B1199CAF858
:102D700000100F99CAF8041001330C44072B239458
:102D8000229300F326830AF1080A0B990E9B9142C5
:102D9000A3EB020380F204821D46002D10DD229A6F
:102DA000CAF80450DDE90A10013201442C44072A14
:102DB000CAF80010CDE9222400F38B830AF1080A37
:102DC000002DACBF5D1B1D46002D7FF746AC102DBE
:102DD000229ADFF828B140F31F821026089FDDF801
:102DE000108005E00AF1080A103D102D40F314820E
:102DF00001321034072ACDE92224CAE900B6F1DDF8
:102E000021AA4146384603F0E3FE00287FF4BDAA1C
:102E1000DDE922240DF1B80AE6E72EABCDF80890E3
:102E2000C146B0461E4601E004460D460A22002374
:102E300020462946FDF788FA303206F8012D002396
:102E40000A2220462946FDF77FFA002D08BF0A2CEA
:102E5000EAD232460A964646C846DDF80890CDF8D2
:102E600008B02EAB9B1A0793FFF78DBB002E40F0E6
:102E7000EB8200262EAB07960A93FFF784BB029ADB
:102E8000D0073FF54DAE01220A99CAF80010072D70
:102E9000CDE92254CAF8042000F3288103F1020886
:102EA0000AF1100A76E6002F7FF774AE102FDFF8D4
:102EB0004CB040F3AA8323464FF01008DDF820A061
:102EC000049C079D05E00836103F102F40F30A824E
:102ED00001351033072DCDE92253C6E900B8F2DDE4
:102EE00021AA2146504603F073FE00287FF44DAA24
:102EF000DDE922532EAEE7E774E3010884E301081D
:102F000021AA0499089803F063FE00287FF43DAAE3
:102F1000239C0DF1B80AFFF78CBB0025FFF762BABE
:102F2000E51722462B46002A73F10003BFF60FABCC
:102F30004FF02D08644265EB45058DF8678001234D
:102F4000FFF7ABBA4C46FFF763B9029BDE073FF5CC
:102F5000D8ACFFF782BB2EAB0A93FFF714BB059AE0
:102F60001046D117C3E90001FFF726B9DDE90C01CE
:102F700002460B4606F00AF9002840F02C83741C28
:102F800027F0200500F0A382472D00F03F82DDE905
:102F90000C014BF4807200290292C0F213829DED65
:102FA0000C7B8DED167B00231393662F00F0B88108
:102FB000462F00F0B581452D00F04A821FAA1CABB8
:102FC000CDE9003202211BAB32469DED160B08986D
:102FD00000F0A0FC672F0A90344640F047821BF0B7
:102FE000010F40F046821B9A1F9B0B920A9A472DB5
:102FF000A3EB02030E9306D10B9BD81C02DB9E426F
:1030000080F24B82023F0B9B8DF874705A1E002A8F
:103010001B92B6BFC3F101022B232D23092A8DF881
:10302000753040F3B8820DF183042046B84D01E0BD
:1030300008461A4685FB0231D317C3EBA10303EB05
:103040008301A2EB41013031632A00F8011C00F139
:10305000FF31EDDC3033821EDBB2944201F8013CDB
:1030600040F2E0820DF1760201E011F8013B02F836
:10307000013B8C42F9D10DF185030DF176021B1A4B
:1030800013441DAA9B1A12930E9A129B012A1344F1
:10309000079340F39282079B0F9A1344079323EA06
:1030A000E373039300230B9372E11BF0400F18BFEF
:1030B000A4B200250123FFF7ECB91BF040031CBFAD
:1030C0001346A4B20025FFF7E4B9404206900993E5
:1030D000FFF76CBB029BDD073FF547AE0B990E9BDC
:1030E0008A42A3EB02035BDD1D4669E621AA04992F
:1030F000089803F06DFD00287FF447A9DDE922342C
:103100000DF1C00A03F101082EAE43E521AA04998E
:10311000089803F05DFD00287FF437A9239C0DF18A
:10312000B80AFFF7FEBB062E334628BF06230793D7
:103130000393784B09940A93FFF73BBA0A9ACDF8A8
:1031400008B02EAB9B1A0793FFF71DBA102B229ADB
:10315000DFF8C8B140F325811026089FDDF8108004
:1031600005E00AF1080A103D102D40F31A810132E2
:103170001034072ACDE92224CAE900B6F1DD21AADC
:103180004146384603F024FD00287FF4FEA8DDE91F
:1031900022240DF1B80AE6E7059A1A60FFF70CB889
:1031A0000E9A0B99551AF8E521AA0499089803F08C
:1031B0000FFD00287FF4E9A8DDE922542EAEC6E415
:1031C00021AA0499089803F003FD00287FF4DDA8E4
:1031D000DDE922542EAEAEE421AA04990898139397
:1031E00003F0F6FC00287FF4D0A8239C139B0DF17C
:1031F000B80AFFF7F4B9229A4749CAF80010013219
:1032000001340121072ACDE92224CAF804103FF72E
:103210003FAC0AF1080A47E401322C44072ACDE901
:103220002224CAE900B57FF716AA62E421AA04990C
:10323000089803F0CDFC00287FF4A7A80DF1B80A88
:10324000FFF759BB21AA0499089803F0C1FC002894
:103250007FF49BA8239C0DF1B80AFFF7E5B9229AE9
:103260001199CAF800100F99CAF8041001320C44E1
:10327000072A2394229200F3CD800AF1080A002B3A
:10328000BFF62CAC5D421033DFF890B080F26C8159
:103290005F461026DDF81080DDF820B005E00AF169
:1032A000080A103D102D40F35E8101321034072AC8
:1032B000CDE92224CAE90076F1DD21AA414658462B
:1032C00003F086FC00287FF460A8DDE922240DF1DC
:1032D000B80AE6E70A98FDF773FC2E460346079006
:1032E000FFF7B1B81C4605F1010806F108023C449D
:1032F000B8F1070F2394C6E900B7CDF888803FF7EF
:10330000F5AE08F1010802F1080A164642E400BFD2
:1033100067666666C4160208D80F020884E30108CF
:103320001FAA1CABCDE9003203211BAB32469DED39
:10333000160B089800F0EEFA0A900A9B1B78302BC7
:1033400000EB060456D01B9B1C4400220023DDE941
:10335000160105F0E9FE002800F08E8023460A9A47
:103360009B1A0E93472D1B9B0B933FF445AE662F84
:103370007FF449AE0B9A0BF00103002A43EA0603DF
:1033800040F33681002B40F021810B9B0393079380
:10339000139B002B7CD02D238DF867300026FFF780
:1033A0005FB801322C44072ACDE92224CAE900B5CE
:1033B0003EDC0AF1080AD3E44FF02D088DF867804F
:1033C000FFF7BEB901F1004317932D231690139315
:1033D000EBE521AA0499089803F0FAFB00287EF493
:1033E000D4AF1B9A239C0DF1B80ACEE48DF8671078
:1033F000FFF726BA00220023DDE9160105F094FE4E
:103400000028A0D1C6F101031B939DE7002E08BF41
:103410000126BCE521AA0499089803F0D9FB0028ED
:103420007EF4B3AF1B9BDDE922240DF1B80A26E739
:1034300021AA0499089803F0CBFB00287EF4A5AFDD
:10344000239C0DF1B80A8BE4DDF808B0FFF791B8C2
:103450001FA91CAB741CCDE9003122461BAB022115
:103460009DED160B089800F055FA0A90472F3FF48F
:10347000B6AD0A9B1C4468E71F9BA342BFF46FAF25
:1034800030215A1C1F9219701F9B9C42F9D866E785
:103490009DF86780139EFEF7DFBF0E9B19460B9BBE
:1034A000994230DC1BF0010F7ED123EAE3720392D4
:1034B000079367276CE721AA0499089803F088FB13
:1034C00000287EF462AF239C0DF1B80A40E4062682
:1034D0005DE521AA0499089803F07AFB00287EF4A0
:1034E00054AF1B9B0E9A239CD31A0DF1B80A67E4C4
:1034F0000396079609940646CDF808B00B909DF800
:103500006780FEF7A9BFDDE90E3213440B9A0793DB
:10351000002A06DC0B9B079AC3F101031A441346E9
:10352000079223EAE3730393672731E78DF8671067
:10353000FEF74BBF8DF86710FFF7D3B88DF8671013
:10354000FEF7CABF8DF86710FFF717B98DF867103F
:10355000FEF7EABF8DF86710FFF7A6B84FF0FF330C
:103560000593FEF717BFBB4601322C44072ACDE96D
:103570002224CAE900B57FF7AFAA21AA04990898C6
:1035800003F026FB00287EF400AFDDE922240DF1D4
:10359000B80AFFF7A3BA302330328DF8763004230F
:1035A0008DF8772012936FE50B9B0F9A13440793C6
:1035B00023EAE37303936727EAE61BF001020B9209
:1035C0007FF469AD23EAE3730393E1E60F9BD3181D
:1035D00033440793F6E70D9B144A002BB6BF4FF018
:1035E0002D089DF867808DF86780114BFFF7AAB80A
:1035F0001BB9012303930793CAE60F9B013333449E
:10360000079323EAE3730393C2E652466FE6099BEE
:1036100099F8017053F8046B0993814646EAE676FF
:10362000FEF702BE022312932EE500BF9416020895
:103630009816020810B4044C13460A460146206846
:103640005DF8044BFEF778BD00000024F0B50C4691
:10365000ADF26C4D8989666EE589199621F00201FB
:10366000666AADF80E500025E769ADF80C100996B2
:1036700006951AAE4FF48065694600960496029549
:10368000059507970646FEF757FD051E07DB3046F2
:10369000694601F033F9002818BF4FF0FF35BDF837
:1036A0000C305B0603D5A38943F04003A381284671
:1036B0000DF26C4DF0BD00BF38B5324B1B680546AE
:1036C0000C460BB19A6B12B3B4F90C2093B21807E5
:1036D00025D5206900282DD013F0010207D0636999
:1036E00000225B42A361A26038B1002038BD990777
:1036F00058BF6269A2600028F7D1B4F90C301A06ED
:10370000F4D543F04003A3814FF0FF3038BD184695
:1037100001F0FAF9B4F90C2093B21807D9D4D906FC
:1037200028D5580712D4206942F00803A3819BB220
:103730000028D1D103F42072B2F5007FCCD0284606
:10374000214601F0D3FBA3892069C5E7216B51B164
:1037500004F14003994204D0284601F045FAB4F937
:103760000C200023236300232069636022F02402DD
:103770002060D9E742F0400209232B604FF0FF3070
:10378000A28138BD00000024F0B4184C2568D5F89B
:10379000484114B365681F2D24DC38B9AB1C0135D2
:1037A000656044F823100020F0BC704704EB8506E8
:1037B0000127C6F8882007FA05F2D4F88871022894
:1037C00047EA0207C4F88871C6F80831E6D1D4F890
:1037D0008C311A43C4F88C21E0E705F5A674C5F8CE
:1037E0004841D7E74FF0FF30DEE700BF50E3010864
:1037F0002DE9F04F03690F69BB4283B0C0F28680A8
:10380000013F01F1140600F1140A56F827305AF866
:103810002720BC000133009406EB04099A4254446B
:10382000B2FBF3F801943AD300252A46B646D446B3
:103830005EF8044BDCF800301FFA84FB08FB0B55E4
:103840004FEA154B240C08FB04B4ADB2551BA2B2D1
:10385000C2EB134215FA83F302EB23429BB243EA15
:103860000243F1454FEA14454CF8043B4FEA22422B
:10387000DED2009B5AF803308BB9019A131F9A4588
:103880000CD252F8043C4BB9A2F1080302E01A68CA
:10389000043B1AB99A4507F1FF37F8D3076104468C
:1038A00002F010F900282DDB08F101085046002332
:1038B00056F8041B05688AB29A1A0B0C12FA85F2A4
:1038C000C3EB154303EB224392B242EA0342B145F4
:1038D00040F8042B4FEA2343EAD25AF827200AEB98
:1038E00087037AB91A1F92450BD253F8042C42B9B8
:1038F000083B02E01A68043B1AB99A4507F1FF3702
:10390000F8D32761404603B0BDE8F08F002003B034
:10391000BDE8F08F2DE9F04F57EC106B97B0056CB8
:10392000209C039182460A920793CDE9006755B126
:10393000426C6A6001239340AB60294601F052FE5D
:103940000023CAF840303E1EB4BF01230023236089
:10395000754BBCBF26F000460196B34300F0AE8025
:103960009DED007B0022002351EC170B8DED047BB5
:1039700005F0DAFB054678B1079A01231360219B15
:10398000002B00F01083694B219A1360013B0293D6
:10399000029817B0BDE8F08FDDE9047814AA15A9E4
:1039A00048EC107B504602F0C1F9340D834640F0DC
:1039B0009B80DDE914542C4404F23243202B40F365
:1039C000BA83C3F140039E40009B04F2124023FAE5
:1039D00000F0304305F0C6F8A1F1F873012102466A
:1039E000013C0E91104619460022514B04F07CFF19
:1039F00047A3D3E9002305F02FF947A3D3E9002318
:103A000004F074FF064620460F4605F0BBF844A3B9
:103A1000D3E9002305F020F902460B46304639462B
:103A200004F064FF06460F4605F0C6FB00228146FF
:103A300000233046394605F081FB002840F0A6827D
:103A40002C1BB9F1160F04F1FF3800F29382394BA9
:103A500003EBC903D3E90023DDE9040105F06EFBA4
:103A600000286DD00023B8F1000F09F1FF390D9344
:103A7000C0F2868200230993B9F1000F66DA099B30
:103A8000CDF81890A3EB09030993C9F100030C9337
:103A9000039B092B4FF0000960D8052B40F34983A5
:103AA000043B03930024039B023B032B00F251864B
:103AB000DFE813F0680465043E045804079A42F2F4
:103AC0000F731360009BC6F31306334318D1219B79
:103AD000002B00F03586184B02930833219A029888
:103AE000136017B0BDE8F08FC8F3130141F07F53A6
:103AF0000E953A46A4F2FF3443F44013149D71E747
:103B0000219B002B40F003840C4B029340E700BF45
:103B100061436F63A787D23FB3C8608B288AC63FD3
:103B2000FB799F501344D33F0000F07FD90F020868
:103B30000000F83FA8E30108D0160208CC160208DE
:103B4000B8F1000FC0F2BE840D90099000230C93D1
:103B5000039BCDF81890092BC8449ED9002301245B
:103B60000393CDE90A344FF0FF3308930021089BFB
:103B7000CAF844100F93504601F00EFD0290002841
:103B800000F0F085029BCAF84030089B0E2B00F233
:103B90000A81002C00F007810699002940F368840F
:103BA000B14B01F00F0203EBC20393ED007B0C114C
:103BB000E2068DED107B40F10884AC4BDDE9040199
:103BC000D3E9082305F072F9CDE9000104F00F04F0
:103BD00003267CB1DDE91001A44DE30704D5D5E946
:103BE000002305F039F80136641005F10805F4D119
:103BF000CDE91001DDE90001DDE9102305F056F9FA
:103C0000CDE900010D9B53B1DDE900450022984B41
:103C10002046294605F092FA002840F027853046D4
:103C200004F0B0FFDDE9002305F016F8914B002207
:103C300004F05CFE089B0446A1F15075002B00F0D7
:103C4000FB83069B1293089B1093DDE900673946BE
:103C5000304605F0B1FA009004F094FF02460B469E
:103C60003046394604F040FE7F4B009A0F461099CB
:103C7000064603EBC1030B9802993032CDE90045AB
:103C8000D5B24C1C53E90223002800F09784002091
:103C9000794905F00BF9DDE9002304F025FE029BCC
:103CA00032461D703B46CDE9000105F065FA00285B
:103CB00040F0D48432463B4600206D4904F014FEA7
:103CC00002460B46DDE9000105F056FA002840F0F7
:103CD0003285109B012B62D0029ACDF8409013449C
:103CE000CDF84C80DDE90089CDF800B0D3469A4686
:103CF0000EE032463B4600205D4904F0F5FD4246A9
:103D00004B4605F01BFA002840F0EE8454453FD0A6
:103D1000404649460022594B04F09EFF0022574B73
:103D2000804689463046394604F096FF0F460646DF
:103D300005F042FA054604F025FF02460B463046E0
:103D4000394604F0D1FD3035EDB204F8015B42464E
:103D50004B4606460F4605F0F1F90028C9D0129BE4
:103D6000DA460133DDF800B006935946504601F0BB
:103D700039FC00232370079B1A46069B1360219B86
:103D8000002B3FF405AE02981C6017B0BDE8F08F21
:103D9000DA46DDF84090DDF84C80DDF800B0DDE972
:103DA0000434CDE90034159B002BC0F2C680069A7E
:103DB0000E2A00F3C2802C4B03EBC203D3E9008927
:103DC0000A9B002B17DA089F002F14DC40F04D836C
:103DD00000222B4B4046494604F03EFFDDE900231C
:103DE00005F0C0F9002800F0C483089F3D460A9BF7
:103DF000029CDB435FE2DDE9004542464B4620463C
:103E0000294605F053F805F0D7F90646009004F06E
:103E1000B9FE42464B4604F01FFF02460B462046C1
:103E20002946029C3546303504F05EFD069E04F8B6
:103E3000015B089D0136012D02460B46069652D0C5
:103E400000220E4B04F008FF0022002306460F4616
:103E500005F06AF9002888D1CDF800B00125DDF819
:103E600020B0CDF80CA01AE0A8E3010898E40108FE
:103E70000000F03F00001C400000E03F0000244034
:103E8000000014400022B94B04F0E6FE002200239B
:103E900006460F4605F048F9002840F06083424688
:103EA0004B463046394605F001F805F085F9824663
:103EB00004F068FE42464B4604F0CEFE02460B4636
:103EC0003046394604F010FD01350AF13006AB45A5
:103ED00002460B4604F8016BD4D1DDF800B0CDF8F2
:103EE00000A0DDF80CA01046194604F0FFFC424685
:103EF0004B4606460F4605F03FF960B942464B4631
:103F00003046394605F010F900283FF42EAF009BEB
:103F1000D9077FF52AAF14F8015C029A631E04E00A
:103F20009A4200F0C98313F8015D392D03F10104B1
:103F3000F6D06A1CD2B21A7017E70B9A002A38D052
:103F4000039A012A40F35682089B5E1E0C9BB342E3
:103F5000C0F235829E1B089B002BC0F20583099A94
:103F600014461A44984409920121504601F03CFC41
:103F7000054621E00123B8F1000F0D93BFF67AAD9D
:103F8000C4F1010309934FF0000875E5484604F0B9
:103F9000F9FD32463B4605F0C7F800287FF450ADE6
:103FA00009F1FF394CE5724B0293029817B0BDE856
:103FB000F08F0C9E099C0B9D002C0CDDB8F1000FBE
:103FC00009DD4445099A2346A8BF4346D21A0992FF
:103FD000E41AA8EB03080C9BD3B10B9B002B00F059
:103FE0008F81002E10DD29463246504601F0B8FC84
:103FF0005A4601460546504601F00CFC5946074614
:10400000504601F0EFFABB460C9B9A1B40F07981B9
:104010000121504601F0E8FBB9F1000F074600F31B
:104020009080039B012B40F3778100260120B9F19A
:10403000000F40F09180404410F01F0077D0C0F195
:104040002003042B40F38083C0F11C00099B034430
:10405000099304448044099B002B05DD59461A4608
:10406000504601F0C9FC8346B8F1000F05DD394622
:104070004246504601F0C0FC07460D9B002B40F025
:104080002481089B002B40F3FB800B9B002B7FD1EE
:10409000069B01330693029CDDF82080012607E091
:1040A000594600230A22504601F0A6FA01368346FB
:1040B00039465846FFF79CFBB04500F1300004F844
:1040C000010BEDDC03464FF0000959460122504632
:1040D000009301F091FC3946834601F0F3FC00287F
:1040E00014F8012C40F37881631E029904E0994290
:1040F00000F08D8113F8012D392A03F10104F6D067
:1041000001321A703946504601F06CFA002D3FF426
:104110002CAEB9F1000F05D0A94503D04946504651
:1041200001F060FA2946504601F05CFA1DE61C20B9
:104130008CE70124B7E4C3F12006009B03FA06F0E4
:1041400048E401464A46504601F00AFC039B012B15
:10415000074640F3B98100263B6907EB83031869E2
:1041600001F0F2FAC0F1200065E700BF0000244032
:10417000D80F0208294600230A22504601F03CFAD3
:104180000F9B002B054640F3CE82CDF81880089394
:10419000002C00F30D81002E40F0CA81A846009B40
:1041A0000399029E03F001020B920A430A92089AB5
:1041B000731E1A44099239465846FFF719FB2946DF
:1041C0000090584601F07EFC4246814639465046F2
:1041D00001F094FC009BC26804463033002A41D1B0
:1041E00001465846089301F06DFC21460490504664
:1041F00001F0F8F9049A089B1AB90A99002900F00D
:104200007A82B9F1000F06F10104C0F274810399BA
:1042100041EA09090B9951EA090100F06C81002A71
:1042200000F3A981099A3370B24200F0B081594677
:1042300000230A22504601F0DFF94545834629460E
:104240004FF000034FF00A02504613D001F0D4F9AA
:104250004146054600230A22504601F0CDF9264684
:104260008046A8E701465046049301F0BBF90122BD
:10427000049BC6E701F0C0F92646054680469AE74A
:10428000039B022B40F38180089B002B7FF4AFAD92
:1042900039460522504601F0AFF901460746584617
:1042A00001F010FC00287FF7A2AD029C069B312292
:1042B00004F8012B0133013339465046069301F0CF
:1042C00091F9002D7FF42EAF4FE53946584601F0A5
:1042D000F9FB0028BFF6D5AE594600230A22504606
:1042E00001F08AF9069B03F1FF380B9B8346002BF4
:1042F0007FF440AF0F9B002B40F30A820893CAE67D
:104300000C9A5946504601F02BFB834680E6A54B9C
:1043100002930333FFF7E2BBDDE9001200297FF4CB
:1043200084AEC2F31303002B00F0D980009E7DE61B
:1043300001230B930A9D002D49DD0F95089500215F
:10434000172DCAF844107FF716AC012204235B0036
:1043500003F11400A842114602F10102F7D9CAF88C
:10436000441008E401230B930A9B069A13440F930D
:104370000133012B1D460893B8BF0125DFE7002359
:104380000B93F1E700230B93D4E70B9B002B7FF4F7
:10439000FFAE39465846FFF72BFA069A029C00F109
:1043A00030030132069204F8013B4FF000098CE61D
:1043B00029462246504601F01FFB0546EBE60C9BC2
:1043C0000C96F31A99440026C5E5022601E4012360
:1043D0000A930893FFF7CABB03D1009BDB073FF5A5
:1043E00083AE631E01E013F8012D302A03F10104AE
:1043F000F9D087E60E9A002A00F0CF8003F233430B
:10440000099A0C9E14461A4498440992ACE5069AFF
:1044100001320692029A3123137073E6304604F09B
:10442000B1FBDDE9002304F017FC00225E4B04F031
:104430005DFA0446A1F1507500225C4BDDE90001F4
:1044400004F052FA22462B4606460F4604F094FE2C
:10445000002840F08D80224605F100433046394661
:1044600004F06CFE00283FF49AAC00273D46BEE401
:1044700000F0F980069B5C424D4B04F00F0203EB09
:10448000C203D3E90023DDE9040104F0E5FB2411B4
:10449000CDE9000100F0E780464D00230226E70742
:1044A00005D5D5E9002304F0D7FB013601236410BC
:1044B00005F10805F3D1002B3FF4A4ABCDE90001D1
:1044C000FFF7A0BB0D905BE5009B002B7FF443AE94
:1044D000DDE90012C2F31303002B7FF43CAE364E2D
:1044E0001640002E3FF4A2AD099B0133099308F159
:1044F000010801269AE50699002A01F101010691B9
:1045000012DD594601225046039301F075FA3946EF
:10451000834601F0D7FA0028039B40F3DF80392B54
:1045200000F0D180009B3133A94633704546E9E560
:104530006968504601F030F80446002800F01981FF
:104540002B6902339A0005F10C010C30FCF7ECF8F2
:1045500021460122504601F04FFA80461FE6DDF861
:1045600000B0DDF80CA000E4DDE908239C1AFBE4B0
:1045700000273D4699E6069A392B02F10102069280
:1045800000F0A1800133A94633704546BAE5069A8A
:104590000132A9460692454697E5149BC3F13603BE
:1045A0002EE700BFCC16020800001C40000014409B
:1045B000A8E3010898E401080000F07FDDE90001AC
:1045C00004F04AFB029B1D70109B012BCDE90001FA
:1045D00023D0109B029ACDF840901344C1469846D0
:1045E00000226D4B3046394604F036FB0F46064636
:1045F00004F0E2FD054604F0C5FA303502460B46EC
:104600003046394604F070F904F8015B444506462B
:104610000F46E5D1C846DDF84090604B0022DDE949
:10462000000104F063F932463B4604F087FD0028A0
:104630004ED1DDE900230020584904F055F93246F7
:104640003B4604F099FD00283FF4A9AB00E0144676
:1046500014F8013C302B04F1FF32F8D0129B0133E7
:104660000693FFF782BB0226FFF7CCBA089B002B0C
:104670003FF4D4AE0F9F002F7FF791AB0022464B43
:104680002046294604F0E8FA04460D46701CCDE9A0
:10469000004504F077FA22462B4604F0DDFA404B41
:1046A000002204F023F9069B1097013B0446A1F178
:1046B00050751293FFF7C9BA069A01320692312259
:1046C0001A70FFF752BB3922A946327045460BE5F6
:1046D000129B0133069314F8015C1EE47FF424AFAF
:1046E000DA077FF521AF1AE7129B0133DA4606930A
:1046F000DDF800B011E4069A392B02F101020692AE
:1047000006F10104DFD0B9F1000F3FF70BAF0BE763
:10471000039B022B02DCCDF818803AE60F9B08932E
:10472000CDF81880B0E5039B022BF7DC0F9BCDF88A
:10473000188008932CE5129B01330693FFF7EDBB1D
:10474000184B0293FFF724B93FF485ACC0F13C004D
:104750007CE40024CAF844402146504600F01CFF87
:10476000029068B9104B114800224FF4D57103F044
:1047700089F802460C4B0D4840F2EA2103F082F81A
:104780004FF0FF330893029A0F930123CAF8402099
:104790000A940B93FFF707BB000024400000E03FA2
:1047A00000001C40D0160208DC160208F0160208B1
:1047B000B1F90C309AB22DE9F0410C461107804650
:1047C00048D4626843F40063002AA3815DDDA56AD2
:1047D000002D57D000229BB2D8F80060E169C8F8DC
:1047E000002013F4805254D101234046A847431CB3
:1047F00066D0A389A56AE1695F0705D56268236B66
:10480000801A0BB1E36BC01A024600234046A8474A
:10481000451C48D1D8F80020B4F90C30002A5CD0EF
:104820001D2A01D0162A64D122690021C4E9002181
:1048300023F40063A381216BC8F8006011B304F175
:104840004003994202D0404600F0CEF90020206398
:10485000BDE8F0812669AEB12568266091070CBFDE
:1048600063690023AD1BA3600AE02B463246676AEA
:10487000E1694046B8470028A5EB000506440ADD7B
:10488000002DF2DC0020BDE8F081E26B002A9EDC06
:10489000F8E7206DB0E7A38943F04003A3814FF010
:1048A000FF30BDE8F081B4F90C302269226023F4B6
:1048B000006300226260DA04A381BCD52065BAE7F8
:1048C000D8F80030002B94D01D2B0FD0162B0DD014
:1048D000A38943F04003A381D5E723F40063216952
:1048E000A381DB04C4E90012A5D5E7E7C8F800609E
:1048F000C8E743F04003A381C5E700BF10B50446F5
:1049000082B008B1836B23B1B1F90C0048B902B091
:1049100010BD019100F0F8F80199B1F90C000028E0
:10492000F5D0204602B0BDE81040FFF741BF00BF00
:1049300020B1054B01461868FFF7E0BF034B04495F
:10494000186800F071BA00BF0000002450E30108AD
:10495000FD48000800207047014900F065BA00BF1B
:10496000517900082DE9F84F45682C4BC3630024AA
:10497000074600F53B7204230321C0E9B912C0F8D1
:10498000E0422146EB6005F15C006C66C5E900443D
:10499000AC60C5E90444AC610822FBF7C7FFDFF84F
:1049A00088B0BE68DFF884A0DFF88490DFF88480E8
:1049B0001B4BC5F82C80C5E9075BC5E909A9214651
:1049C000F360082206F15C007466C6E90044B46036
:1049D000C6E90444B461FBF7A9FFFD68114BC6F8B2
:1049E0002C80C6E9076BC6E909A92146EB606C6615
:1049F000C5E90044AC60C5E90444AC6105F15C0064
:104A00000822FBF793FF0123C5E9075BC5E909A964
:104A1000C5F82C80BB63BDE8F88F00BF594900087A
:104A20000900010012000200655F00088D5F0008A8
:104A3000CD5F0008ED5F00080020704770B54A1E8A
:104A4000682505FB02F50E4605F1740100F098FAA1
:104A5000044640B100210C30666005F16802216017
:104A6000A060FBF763FF204670BD00BF1F4B70B511
:104A70001D68AB6B06464BB305F53875D5E90134B7
:104A8000013B05D51EE0013B5A1C04F1680419D016
:104A9000B4F90C20002AF6D10025154B6566C4E94F
:104AA0000055A560C4E90455A5612946E3600822C4
:104AB00004F15C00FBF73AFFC4E90C55C4E9115559
:104AC000204670BD2C682CB12546D7E72846FFF755
:104AD00049FFD1E704213046FFF7B0FF04462860C4
:104AE0000028F1D10C233360EAE700BF50E301084E
:104AF0000100FFFF024B0349186800F095B900BFA1
:104B000050E3010851790008836B03B1704729E72E
:104B1000704700BF704700BF704700BF704700BFBD
:104B2000024B0349186800F059B900BF0000002487
:104B300055490008024B0349186800F04FB900BFFF
:104B400000000024394A0008F8B5244F0C460646F8
:104B500000F01EFDBB685D68C4F57E610F3125F075
:104B60000305294421F47F6121F00F01A1F5805450
:104B7000B4F5805F07DB0021304601F0E1F9BB6846
:104B80002B44984204D0304600F004FD0020F8BDCC
:104B90006142304601F0D4F901300DD0104BBA68B3
:104BA00019682D1B45F001053046091B5560196039
:104BB00000F0F0FC0120F8BD0021304601F0C0F902
:104BC000BA68831A0F2BDEDD064C0549246843F0D2
:104BD0000103001B53600860D5E700BF30040024C8
:104BE000905300243808002400295ED0F8B50F4601
:104BF000064600F0CDFC57F804CC754D2CF00103AF
:104C0000A7F10800C218A9685468914224F003046F
:104C100000F084801CF0010F546002EB040133D1DA
:104C200057F808EC4968A0EB0E0005F1080C8768FE
:104C30006745734401F0010160D0D0F80CE0C7F87B
:104C40000CE0CEF80870002900F08D8043F00101DF
:104C500041601360B3F5007F30D2DB08591C6C68EB
:104C60009A1001239340234305EBC10255F83140CC
:104C70006B60083AC0E9024245F83100E060304616
:104C8000BDE8F84000F086BC4968C9070ED423444B
:104C900005F1080C9168614543F001046BD0D268BE
:104CA000CA6091604460C350D4E7704743F001018B
:104CB000B3F5007F47F8041C1360CED35A0A042AC8
:104CC00046D89A0902F13907FF0002F13801EC19C0
:104CD000EA59083C944255D0516821F003019942A9
:104CE00002D992689442F7D1D468C0E90224A06046
:104CF000D0603046BDE8F84000F04CBC002962D1DD
:104D0000D2E90221234443F00104D1608A60446067
:104D1000C3503046BDE8F84000F03CBC1CF0010F29
:104D2000234407D157F8082C801A1344D0E9021203
:104D3000CA609160274A126843F001019A424160BB
:104D4000A8609CD8244B30461968FFF7FDFE96E713
:104D5000142A0AD9542A1DD81A0B02F16F07FF0032
:104D600002F16E01B3E7234494E702F15C07FF0010
:104D700002F15B01ABE7C5E90400C0E902CC446085
:104D8000C3507CE76B688910012707FA01F11943CA
:104D90006960AAE7B2F5AA7F06D8DA0B02F17807B4
:104DA000FF0002F1770192E740F254518A4206D89F
:104DB0009A0C02F17D07FF0002F17C0187E74FF4B6
:104DC0007E777E2183E743F001014160136056E75F
:104DD000300400243C0800248C5300242DE9F041C9
:104DE00010F538771BD088460026D7E90154013DDD
:104DF0000FD4A389012B05F1FF3506D9B4F90E3084
:104E00000133204601D0C04706436B1C04F16804FF
:104E1000EFD13F68002FE8D13046BDE8F0813E4633
:104E20003046BDE8F08100BF2DE9F84310F5387732
:104E30001FD0884606464FF00009D7E90154013DCE
:104E400011D4A389012B05F1FF3508D9B4F90E302F
:104E500001332146304602D0C04749EA00096B1CA5
:104E600004F16804EDD13F68002FE6D14846BDE863
:104E7000F883B9464846BDE8F88300BFF030704774
:104E8000004870473009002400487047300900246A
:104E900070B50C46B1F90E10002996B015461E46A5
:104EA00014DB6A4602F04AFE00280FDB019A02F486
:104EB0007042A2F50052B2FA82F252094FF48063B6
:104EC0004FF4006032602B6016B070BDA2890023E1
:104ED00012F08000336004D0402218462A6016B0D9
:104EE00070BD4FF480632B6016B070BD8A89920745
:104EF0000B4606D501F1430201211A60C3E90421E2
:104F0000704770B582B001AB6A460C460646FFF7A3
:104F1000BFFF00990546304600F032F8B4F90C3076
:104F200070B11649F163019A0099206043F0800343
:104F3000A381C4E904018AB92B43A38102B070BDE7
:104F40009A05FBD423F0030304F1430243F0020368
:104F50000121A3812260C4E90421EFE73046B4F9BE
:104F60000E1002F083FF10B9B4F90C30E4E7A38906
:104F700023F0030343F001031BB2DDE759490008A6
:104F80002DE9F04F01F10B05162D83B0064623D80D
:104F9000102900F2B98000F0FBFA10251823022036
:104FA000CD4F3B44A3F108025C68944200F0B98005
:104FB000636823F003032344D4E902515A68E9608B
:104FC00042F0010230468D605A6000F0E3FA083486
:104FD000204603B0BDE8F08F35F0070500F194805E
:104FE000A94200F2918000F0D3FAB5F5FC7FC0F041
:104FF0009D816B0A00F08F80042B00F27381AB0956
:1050000003F1390003F1380CC300B34F3B44A3F163
:1050100008015C68A14206D10CE0002A80F22B81D5
:10502000E468A14206D0636823F003035A1B0F2AE9
:10503000F3DD60463C69DFF8A4C264457CD0636858
:1050400023F003035A1B0F2A00F37E81002AC7E9CD
:1050500004CC80F26F81B3F5007F80F01A81DB0809
:10506000591C7A6857F83180C4F808804FF0010E57
:105070009B100EFA03F307EBC10E1343AEF10802C7
:10508000E2607B6047F83140C8F80C408210012490
:1050900094409C4256D81C4206D120F00300640084
:1050A0001C4200F10400FAD007EBC009CE4680464E
:1050B000DEF80C309E4507D120E1002A80F22781DE
:1050C000DB689E4500F01A81596821F003014A1BF4
:1050D0000F2AF2DDD3E9028E5C1945F001055D600F
:1050E00042F00105C8F80CE03046CEF80880C7E968
:1050F0000444C4E902CC65605A50009300F04AFAB7
:10510000009B03F1080402E00C23336000242046D6
:1051100003B0BDE8F08F4FF4007340204FF03F0C18
:1051200073E7DC68A34208BF02307FF441AF3C69FB
:10513000DFF8A8C1644582D17B68821001249440C5
:105140009C42A8D9BC68636823F00308A84503D330
:10515000A8EB05030F2B7EDCDFF88491D7F8082439
:10516000D9F80030013204EB080A2B4400F03781F3
:1051700003F580530F3323F47F6B2BF00F0B59464D
:10518000304600F0DDFE411C024600F0F78082450B
:1051900000F2F280D9F804105944C9F804100B4603
:1051A00000F05381D7F8081401311BBFA2EB0A0AA3
:1051B0005344C7F80824C9F8043012F0070300F07C
:1051C0001A81C3F108010A44C3F5805193440831A0
:1051D000A1EB0B01C1F30B0A51463046019300923B
:1051E00000F0AEFE421CDDE9002300F05381831A7B
:1051F00003EB0A0BD9F80410BA604BF001035144D9
:10520000BC425360C9F8041000F02B81B8F10F0FB5
:1052100040F229816368A8F10C0020F0070003F038
:10522000010304EB000C03434FF0050E0F286360ED
:10523000CCE901EE00F2358153681446D9F82C20F0
:105240008A42D9F8302038BFC9F82C108A4238BFBA
:10525000C9F8301094E0621943F0010345F00105EC
:1052600065603046BA60536000F094F90834204617
:1052700003B0BDE8F08F2344E1685A68A56842F0A6
:105280000102E96030468D605A6000F083F908340D
:105290003DE75A0A042A69D9142A00F2BE8002F1B5
:1052A0005C01C9005B3207EB010E7958AEF1080EC4
:1052B0008E4500F097804A6822F003029A4202D994
:1052C00089688E45F7D1D1F80CE07B68C4E9021EED
:1052D000CEF80840CC60D9E630040024380400241D
:1052E0008C530024142B59D9542B00F29E802B0B85
:1052F00003F16F0003F16E0CC30086E608F10108AC
:1053000018F0030F0EF1080E7FF4D2AE51E01944ED
:105310001C464A68DB6854F8085F42F001024A60A4
:105320003046EB609D6000F035F9F0E6E80805F1E5
:10533000080335E6234430465A6842F001025A60B9
:10534000083400F027F9E2E6611945F0010E42F059
:105350000105C4F804E03046C7E90411C1E902CCF4
:105360004D60E25000F016F90834D0E69A0902F1D7
:105370003901C900383296E7BC4260D0BC68636826
:1053800023F0030BAB45ABEB050302D30F2B3FF729
:1053900062AF304600F0FEF80024B8E603F15C008E
:1053A00003F15B0CC30030E659F808394B4540F077
:1053B000968010F0030F00F1FF30F5D17B6823EAEF
:1053C00004037B6064009C423FF6BCAE1CB9B9E6A6
:1053D000640008F104081C42FAD0404664E603F178
:1053E000100BCCE67B6892104FF0010808FA02F22D
:1053F00013437B606AE702EB0B014942C1F30B0ADE
:10540000514630460193009200F09AFD431CDDE9BD
:1054100000237FF4ECAE9A46ECE6542A26D81A0B09
:1054200002F16F01C9006E323DE7B3F5AA7F26D8BD
:10543000EB0B03F1780003F1770CC300E5E5D9F835
:1054400004305B44C9F80430ACE6CAF30B00002812
:105450007FF4A8AE08EB0B03BC6843F00103636064
:10546000ECE61446EAE60123536092E7B2F5AA7F20
:1054700021D8DA0B02F17801C900773213E740F244
:105480005452934221D8AB0C03F17D0003F17C0C04
:10549000C300BAE5083B9B44ABEB020B4FF0000A9C
:1054A000A8E604F108013046FFF79EFBBC68D9F876
:1054B00004106368C2E640F254518A420BD89A0C39
:1054C00002F17D01C9007C32EDE64FF47E737F204E
:1054D0004FF07E0C99E54FF47E717E22E3E67B6807
:1054E00070E700BF000000000000000000000000A6
:1054F00001F0FF01102A2BDB10F0070F08D010F885
:10550000013B013A8B422DD010F0070F42B3F6D188
:10551000F0B441EA012141EA014122F007047FF0A1
:1055200000070023F0E80256083C85EA010586EAF8
:10553000010685FA47F5A3FA87F586FA47F6A5FA34
:1055400087F68EB9EED1F0BC01F0FF0102F0070240
:1055500032B110F8013B013A83EA010313B1F8D1EB
:105560000020704701387047002D06BF35460338CC
:10557000073815F0010F07D1013015F4807F02BF05
:10558000013015F4C03F0130F0BC0138704700BF56
:10559000704700BF704700BFC36C70B505460C462E
:1055A0004BB153F8240080B1026843F82420002353
:1055B000C0E9033370BD2122042102F087F90346BC
:1055C000E8640028EDD1002070BD012101FA04F645
:1055D000721D2846920002F079F90028F3D0C0E944
:1055E0000146E4E731B1C36C4A6853F82200086011
:1055F00043F82210704700BFF0B50C6983B00D4628
:10560000064601F1140C0027DCF8000081B202FB11
:105610000133190C000C02FB00109BB2013703EBA5
:105620000043BC424CF8043B4FEA1043ECDC3BB176
:10563000AA68A24207DD05EB8402013453612C61A4
:10564000284603B0F0BD6968019330460131FFF789
:10565000A3FF019B0746B8B12A690193023205F105
:105660000C0192000C30FBF75FF8F26C6968019B4B
:1056700052F82100286042F821503D4605EB840293
:10568000013453612C61DBE70246024B0248B5212D
:1056900002F0F8F8DC160208241702082DE9F84396
:1056A000264C089E1D46083384FB034C092D4FEA07
:1056B000E373904607460C46C3EB6C0236DD0123CC
:1056C00000215B009A4201F10101FADC3846FFF744
:1056D00063FF68B30123B8F1090FC0E9043613DC96
:1056E0000A344FF0090845450CDDA5EB08052544B3
:1056F00014F8013B0146303B0A223846FFF77CFF95
:10570000A542F5D1BDE8F88304F109094E464444A9
:1057100016F8013B0146303B0A223846FFF76CFF82
:10572000B442F5D1A8F108044C44DCE70021CDE7F0
:105730000246034B0348CE2102F0A4F8398EE33829
:10574000DC16020824170208020C12040346CAB928
:105750000304102013F07F4F04BF1B02083013F026
:10576000704F04BF1B01043013F0404F04BF9B0077
:105770000230002B05DB13F0804F00F1010008BF61
:10578000202070470020E5E7036813F00702014678
:1057900007D0DA0720D4980722D55B080B600120D8
:1057A000704798B2B0B91B0C102013F0FF0F04BF64
:1057B0001B0A08301A0704BF1B0904309A0704BFEC
:1057C0009B080230DA0703D45B0800F1010005D022
:1057D0000B6070471046E8E70020704720207047B4
:1057E0009B080B600220704710B50C460121FFF7A3
:1057F000D3FE024618B10123C0E9043410BD034BA7
:1058000003484FF4A07102F03DF800BFDC16020817
:10581000241702082DE9F04F0E691769BE4283B0C4
:105820000C46154605DB3A462B4637460D461646CE
:105830001C46D5E9011307EB06084345B8BF013103
:10584000FFF7AAFE009000287FD0009B03F1140A06
:105850000AEB8809CA4505D25346002143F8041BC8
:105860009945FBD804F1140E0EEB860B05F11403D9
:10587000DE4503EB870753D2CDF80480984605E058
:10588000090C28D1F3450AF1040A47D95EF8041B34
:105890008EB2002EF4D045465446002355F8041B22
:1058A00020688AB21FFA80FC06FB02C2090C000CB9
:1058B000134406FB010202EB13429BB243EA02438C
:1058C000AF4244F8043B4FEA1243E7D823605EF846
:1058D000041C090CD6D0DAF8003040461A4654466B
:1058E0004FF0000C0588120C01FB052294449BB27A
:1058F00043EA0C4344F8043B50F8043B22681B0C79
:1059000095B201FB035303EB1C4387424FEA134C50
:10591000E8D8F34523600AF1040AB7D8DDF804801B
:10592000B8F1000F0BDD59F8043CA9F104091BB1D3
:1059300005E059F8043D13B9B8F10108F9D1009810
:10594000C0F8108003B0BDE8F08F0246024B034858
:1059500040F25D1101F096FFDC16020824170208E0
:1059600012F003032DE9F041144607462ED10D46EF
:10597000A4101CD0BE6C96B3E3074FF0000806D409
:10598000641014D03068A8B10646E307F8D5324653
:1059900029463846FFF73EFFB5B16A68FB6C6410D4
:1059A00053F82210296043F822500546EAD12846D0
:1059B000BDE8F081324631463846FFF72BFF3060B4
:1059C000C0F800800646E0E70546D9E7013B094AF2
:1059D00052F823200023FFF70FFE0546C8E740F2E8
:1059E00071213846FFF700FF0023B86406460360C4
:1059F000C2E700BF98E301082DE9F8430E690D46A0
:105A00004FEA6219D1E901134E44741C9C4290463E
:105A1000074604DD5B009C4201F10101FADC3846D7
:105A2000FFF7BAFD002842D0B9F1000F00F1140CC5
:105A30000EDD09F105094FEA890900EB090163460A
:105A4000002243F8042B8B42FBD1A9F11409CC446A
:105A5000296905F1140318F01F0803EB810E1DD00E
:105A6000C8F120090022196801FA08F111434CF825
:105A7000041B53F8042B734522FA09F2F3D3CCF834
:105A80000020002A18BF2646FB6C6A68066153F89E
:105A90002210296043F82250BDE8F883ACF1040CD1
:105AA00053F8042B4CF8042F9E45F9D8ECE7024636
:105AB000024B034840F2D91101F0E4FEDC16020863
:105AC0002417020830B40B6905460069C01A10D1CA
:105AD0009B001435143119442B4401E09D4208D237
:105AE00053F8044D51F8042D9442F7D003D24FF0EF
:105AF000FF3030BC7047012030BC70472DE9F843BF
