:020000040800F2
:100000000000082495280008611D0008631D0008F1
:10001000651D0008671D0008691D0008000000003C
:1000200000000000000000000000000061A80008BF
:100030006B1D00080000000001A90008C5A0000811
:10004000E5280008E5280008E5280008E52800085C
:10005000E5280008E5280008E5280008E52800084C
:10006000E5280008E5280008E5280008E52800083C
:10007000E5280008E5280008E5280008E52800082C
:10008000E5280008E5280008E5280008E52800081C
:10009000E5280008E5280008E5280008E52800080C
:1000A000E5280008E5280008E5280008E5280008FC
:1000B000E5280008E5280008E5280008E5280008EC
:1000C000E5280008E5280008E5280008E5280008DC
:1000D000E5280008E5280008E5280008E5280008CC
:1000E000E5280008E528000800000000E5280008D1
:1000F000E5280008E5280008E5280008E5280008AC
:10010000E5280008E5280008E5280008E52800089B
:10011000E5280008E5280008E5280008E52800088B
:10012000E5280008E5280008E5280008E52800087B
:10013000E52800086D1D0008E5280008E5280008EE
:1001400000000000000000000000000000000000AF
:10015000E5280008E5280008E5280008E52800084B
:10016000E5280008E5280008E5280008E52800083B
:10017000E5280008E5280008E52800080000000040
:10018000E5280008E5280008E5280008E52800081B
:10019000E5280008E5280008E5280008E52800080B
:1001A000E5280008E5280008E5280008E5280008FB
:1001B000E5280008E5280008E5280008E5280008EB
:1001C000E5280008E5280008E5280008E5280008DB
:1001D000E5280008E5280008E5280008E5280008CB
:1001E000E5280008E5280008E5280008E5280008BB
:1001F000E5280008E5280008E5280008E5280008AB
:10020000E5280008E5280008E5280008E52800089A
:10021000E52800087D1D0008991D0008E528000854
:10022000E5280008E5280008E5280008000000008F
:10023000E5280008E528000800000000E52800087F
:10024000E5280008E5280008E5280008E52800085A
:10025000E5280008E5280008E5280008E52800084A
:10026000E5280008E5280008E5280008E52800083A
:10027000E5280008E5280008E5280008000000003F
:10028000E5280008E5280008E5280008000000002F
:0802900000000000E528000851
:1002C00053B94AB9002908BF00281CBF4FF0FF31BD
:1002D0004FF0FF3000F00CB8ADF1080C6DE904CE22
:1002E00015F008FDDDF804E0DDE9022304B07047F5
:1002F000704700BF00000000000000000000000088
:1003000001F0FF01102A2BDB10F0070F08D010F8C6
:10031000013B013A8B422DD010F0070F42B3F6D1CA
:10032000F0B441EA012141EA014122F007047FF0E3
:1003300000070023F0E80256083C85EA010586EA3A
:10034000010685FA47F5A3FA87F586FA47F6A5FA76
:1003500087F68EB9EED1F0BC01F0FF0102F0070282
:1003600032B110F8013B013A83EA010313B1F8D12D
:100370000020704701387047002D06BF354603380E
:10038000073815F0010F07D1013015F4807F02BF47
:10039000013015F4C03F0130F0BC0138704700BF98
:1003A000844641EA000313F003036DD1403A41D380
:1003B00051F8043B40F8043B51F8043B40F8043B3F
:1003C00051F8043B40F8043B51F8043B40F8043B2F
:1003D00051F8043B40F8043B51F8043B40F8043B1F
:1003E00051F8043B40F8043B51F8043B40F8043B0F
:1003F00051F8043B40F8043B51F8043B40F8043BFF
:1004000051F8043B40F8043B51F8043B40F8043BEE
:1004100051F8043B40F8043B51F8043B40F8043BDE
:1004200051F8043B40F8043B51F8043B40F8043BCE
:10043000403ABDD2303211D351F8043B40F8043B6E
:1004400051F8043B40F8043B51F8043B40F8043BAE
:1004500051F8043B40F8043B103AEDD20C3205D37E
:1004600051F8043B40F8043B043AF9D2043208D076
:10047000D2071CBF11F8013B00F8013B01D30B88E8
:1004800003806046704700BF082A13D38B078DD0C6
:1004900010F003038AD0C3F10403D21ADB071CBF98
:1004A00011F8013B00F8013B80D331F8023B20F802
:1004B000023B7BE7043AD9D3013A11F8013B00F83B
:1004C000013BF9D20B7803704B7843708B788370C3
:1004D00060467047000000000000000000000000BF
:1004E000000000000000000000000000000000000C
:1004F00000000000000000000000000000000000FC
:1005000090F800F06DE9024520F007016FF0000C53
:1005100010F0070491F820F040F049804FF00004FB
:100520006FF00700D1E9002391F840F000F10800D6
:1005300082FA4CF2A4FA8CF283FA4CF3A2FA8CF30E
:100540004BBBD1E9022382FA4CF200F10800A4FA75
:100550008CF283FA4CF3A2FA8CF3E3B9D1E90423C9
:1005600082FA4CF200F10800A4FA8CF283FA4CF300
:10057000A2FA8CF37BB9D1E9062301F1200182FABA
:100580004CF200F10800A4FA8CF283FA4CF3A2FAC0
:100590008CF3002BC6D0002A04BF04301A4612BACE
:1005A000B2FA82F2FDE8024500EBD2007047D1E9D1
:1005B000002304F00305C4F100004FEAC50514F060
:1005C000040F91F840F00CFA05F562EA05021CBF31
:1005D00063EA050362464FF00004A9E781F0004199
:1005E00002E000BF83F0004330B54FEA41044FEA18
:1005F000430594EA050F08BF90EA020F1FBF54EAB3
:10060000000C55EA020C7FEA645C7FEA655C00F04E
:10061000E2804FEA5454D4EB5555B8BF6D420CDD1F
:100620002C4480EA020281EA030382EA000083EAA2
:10063000010180EA020281EA0303362D88BF30BD42
:1006400011F0004F4FEA01314FF4801C4CEA113198
:1006500002D0404261EB410113F0004F4FEA0333F7
:100660004CEA133302D0524263EB430394EA050F82
:1006700000F0A780A4F10104D5F1200E0DDB02FAF1
:100680000EFC22FA05F2801841F1000103FA0EF285
:10069000801843FA05F359410EE0A5F120050EF14B
:1006A000200E012A03FA0EFC28BF4CF0020C43FA7C
:1006B00005F3C01851EBE37101F0004507D54FF089
:1006C000000EDCF1000C7EEB00006EEB0101B1F5D9
:1006D000801F1BD3B1F5001F0CD349085FEA30001F
:1006E0004FEA3C0C04F101044FEA445212F5800F2A
:1006F00080F09A80BCF1004F08BF5FEA500C50F1C7
:10070000000041EB045141EA050130BD5FEA4C0CA9
:10071000404141EB0101013C28BFB1F5801FE9D206
:1007200091F0000F04BF01460020B1FA81F308BF29
:100730002033A3F10B03B3F120020CDA0C3208DDF5
:1007400002F1140CC2F10C0201FA0CF021FA02F1D0
:100750000CE002F11402D8BFC2F1200C01FA02F140
:1007600020FA0CFCDCBF41EA0C019040E41AA2BF65
:1007700001EB0451294330BD6FEA04041F3C1CDA2D
:100780000C340EDC04F11404C4F1200220FA04F04D
:1007900001FA02F340EA030021FA04F345EA0301F7
:1007A00030BDC4F10C04C4F1200220FA02F001FAB9
:1007B00004F340EA0300294630BD21FA04F029463B
:1007C00030BD94F0000F83F4801306BF81F48011D4
:1007D0000134013D4EE77FEA645C18BF7FEA655C47
:1007E00029D094EA050F08BF90EA020F05D054EA19
:1007F000000C04BF1946104630BD91EA030F1EBF1E
:100800000021002030BD5FEA545C05D14000494121
:1008100028BF41F0004130BD14F580043CBF01F514
:10082000801130BD01F0004545F0FE4141F47001FA
:100830004FF0000030BD7FEA645C1ABF19461046D5
:100840007FEA655C1CBF0B46024650EA013406BFD6
:1008500052EA033591EA030F41F4002130BD00BF95
:1008600090F0000F04BF0021704730B54FF4806452
:1008700004F132044FF000054FF0000150E700BFD3
:1008800090F0000F04BF0021704730B54FF4806432
:1008900004F1320410F0004548BF40424FF000011F
:1008A0003EE700BF42004FEAE2014FEA31014FEA62
:1008B00002701FBF12F07F4393F07F4F81F06051B1
:1008C000704732F07F4208BF704793F07F4F04BFFC
:1008D00041F40021704730B54FF4607401F00045D9
:1008E00021F000411CE700BF50EA010208BF704739
:1008F00030B54FF000050AE050EA010208BF70472A
:1009000030B511F0004502D5404261EB41014FF492
:10091000806404F132045FEA915C3FF4D8AE4FF09A
:1009200003025FEADC0C18BF03325FEADC0C18BF7D
:10093000033202EBDC02C2F1200300FA03FC20FACE
:1009400002F001FA03FE40EA0E0021FA02F114441B
:10095000BDE600BF70B54FF0FF0C4CF4E06C1CEA34
:1009600011541DBF1CEA135594EA0C0F95EA0C0FA5
:1009700000F0DEF82C4481EA030621EA4C5123EA18
:100980004C5350EA013518BF52EA033541F4801147
:1009900043F4801338D0A0FB02CE4FF00005E1FBFA
:1009A00002E506F00042E0FB03E54FF00006E1FB44
:1009B00003569CF0000F18BF4EF0010EA4F1FF0487
:1009C000B6F5007F64F5407404D25FEA4E0E6D41C7
:1009D00046EB060642EAC62141EA55514FEAC520D8
:1009E00040EA5E504FEACE2EB4F1FD0C88BFBCF554
:1009F000E06F1ED8BEF1004F08BF5FEA500E50F105
:100A0000000041EB045170BD06F0004646EA0101CA
:100A100040EA020081EA0301B4EB5C04C2BFD4EBFC
:100A20000C0541EA045170BD41F480114FF0000EF5
:100A3000013C00F3AB8014F1360FDEBF002001F063
:100A4000004170BDC4F10004203C35DA0C341BDCDD
:100A500004F11404C4F1200500FA05F320FA04F0AF
:100A600001FA05F240EA020001F0004221F00041E3
:100A700010EBD37021FA04F642EB06015EEA430E56
:100A800008BF20EAD37070BDC4F10C04C4F1200586
:100A900000FA04F320FA05F001FA04F240EA020039
:100AA00001F0004110EBD37041F100015EEA430E0A
:100AB00008BF20EAD37070BDC4F1200500FA05F22A
:100AC0004EEA020E20FA04F301FA05F243EA0203A9
:100AD00021FA04F001F0004121FA04F220EA0200B8
:100AE00000EBD3705EEA430E08BF20EAD37070BDFE
:100AF00094F0000F0FD101F00046400041EB0101DE
:100B000011F4801F08BF013CF7D041EA060195F0BF
:100B1000000F18BF704703F00046520043EB030379
:100B200013F4801F08BF013DF7D043EA0603704766
:100B300094EA0C0F0CEA135518BF95EA0C0F0CD071
:100B400050EA410618BF52EA4306D1D181EA0301B7
:100B500001F000414FF0000070BD50EA410606BFB1
:100B60001046194652EA430619D094EA0C0F02D1F6
:100B700050EA013613D195EA0C0F05D152EA03363B
:100B80001CBF104619460AD181EA030101F0004159
:100B900041F0FE4141F470014FF0000070BD41F0A2
:100BA000FE4141F4780170BD70B54FF0FF0C4CF47C
:100BB000E06C1CEA11541DBF1CEA135594EA0C0F9B
:100BC00095EA0C0F00F0A7F8A4EB050481EA030EE8
:100BD00052EA03354FEA013100F088804FEA0333CF
:100BE0004FF0805545EA131343EA12634FEA02229D
:100BF00045EA111545EA10654FEA00260EF000415E
:100C00009D4208BF964244F1FD0404F5407402D2AF
:100C10005B084FEA3202B61A65EB03055B084FEA40
:100C200032024FF480104FF4002CB6EB020E75EB3D
:100C3000030E22BFB61A754640EA0C005B084FEA65
:100C40003202B6EB020E75EB030E22BFB61A7546E2
:100C500040EA5C005B084FEA3202B6EB020E75EB2D
:100C6000030E22BFB61A754640EA9C005B084FEAA5
:100C70003202B6EB020E75EB030E22BFB61A7546B2
:100C800040EADC0055EA060E18D04FEA051545EAA1
:100C900016754FEA06164FEAC30343EA52734FEA4A
:100CA000C2025FEA1C1CC0D111F4801F0BD141EAC3
:100CB00000014FF000004FF0004CB6E711F4801F28
:100CC00004BF01430020B4F1FD0C88BFBCF5E06F08
:100CD0003FF6AFAEB5EB030C04BFB6EB020C5FEA18
:100CE000500C50F1000041EB045170BD0EF0004E6D
:100CF0004EEA113114EB5C04C2BFD4EB0C0541EA9F
:100D0000045170BD41F480114FF0000E013C90E69B
:100D100045EA060E8DE60CEA135594EA0C0F08BF5F
:100D200095EA0C0F3FF43BAF94EA0C0F0AD150EA5E
:100D300001347FF434AF95EA0C0F7FF425AF1046F1
:100D400019462CE795EA0C0F06D152EA03353FF419
:100D5000FDAE1046194622E750EA410618BF52EA96
:100D600043067FF4C5AE50EA41047FF40DAF52EA6A
:100D700043057FF4EBAE12E74FF0FF3C06E000BF07
:100D80004FF0010C02E000BF4FF0010C4DF804CD14
:100D90004FEA410C7FEA6C5C4FEA430C18BF7FEAD4
:100DA0006C5C1BD001B050EA410C0CBF52EA430C02
:100DB00091EA030F02BF90EA020F0020704710F182
:100DC000000F91EA030F58BF994208BF90422CBF11
:100DD000D8176FEAE37040F0010070474FEA410C0A
:100DE0007FEA6C5C02D150EA013C07D14FEA430C28
:100DF0007FEA6C5CD6D152EA033CD3D05DF8040B99
:100E0000704700BF8446104662468C4619466346CA
:100E100000E000BF01B5FFF7B7FF002848BF10F1A1
:100E2000000F01BD4DF808EDFFF7F4FF0CBF0120E6
:100E300000205DF808FB00BF4DF808EDFFF7EAFF62
:100E400034BF012000205DF808FB00BF4DF808ED1D
:100E5000FFF7E0FF94BF012000205DF808FB00BF12
:100E60004DF808EDFFF7CEFF94BF012000205DF89C
:100E700008FB00BF4DF808EDFFF7C4FF34BF0120A9
:100E800000205DF808FB00BF4FEA410C7FEA6C5C74
:100E900002D150EA013C0AD14FEA430C7FEA6C5C74
:100EA00002D152EA033C02D14FF0000070474FF0EC
:100EB000010070474FEA410212F5001215D211D518
:100EC0006FF47873B3EB625212D94FEAC12343F047
:100ED000004343EA505311F0004F23FA02F018BFC9
:100EE000404270474FF00000704750EA013005D192
:100EF00011F0004008BF6FF0004070474FF0000055
:100F0000704700BF0348044B834202D0034B03B138
:100F100018477047F4060024F4060024000000007F
:100F20000548064B1B1AD90F01EBA301491002D04B
:100F3000034B03B118477047F4060024F40600245D
:100F40000000000010B5064C237843B9FFF7DAFF24
:100F5000044B13B10448AFF300800123237010BD8C
:100F60007850002400000000E4E2010808B5054BB9
:100F70001BB105490548AFF30080BDE80840FFF705
:100F8000CFBF00BF000000007C500024E4E2010855
:100F900000B58BB000230793089309930093019346
:100FA000029303930493059306931F481F4A02601C
:100FB0004FF4002242608360C36004220261037523
:100FC000437501228261037743628362C3620363D4
:100FD000436380F8383002F075FBE0B900230793D3
:100FE00007A9114802F0F2FCC0B9114B0093062387
:100FF00001930023029340F2FF72039204220492B1
:1010000005938DF819306946074801F05FFE40B935
:101010000BB05DF804FB00F017FDDFE700F014FDF6
:10102000E3E700F011FDF3E7F85000240020024050
:101030002000F01400B589B00023019302930393BC
:10104000049305930693079329482A4A0260836014
:101050000122C2600421016103754375032181618E
:10106000037743628362C3620363436380F838207B
:101070000221C16303644364826402F023FB50BB1A
:101080001D4B019306230293039340F2FF730493D5
:1010900004230593002306938DF81D3001A91448FD
:1010A00001F014FED0B9154B01930C2302930423D5
:1010B00003930DEB03010E4801F008FE88B9104BB5
:1010C00001931223029301A9094801F0FFFD58B9C9
:1010D00009B05DF804FB00F0B7FCD1E700F0B4FC08
:1010E000E1E700F0B1FCEAE700F0AEFCF0E700BF9A
:1010F0009450002400600258000084CB000052C7C6
:101100000000B8CF10B58CB0002307930893099363
:101110000A930B930368394A934204D0384A9342A6
:1011200038D00CB010BD374BD3F8D82042F0200295
:10113000C3F8D820D3F8D82002F020020192019AF7
:10114000D3F8E02042F00102C3F8E020D3F8E02019
:1011500002F001020292029AD3F8E02042F0020269
:10116000C3F8E020D3F8E03003F002030393039BBD
:10117000012307930324089407A9234804F0DCF80B
:101180000223079308940023099307A91F4804F03A
:10119000D3F8C6E71B4BD3F8E02042F08072C3F8C7
:1011A000E020D3F8E02002F080720492049AD3F891
:1011B000E02042F02002C3F8E020D3F8E02002F063
:1011C00020020592059AD3F8E02042F00402C3F809
:1011D000E020D3F8E03003F004030693069B4FF4BD
:1011E000C87307930323089307A9094804F0A4F8D8
:1011F0004FF08061084601F0C1FC92E700200240F8
:1012000000600258004402580000025800040258CE
:101210000014025800B58BB02422002101A817F059
:10122000A1F81248124B036002F020FDA0B9002281
:1012300001920292039201230493059201A90B48A3
:1012400002F026FD58B9102201A9084802F020FD3D
:1012500040B90BB05DF804FB00F0F6FBE7E700F0E7
:10126000F3FBF0E700F0F0FBF3E700BF5C51002474
:101270000074004000B589B00023039304930593E4
:10128000069307930268144B9A4202D009B05DF8A6
:1012900004FB124BD3F8E82042F00052C3F8E820D8
:1012A000D3F8E82002F000520192019AD3F8E0202E
:1012B00042F00102C3F8E020D3F8E03003F001036C
:1012C0000293029B302303930323049303A904484E
:1012D00004F032F8DAE700BF00740040004402581E
:1012E0000000025808B51548154B036000238360C1
:1012F000C3600374437483741022426101228261CB
:101300000221C161016242628262C262026343637E
:101310008363C3630364042242648364C264036519
:1013200042658365C36503664366826603F0BAFE61
:1013300000B908BD00F088FBFBE700BF7451002432
:1013400000A0004008B51548154B036000238360DA
:10135000C36003744374837410224261012282616A
:101360000221C161016242628262C262026343631E
:101370008363C3630364042242648364C2640365B9
:1013800042658365C36503664366826603F08AFE31
:1013900000B908BD00F058FBFBE700BF1452002461
:1013A00000A4004010B5B8B0044600213391349138
:1013B000359136913791BC2204A816F0D3FF2368EB
:1013C0003E4A934204D03E4A93423CD038B010BDCE
:1013D0004FF40043049300231F9304A805F078F909
:1013E00000BB384A136801331360012B1DD0364B04
:1013F000D3F8E02042F00802C3F8E020D3F8E03050
:1014000003F008030193019B0323339302233493D6
:101410000023359336930923379333A92B4803F0E0
:101420008BFFD3E700F010FBDBE7274BD3F8EC2072
:1014300042F48072C3F8EC20D3F8EC3003F48073EC
:101440000093009BD3E74FF40043049300231F93C2
:1014500004A805F03DF900BB1A4A13680133136074
:10146000012B1DD0184BD3F8E02042F00202C3F844
:10147000E020D3F8E03003F002030393039B6023E2
:101480003393022334930023359336930923379300
:1014900033A90F4803F050FF98E700F0D5FADBE7D7
:1014A000094BD3F8EC2042F48072C3F8EC20D3F857
:1014B000EC3003F480730293029BD3E700A000405A
:1014C00000A400407051002400440258000C02584F
:1014D0000004025808B508F0F5F908F0DFF94FF4F8
:1014E0007A7008F094FEFAE708B5052008F08FFE40
:1014F000FBE708B5012008F08AFEFBE708B50120EC
:1015000008F085FEFBE7000010B59AB04FF47A7042
:1015100008F07DFE08F07AF808F010FE04460B4B48
:10152000186809F0CBF803462246094901A814F0CF
:1015300073FD642382B201A9064807F01EFD08F07E
:10154000C7F84FF47A7008F062FEE5E79C5C00246F
:101550004CE301084C55002408B5034804F0D4F8C6
:10156000012008F054FEF8E72853002408B5194A72
:101570000021194808F0ECFD184B1860184A0021AA
:10158000184808F0E5FD184B1860184A0021184863
:1015900008F0DEFD174B1860174A0021174808F0C5
:1015A000D7FD174B1860174A0021174808F0D0FDE7
:1015B000164B1860164A0021164808F0C9FD164B54
:1015C0001860164A0021164808F0C2FD154B186035
:1015D00008BD00BF98E40108D5140008D8520024C3
:1015E000E4E3010809150008B85200242CE40108BE
:1015F00059150008C0520024C0E301087116000804
:10160000B452002450E40108E9140008C452002434
:1016100074E40108F3140008C852002408E4010827
:10162000FD140008BC52002400B589B000230793C4
:101630000D4A52F82120019206220292039240F2B2
:10164000FF7204920422059206938DF81D300DEB73
:101650000201064801F03AFB10B909B05DF804FB3D
:1016600000F0F2F9F9E700BF0000002494500024D4
:1016700038B5144C204601F07FFE6421204601F06D
:1016800087FA00240EE00F4D21462846FFF7CCFFD5
:10169000284601F071FE6421284601F079FA012004
:1016A00008F0B5FD074D284601F00CFB064B43F84A
:1016B0002400284601F032FF0134022CE3DD00242F
:1016C000E1E700BF94500024CC5200242DE9F04300
:1016D0008FB0002409940A940B940C940D94614BE0
:1016E000D3F8E02042F00402C3F8E020D3F8E02071
:1016F00002F004020192019AD3F8E02042F02002A5
:10170000C3F8E020D3F8E02002F020020292029A0F
:10171000D3F8E02042F08002C3F8E020D3F8E020C4
:1017200002F080020392039AD3F8E02042F0010213
:10173000C3F8E020D3F8E02002F001020492049AFA
:10174000D3F8E02042F00202C3F8E020D3F8E02012
:1017500002F002020592059AD3F8E02042F010024E
:10176000C3F8E020D3F8E02002F010020692069AB7
:10177000D3F8E02042F00802C3F8E020D3F8E020DC
:1017800002F008020792079AD3F8E02042F04002E4
:10179000C3F8E020D3F8E03003F040030893089B3F
:1017A000DFF8D49022464EF22841484603F0BAFEB4
:1017B000DFF8C88022460121404603F0B3FE2A4EDE
:1017C00022464DF28251304603F0ACFE274F2246AE
:1017D0004FF47051384603F0A5FE4FF400530993BF
:1017E0000A940B9409A9224803F0A6FD4EF228435F
:1017F000099301250A950B940C9409A9484603F016
:101800009BFD09950A950B940C9409A9404603F099
:1018100093FD4DF2825309930A950B940C9409A9F8
:10182000304603F089FD4FF4705309930A950B94E9
:101830000C9409A9384603F07FFD802309934FF4E7
:1018400088170A970B9409A90A4803F075FD0995B2
:101850000A970B9409A9304603F06EFD0FB0BDE85E
:10186000F08300BF0044025800100258000C0258D8
:1018700000080258001802580014025800040258C8
:1018800008B51248124B0360124B4360002383607B
:101890000122C260036143618361C361036203F09B
:1018A00047FE50B90021094803F0A0FE40B90021CD
:1018B000064803F0C9FE30B908BD00F0C5F8F1E7ED
:1018C00000F0C2F8F3E700F0BFF8F5E7DC520024BF
:1018D00000580040B634900010B5B6B00446002160
:1018E00031913291339134913591BC2202A816F096
:1018F00039FD22681A4B9A4201D036B010BD082338
:1019000002930DEB030004F0E3FE30BB154CD4F85A
:10191000E03043F02003C4F8E030D4F8E03003F0C6
:1019200020030093009B032331931223329300235F
:10193000339334930423359331A90B4803F0FCFC13
:10194000D4F8E83043F48003C4F8E830D4F8E83041
:1019500003F480030193019BCFE700F075F8D5E70E
:1019600000580040004402580014025808B50848C6
:10197000084B03600223436040F6FF73C36083603B
:1019800003F08EFE00B908BD00F05EF8FBE700BF73
:10199000285300240048005830B585B00024009436
:1019A00001940294039402F015F901258DF800507A
:1019B0008DF80140144B01930E238DF808308DF8FB
:1019C00009408DF80A5003238DF80B308DF80C5028
:1019D0008DF80D408DF80E408DF80F40684602F0EE
:1019E0001BF98DF8015007238DF808308DF80A4057
:1019F0008DF80D508DF80F50684602F00DF9042057
:101A000002F0F8F805B030BD0000043008B5034B13
:101A100000221A60024806F09DFA08BD38530024DF
:101A200024540024014B1868704700BF3853002429
:101A300008B50268034B9A4200D008BD01F068F86F
:101A4000FBE700BF0048014072B6FEE700B59DB05D
:101A50004C22002109A816F085FC2022002101A8B3
:101A600016F080FC022003F007FF002300932B4BAD
:101A7000DA6A22F00102DA62DB6A03F00103009302
:101A8000274B9A6942F440429A619B6903F44043B0
:101A90000093009B224B9B6913F4005FFAD0214A0C
:101AA000936A23F0030393622B2309934FF480334B
:101AB0000A9301230C9340220D920E930F9302235D
:101AC0001293002213920A2114917D2115911693ED
:101AD00017931893082319931A921B9209A803F0DD
:101AE000FDFEB0B93F230193032302930023039328
:101AF000082304934023059306934FF480620792D2
:101B00000893022101A804F01DFB20B91DB05DF867
:101B100004FBFFF799FFFFF797FF00BF0004005891
:101B2000004802580044025800B5B1B09822002184
:101B30000AA816F017FC4FF4002301932023029308
:101B4000642303930223049305930693402307938E
:101B500000230893099301A804F0BAFD10B931B02D
:101B60005DF804FBFFF770FF08B5FFF715FF454B65
:101B70005B6913F4003F13D1BFF34F8FBFF36F8F37
:101B8000404B0022C3F85022BFF34F8FBFF36F8F3B
:101B90005A6942F400325A61BFF34F8FBFF36F8F1F
:101BA000384B5B6913F4803F27D1364B0022C3F8D2
:101BB0008420BFF34F8FD3F88040C4F34E3000E051
:101BC0001846C4F3C90243F6E07303EA401343EA3C
:101BD00082732C49C1F860321346013A002BF2D1CE
:101BE000431E0028ECD1BFF34F8F4B6943F4803381
:101BF0004B61BFF34F8FBFF36F8F00F05BFFFFF7B9
:101C000025FFFFF791FFFFF761FD00F017FCFFF7DD
:101C1000ADFEFFF767FBFFF795FB00F03DFB00F023
:101C200089F9FFF707FAFFF7B3F9FFF729FE00F08C
:101C30006FFA00F0E5FA00F065FB00F0CBFBFFF770
:101C4000E9FA00F093FB00F02DFC00F0A9FD0A2357
:101C500006220D490D4807F090F900210C4806F0C6
:101C60006DFC08210B4806F069FC40F2FF72002170
:101C7000094801F057FE08F033FAFFF777FC08F047
:101C800041FAFEE700ED00E0BCE401084C550024F9
:101C9000D8530024705400249450002400B583B01D
:101CA0000A4BD3F8F42042F00202C3F8F420D3F830
:101CB000F43003F002030193019B00220F216FF027
:101CC000010001F047FF03B05DF804FB0044025837
:101CD0000F2801D90120704710B58AB004460022B0
:101CE0000146762001F036FF762001F065FF174BA4
:101CF0001C60174BD3F8F02042F48022C3F8F02088
:101D0000D3F8F03003F480230093009B01A902A8CC
:101D100004F0A8FB04F094FB43000E48A0FB03234F
:101D20009B0C013B0C480D4A026040F2E732C26056
:101D3000436000230361836006F0A6FA10B101201E
:101D40000AB010BD044806F005F9F9E718000024B0
:101D50000044025883DE1B433C53002400480140EA
:101D6000FEE7FEE7FEE7FEE7FEE7704708B502483C
:101D700002F0ACFD08BD00BFC45E002408B5044AF3
:101D8000136801331360034806F030F908BD00BF43
:101D9000385300242454002408B5024806F026F9DC
:101DA00008BD00BF3C53002401207047024B16229F
:101DB0001A604FF0FF3070479481042408B54FF04B
:101DC000FF31FFF7F3FFFEE770B50C46164600251E
:101DD000B54207DAAFF30080214601F8010B013567
:101DE0000C46F5E7304670BD70B50C46164600252A
:101DF000B54205DA14F8010BAFF300800135F7E7BF
:101E0000304670BD4FF0FF3070474FF400534B60C9
:101E100000207047012070470020704710B403462F
:101E20000C4A0D490D48006850B10C480068034445
:101E3000521A934208D8094A13605DF8044B704760
:101E40000648074C0460F0E7064B0C221A604FF07E
:101E5000FF30F2E70000082400040000885300244B
:101E60006884042494810424274AD2F8883043F4F7
:101E70007003C2F88830254B1B6803F00F03062B54
:101E800006D8224A136823F00F0343F007031360B8
:101E90001F4B1A6842F001021A6000221A61196889
:101EA0001C4A0A401A60194B1B6813F0080F06D031
:101EB000164A136823F00F0343F007031360144B13
:101EC00000229A61DA611A62134999621349D96250
:101ED000134919635A639963DA6319645A64196878
:101EE00021F4802119601A660E4B1A680E4B1340BC
:101EF000B3F1005F02D20D4B01221A600C4B43F28A
:101F0000D2021A60704700BF00ED00E000200052CE
:101F1000004402587FEDF6EA000202020000FF01D1
:101F2000800201010010005C0000FFFF08810051E9
:101F30000040005208B50A480A4B03600023436082
:101F400083604FF6FF72C260036143618023836147
:101F500006F09AF900B908BDFFF776FDFBE700BF70
:101F6000245400240044014084B003681A4A934278
:101F700007D0B3F1804F12D0184A93421DD004B05D
:101F80007047174BD3F8F02042F00102C3F8F0205D
:101F9000D3F8F03003F001030193019BEFE7104BFE
:101FA000D3F8E82042F00102C3F8E820D3F8E83083
:101FB00003F001030293029BE1E7094BD3F8E82009
:101FC00042F04002C3F8E820D3F8E83003F04003C1
:101FD0000393039BD3E700BF0000014000180040BB
:101FE0000044025802680F4B9A4200D0704700B577
:101FF00083B00D4BD3F8F02042F40032C3F8F02048
:10200000D3F8F03003F400330193019B0022052143
:10201000752001F09FFD752001F0CEFD03B05DF845
:1020200004FB00BF004401400044025800B589B0E1
:1020300000230393049305930693079303682F4AA1
:10204000934208D0B3F1804F21D02D4A93423AD029
:1020500009B05DF804FB2B4BD3F8E02042F01002EE
:10206000C3F8E020D3F8E03003F010030093009BA6
:102070004FF42853039302230493002305930693FC
:102080000123079303A9204803F056F9E0E71D4B0D
:10209000D3F8E02042F00202C3F8E020D3F8E030A9
:1020A00003F002030193019B4FF440630393022367
:1020B00004930023059306930123079303A9134870
:1020C00003F03AF9C4E70F4BD3F8E02042F00202E4
:1020D000C3F8E020D3F8E03003F002030293029B40
:1020E0004FF4804303930223049300220592069247
:1020F000079303A9054803F01FF9A9E70000014071
:102100000018004000440258001002580004025811
:1021100010B596B000241394149415940C940D9457
:102120000E940F941094119412942C22214601A81D
:1021300016F018F93048314B036040F2CF7343601A
:10214000846040F2E733C36004614461846106F057
:10215000CBF800283DD1002313931493159313A9B2
:10216000254806F09FFA002836D160230C93002200
:102170000D920E920F921092119212920CA91E487B
:1021800006F02CF958BB04220CA91B4806F026F9CE
:1021900040BB08220CA9184806F020F928BB0023F0
:1021A000019302930393049305934FF40052069214
:1021B000079308934FF0007209920A930B9301A9B9
:1021C0000D4806F0BFFA98B90B48FFF72FFF16B07D
:1021D00010BDFFF739FCBEE7FFF736FCC5E7FFF798
:1021E00033FCD0E7FFF730FCD3E7FFF72DFCD6E751
:1021F000FFF72AFCE8E700BF8C53002400000140F1
:1022000000B58BB0002307930893099300930193C3
:10221000029303930493059306931E484FF0804264
:10222000026040F69F724260836040F2E732C26013
:102230000361836106F058F8F8B900230793099306
:1022400007A9144806F02EFAD0B9602300930023A2
:10225000019302930493082269460E4806F0BEF8E3
:1022600088B90C2269460B4806F0B8F870B90948DD
:10227000FFF7DCFE0BB05DF804FBFFF7E5FBDCE7E6
:10228000FFF7E2FBE1E7FFF7DFFBEAE7FFF7DCFB45
:10229000EDE700BF7054002400B589B0002301931E
:1022A0000293039304930593069307931348144AE8
:1022B000026040F2CF724260836040F2E732C26057
:1022C00003618023836106F00FF880B960230193D6
:1022D000002202920392059201A9084806F07EF8B6
:1022E00040B90648FFF7A2FE09B05DF804FBFFF70E
:1022F000ABFBEBE7FFF7A8FBF3E700BFD8530024E5
:102300000018004008B51748174B03604FF4E1333D
:10231000436000238360C36003610C2242618361D8
:10232000C36103624362836206F0D2FE70B900218A
:102330000C4806F046FF60B900210A4806F066FF27
:1023400050B9084806F01EFF48B908BDFFF77CFBEE
:10235000EDE7FFF779FBEFE7FFF776FBF1E7FFF734
:1023600073FBF2E7DC550024004C004008B5174829
:10237000174B03604FF4E133436000238360C36075
:1023800003610C2242618361C36103624362836221
:1023900006F09EFE70B900210C4806F012FF60B9ED
:1023A00000210A4806F032FF50B9084806F0EAFE5C
:1023B00048B908BDFFF748FBEDE7FFF745FBEFE73E
:1023C000FFF742FBF1E7FFF73FFBF2E76C56002413
:1023D0000050004008B51748174B03604FF4E13335
:1023E000436000238360C36003610C224261836108
:1023F000C36103624362836206F06AFE70B9002122
:102400000C4806F0DEFE60B900210A4806F0FEFE28
:1024100050B9084806F0B6FE48B908BDFFF714FBEE
:10242000EDE7FFF711FBEFE7FFF70EFBF1E7FFF733
:102430000BFBF2E7BC5400240044004008B51748E9
:10244000174B03604FF4E133436000238360C360A4
:1024500003610C2242618361C36103624362836250
:1024600006F036FE70B900210C4806F0AAFE60B9ED
:1024700000210A4806F0CAFE50B9084806F082FE5C
:1024800048B908BDFFF7E0FAEDE7FFF7DDFAEFE73F
:10249000FFF7DAFAF1E7FFF7D7FAF2E74C55002435
:1024A0000048004008B51748174B03604FF4E1336C
:1024B000436000238360C36003610C224261836137
:1024C000C36103624362836206F002FE70B90021B9
:1024D0000C4806F076FE60B900210A4806F096FE28
:1024E00050B9084806F04EFE48B908BDFFF7ACFAEF
:1024F000EDE7FFF7A9FAEFE7FFF7A6FAF1E7FFF735
:10250000A3FAF2E7FC5600240014014070B5C0B0F5
:10251000044600213B913C913D913E913F91BC226C
:102520000CA815F01FFF2368944A934210D0944AD8
:10253000934240D0934A934200F08780924A93425C
:1025400000F0B580914A934200F0E48040B070BD45
:1025500002230C93002329930CA804F0B9F838BB8C
:102560008B4BD3F8E82042F40022C3F8E820D3F8DC
:10257000E82002F400220192019AD3F8E02042F010
:102580000402C3F8E020D3F8E03003F00403029320
:10259000029B4FF440633B9302233C9300233D9303
:1025A0003E9308233F933BA97A4802F0C5FECDE74E
:1025B000FFF74AFAD4E702230C93002329930CA8CF
:1025C00004F086F800283DD1714BD3F8E82042F49E
:1025D0008012C3F8E820D3F8E82002F480120392B6
:1025E000039AD3F8E02042F00402C3F8E020D3F8C5
:1025F000E02002F004020492049AD3F8E02042F0B2
:102600000802C3F8E020D3F8E03003F00803059394
:10261000059B4FF480533B9302263C9600243D9447
:102620003E9408253F953BA95A4802F085FE0423B5
:102630003B933C963D943E943F953BA9564802F00F
:102640007BFE83E7FFF700FABEE702230C9300232B
:1026500029930CA804F03CF830BB4D4BD3F8E8208C
:1026600042F40032C3F8E820D3F8E82002F4003244
:102670000692069AD3F8E02042F00802C3F8E02060
:10268000D3F8E03003F008030793079B60233B93E4
:1026900002233C9300233D933E9307233F933BA9A2
:1026A0003D4802F049FE51E7FFF7CEF9D5E7022396
:1026B0000C93002329930CA804F00AF838BB344B80
:1026C000D3F8E82042F48022C3F8E820D3F8E820C9
:1026D00002F480220892089AD3F8E02042F008021F
:1026E000C3F8E020D3F8E03003F008030993099B16
:1026F0004FF440733B9302233C9300233D933E935E
:1027000007233F933BA9244802F016FE1EE7FFF77C
:102710009BF9D4E701230C9300232A930CA803F020
:10272000D7FF38BB1A4BD3F8F02042F02002C3F891
:10273000F020D3F8F02002F020020A920A9AD3F88F
:10274000E02042F04002C3F8E020D3F8E03003F08C
:1027500040030B930B9B4FF484433B9302233C9326
:1027600000233D933E9307233F933BA90B4802F080
:10277000E3FDEBE6FFF768F9D4E700BF004C00404B
:102780000050004000440040004800400014014058
:102790000044025800080258000C02580018025861
:1027A00008B50C480C4B0360092343600222C26049
:1027B0000023036182610122C2610362436282627B
:1027C000C262036302F0A6FF00B908BDFFF73CF93F
:1027D000FBE700BF8C5700240000084070B5B6B07E
:1027E0000446002131913291339134913591BC22CC
:1027F00002A815F0B7FD2268234B9A4201D036B0EB
:1028000070BD4FF4802302934FF44013239302A82A
:1028100003F05EFF002833D103F058F81B4CD4F8C6
:10282000E03043F00103C4F8E030D4F8E03003F0C6
:1028300001030093009B4FF4C8533193022332935A
:102840000025339534950A233593114E31A930462E
:1028500002F072FD4FF4007331933295339531A934
:10286000304602F069FDD4F8D83043F00063C4F874
:10287000D830D4F8D83003F000630193019BBEE751
:10288000FFF7E2F8C8E700BF000008400044025824
:1028900000000258DFF834D0FFF7E6FA0C480D4983
:1028A0000D4A002302E0D458C4500433C4188C42AB
:1028B000F9D30A4A0A4C002301E013600432A24211
:1028C000FBD315F0C7FDFFF74FF970470000082450
:1028D00000000024F4060024741802087850002434
:1028E00064840424FEE788B1CA6892B18A689AB108
:1028F0000A69A2B10A6882604A68C260CA68426115
:102900008A6802610A698261002070474FF0FF30D7
:1029100070474FF0FF3070474FF0FF3070474FF077
:10292000FF30704770B582B00546002301934468BC
:10293000002C49D1836803B1984720232B600026DF
:1029400002E06FF0040601341F2C0DD86B6901AA58
:102950001221204698470028F3DB019B03F01F0358
:10296000A342F0D12C60002628681F2825D836BB4A
:102970002B694FF4004200219847002833DB6B6934
:1029800001AA00212868984700282FDBAB699847E7
:102990000446019B13F4004F11D0AB699847001B0C
:1029A000B0F5FA7F0DD86B6901AA00212868984715
:1029B0000028EEDA6FF0040601E06FF002067EB93F
:1029C00003E06FF00106FAE70026AB69984704467A
:1029D000AB699847031BB3F5FA6FF9D901236B6014
:1029E000304602B070BD6FF00306F9E76FF00406E1
:1029F000F6E710B582B0044600230193436901AAAB
:102A0000012100689847002839DB636901AA012188
:102A100020689847002835DB019B13F0040F34D061
:102A2000636901AA002120689847002830DB019BD8
:102A300013F4805F0CD103F40452B2F5045F2AD082
:102A400013F4005F29D113F4807F28D004201DE007
:102A5000636901AA1F2120689847002821DB019B98
:102A600013F4805F20D003F01C03182B1ED0082B1A
:102A70001ED0142B01D0052008E0042006E06FF0E2
:102A8000040003E06FF0040000E0012002B010BD7C
:102A90006FF00400FAE70220F8E70320F6E70520CC
:102AA000F4E76FF00400F1E70620EFE70220EDE71E
:102AB0000320EBE710B5032001F03AF803F048FAE1
:102AC0000F498B69C3F303230E4AD35C03F01F0342
:102AD000D8408B6903F00F03D35C03F01F0320FA87
:102AE00003F3094A1360094B18600F20FFF7F0F851
:102AF00010B10124204610BD0446FFF7CFF8F9E7D6
:102B000000440258C4E40108100000240C00002412
:102B1000034B1B78034A11680B441360704700BFD6
:102B200014000024985C0024014B1868704700BF13
:102B3000985C002438B50446FFF7F6FF0546B4F16B
:102B4000FF3F02D0044B1B781C44FFF7EDFF401BF6
:102B5000A042FAD338BD00BF14000024014B18680E
:102B6000000C70470010005C034A536823F46003B4
:102B700003435360704700BF00040058034A536882
:102B800023EA00030B435360704700BF0004005862
:102B90002DE9F04104460E4603684749474A9342EF
:102BA00018BF8B4217D101F540718F6807F01F07DE
:102BB0002569082D16D0052F14BF00220122002FF1
:102BC00008BF01224AB9092F07D08B6813F4404F80
:102BD0002DD1042506E03A49E7E7DB6813F0010F41
:102BE0001FD10425FFF7A0FF804623681A682A42F8
:102BF00023D1B6F1FF3FF8D0FFF796FFA0EB080016
:102C0000B04201D8002EF0D123681B682B42ECD1D2
:102C1000636D43F004036365002384F850300320A0
:102C200045E0636D43F02003636501203FE0636D81
:102C300043F020036365012039E0626D42F40072C5
:102C40006265DA6812F4406F11D1627D7AB91A6850
:102C500012F0080F0BD0626D22F480726265626D13
:102C600012F4805F03D1626D42F001026265134A83
:102C700093420CD01A4693420CD0052F14BF00216A
:102C800001213FB131B9092F04D0D26803E0A2F588
:102C90008072F0E7DA68082D06D012F4804F08D170
:102CA0000C221A60002002E008221A600020BDE811
:102CB000F0810020FBE700BF00200240002102401D
:102CC000006302580368186C70470000F0B482B0CB
:102CD0000022019290F85020012A00F04E82034613
:102CE000012280F850200068826812F0040F0AD098
:102CF0005A6D42F020025A650120002283F85020CC
:102D000002B0F0BC70470A68C2F31304002C4DD126
:102D1000C2F3846201249440C2692243C2611E68E6
:102D20004D680C6830362A0A920002F00C02B05846
:102D300005F01F051F27AF4020EA0700C4F3846495
:102D4000AC402043B0501C68A26812F0040200D0CE
:102D50000122A06810F0080000D00120024363D1D6
:102D60000F688D681434780E800000F00400265837
:102D7000C7F304574FF0070C0CFA07FC26EA0C06C1
:102D8000BD4035432550B748006800F07040B0F1B1
:102D9000805F17D01C68E06810F0100F66D148699A
:102DA000E468C4F382046400A04012E092FAA2F244
:102DB00032B1B2FA82F202F01F0201249440ABE772
:102DC0002022F8E748691C68E468C4F382046400C0
:102DD000A0400D69042D57D01F680E68603757F862
:102DE000254004F0004406F0F8463043204347F8FD
:102DF000250018680E694C7E012C3FD014466030C7
:102E000050F8265025F000452C4340F826401D6818
:102E100008690C7E012C34D02C6924F4F04400F0B5
:102E20001F00824022432A611868826812F0010F55
:102E300040F09F810A68CD68D0F8C040C2F3130605
:102E400024EA060405F01806874DF5402A40C2F32F
:102E500013022243C0F8C020C868844A904247D079
:102E60000A68002AC0F20481002046E74869E46845
:102E7000A40804F004046400A040AAE74FF0004452
:102E8000BDE74FF40062C7E71868026E02F0F8422F
:102E90000C68B2EB846F1CD01868426E02F0F842E6
:102EA0000C68B2EB846F19D01868826E02F0F84299
:102EB0000C68B2EB846F16D01868C26E02F0F8424C
:102EC0000C68B2EB846FAFD1C26E22F00042C266D2
:102ED000AAE7026E22F000420266DDE7426E22F0AF
:102EE00000424266E0E7826E22F000428266E3E73B
:102EF0001D680A68C2F31306002E35D1900E01300A
:102F000000F01F0009288CBF00200120002862D09B
:102F1000002E38D1940E0134A40604F0F844002E9B
:102F20003DD1900E013000F01F070120B84004434E
:102F3000002E42D1920E013202F01F0202EB420239
:102F4000120522438C681435500E800000F00400F6
:102F50002E58C2F304520727974026EA070604FAC0
:102F600002F232432A507BE792FAA2F048B1B0FA5B
:102F700080F0013000F01F0009288CBF00200120E4
:102F8000C4E72020F5E792FAA2F434B1B4FA84F44D
:102F90000134A40604F0F844C1E72024F8E792FACB
:102FA000A2F040B1B0FA80F0013000F01F0001271C
:102FB00007FA00F0BBE72020F6E792FAA2F242B14E
:102FC000B2FA82F2013202F01F0202EB4202120553
:102FD000B7E72022F6E7CEB9940E0134A40604F038
:102FE000F844FEB9900E013000F01F070120B840F0
:102FF00004432EBB900E013000F01F0000EB400296
:103000001E3A120542F0007222439BE792FAA2F4A4
:1030100034B1B4FA84F40134A40604F0F844E0E7CF
:103020002024F8E792FAA2F040B1B0FA80F0013023
:1030300000F01F00012707FA00F0D9E72020F6E78B
:1030400092FAA2F25AB1B2FA82F0013000F01F00F7
:1030500000EB40021E3A120542F00072D4E7202035
:10306000F3E700BF0010005CFFFF0F000000FF4708
:1030700019684348434CA14218BF81420CBF01204C
:10308000002021D1404EB56805F0E077F0B13C4812
:10309000806810F0010000D001203A4CA46814F0C0
:1030A000010400D0012420430CBF0120002000288F
:1030B00059D03648824212D03548824231D0354804
:1030C00082423FD0002018E6334EDCE73348806868
:1030D00010F0010000D0012080F00100E7E715F4B6
:1030E000000FE9D12D4A914201D0002005E647F4B6
:1030F0000002B16821F0E0710A43B260284A126808
:1031000092092849A1FB0212920901325200019250
:1031100002E0019A013A0192019A002AF9D10020B5
:10312000EBE515F0807FCAD11C4A914201D0002006
:10313000E3E547F08072B16821F0E0710A43B260C4
:103140000020DAE515F4800F15D1144A914201D020
:103150000020D2E547F48002B16821F0E0710A4313
:10316000B2600020C9E55A6D42F020025A65012084
:10317000C3E50020C1E50020BFE50220C0E500BF97
:10318000002002400021024000230240000084CBC6
:10319000000052C70000B8CF006302580060025818
:1031A0000C000024632D3E0570B50446006883685A
:1031B00013F0040300D00123826812F0080200D04B
:1031C0000122134367D0C36813F0007F04D0A28AA2
:1031D00040F201139A424AD002290ED023689A681D
:1031E00012F0040F09D09A6812F0020F05D1986806
:1031F0002A4A024042F010029A6001290ED0236848
:103200009A6812F0080F09D09A6812F0020F05D1DF
:103210009868224A024042F020029A60022934D083
:10322000032934D10C25FFF77FFC064623689B68F1
:103230002B422ED0FFF778FC831B052BF6D9236891
:103240009B682B42F2D0636D43F010036365A36D5E
:1032500043F00103A36501201EE0636D43F01003FA
:103260006365A36D43F00103A365012014E000230F
:10327000026812F0400F04D1094A9342EDD801339D
:10328000F6E7402303600121A8E70825CBE70425E2
:10329000C9E7002000E0002070BD00BFC0FFFF7F35
:1032A000FFDB0C0038B503689A6812F0010F56D1A5
:1032B000044699682B4A114209D0436D43F010032C
:1032C0004365836D43F001038365012048E09968FD
:1032D000254A0A4042F001029A60FFF725FC0546A4
:1032E00023682249224A934218BF8B420DD102F52E
:1032F0000072926802F01F021D498B4207D01946E6
:10330000994207D032B100202AE01A4AF1E7A1F52C
:103310008071F5E723681A6812F0010F1DD19A68D1
:1033200012F0010F05D199680F4A0A4042F00102DC
:103330009A60FFF7F9FB401B0228EBD923681B6852
:1033400013F0010FE6D1636D43F010036365A36DC5
:1033500043F00103A365012002E0002000E000200B
:1033600038BD00BF3F000080C0FFFF7F002002404B
:10337000002102400063025838B5044603683E4904
:103380003E4A934218BF8B4252D102F500729568B3
:1033900005F01F059B6813F0040F69D194F85030B5
:1033A000012B67D0012384F850302046FFF77AFFC5
:1033B000002859D1626DA0F60273134043F4807364
:1033C000636523682D4A934234D01A46934200D055
:1033D0001DB9626D22F480126265626D12F4805F25
:1033E0002BD0A26D22F00602A2651C221A600023D7
:1033F00084F850302368214A934221D01A469342E0
:1034000021D0052D14BF00210121E5B1D9B9092D25
:1034100019D0636D43F480136365D36813F0007FA4
:1034200027D0636D23F4405343F48053636520E059
:10343000134AACE7A2F58072C8E70022A265D4E780
:10344000A2F58072DBE7DA6812F0007F05D0626DCA
:1034500022F4405242F4805262659968094A0A4057
:1034600042F004029A6004E0002384F8503000E047
:10347000022038BD0220FCE700200240002102406B
:1034800000630258C0FFFF7F38B5044602689368A6
:1034900013F0020300D00123916811F0010F37D01F
:1034A000002B37D1936803F00D03012B09D0636D16
:1034B00043F010036365A36D43F00103A36501208E
:1034C00027E09168144B0B4043F00203936023689C
:1034D00003221A60FFF728FB054623689B6813F058
:1034E000010F13D0FFF720FB401B0228F5D92368FA
:1034F0009B6813F0010FF0D0636D43F01003636518
:10350000A36D43F00103A365012002E0002000E069
:10351000002038BD0020FCE7C0FFFF7F90F850304E
:10352000012B18D010B50446012380F85030032138
:10353000FFF73AFE18B1002384F8503010BD204642
:10354000FFF7A2FF0028F6D1626D044B134043F051
:1035500001036365EFE70220704700BFFEEEFFFF47
:1035600038B5044603684F494F4A934218BF8B420F
:1035700023D14E4B9B6813F4403F14BF012300231B
:103580004BB302F029FF05466368B3F5003F1CD03A
:10359000B3F5403F1DD0B3F5803F16D0FFF7DEFAFC
:1035A00041F20303984257D8414B9D424ED92268BD
:1035B000936843F48073936038BD3E4B9B6813F46B
:1035C000403F14BF01230023DAE71B0CB5FBF3F5E2
:1035D000E4E78508E2E74FF4002004F067F80546C9
:1035E0006368B3F5101F2DD022D8B3F5E01F27D0A4
:1035F00004D9B3F5001FD1D14509CFE7B3F5801F3A
:103600000DD006D9B3F5A01F09D0B3F5C01F06D061
:10361000C4E7B3F5002F02D0B3F5402F04D19B0CC3
:103620005B00B5FBF3F5B9E7B3F5802FF7D0B5E74D
:10363000B3F5201F08D0B3F5301FAFD1050AADE7B1
:103640000509ABE78509A9E7C509A7E722689368DB
:1036500023F480739360AFE7174B9D4205D822682F
:10366000936823F440739360A6E7144B9D4207D8F8
:103670002268936823F4407343F4807393609BE75C
:103680000F4B9D4207D82268936823F4407343F49C
:103690000073936090E72268936843F440739360EB
:1036A0008AE700BF002002400021024000230240C0
:1036B000002D31010063025821BCBE0041787D011C
:1036C00081F0FA0230B583B000230193002800F0A6
:1036D0000F810446436DEBB123689A6812F0005FD6
:1036E00003D09968834A0A409A6023689A6812F066
:1036F000805F1CD19968804A0A4042F080529A60EB
:103700007E4B1B689B097E4AA2FB03239B09013366
:10371000019309E0FDF7F6FC0023A36584F850301F
:10372000DAE7019B013B0193019B002BF9D1226851
:10373000936813F0805F09D1636D43F010036365F4
:10374000A36D43F00103A365012500E00025936804
:1037500013F0040300D00123616D11F0100F40F04D
:10376000BF80002B40F0BC80636D23F4817343F075
:1037700002036365936813F0010F21D16149624B25
:103780009A4218BF8A420CBF0122002272D18B6874
:1037900013F0010300D001235B49896811F0010196
:1037A00000D001210B430CBF0123002343B1002AA9
:1037B00069D0564963688A6822F47C1213438B608F
:1037C000FFF7CCF941F20303984202D9A368102B0A
:1037D0005BD0627D236B43EA4233A2681343227FAE
:1037E00043EA0243227F012A5AD0626A22B102F4DC
:1037F0007872A16A0A4313432168C868444A0240A8
:103800001343CB6021688B6813F0040300D00123BD
:103810008A6812F0080200D0012213431BD1227DD6
:10382000E36A43EA8232C8683A4B03401343CB60F1
:1038300094F83830012B38D02268136923F0010343
:1038400013612268136923F07043616B0B431361AA
:103850002046FFF785FEE368012B38D02268136B02
:1038600023F00F031363636D23F0030343F001039D
:1038700063653AE0284B9B6813F0010300D00123F5
:1038800083F0010392E7254994E7617D226B42EAC8
:1038900041321343227F43EA024343F00C03A1E782
:1038A000226A013A43EA42439FE7206802691C4BBF
:1038B0001340E26B511E226C42EA0142616C0A43E2
:1038C000A16C0A43134343F001030361B9E7216884
:1038D0000B6B23F00F03A269013A13430B63C2E79A
:1038E000636D43F0100363650125284603B030BDC6
:1038F0000125FAE7C0FFFF5FC0FFFF6F0C00002447
:10390000632D3E05002002400021024000230240BA
:1039100003C0F0FFFCBFFFFF0060025800630258C5
:103920001EF800FC70B582B00023019390F850306F
:10393000012B42D004460D461646012380F8503034
:10394000FFF7A2FD00282FD1626D1D4B134043F0FD
:1039500002036365226891681A4B0B4005F48035B9
:1039600006F0804635432B4343F0004393602368C1
:103970009B68002B06DB636D23F0030343F0010318
:10398000636515E0019B01330193019A0E4B9A4246
:10399000EDD3636D23F0120343F01003636500233E
:1039A00084F85030012006E0636D43F01003636536
:1039B000002384F8503002B070BD0220FBE700BF46
:1039C000FDEEFFFFC0FFFE3F00F8C32590F850203A
:1039D000012A00F0A18030B49AB00346012280F899
:1039E000502000221692179200684C4A904242D012
:1039F00000220192019A002A41D0926812F004023A
:103A000000D00122846814F0040F76D1002A74D10A
:103A1000424C434A904218BFA04239D102F500728D
:103A2000086800283FD0906820F440404C6820434C
:103A300090601868394D3A4CA04218BFA84229D16D
:103A4000A86810F0010000D00120354CA46814F0E3
:103A5000010400D0012420430CBF012000200028D5
:103A600056D094682F4820400C6889682143084349
:103A70009060002046E002F580720192BAE75A6D2C
:103A800042F020025A65002283F8502001203CE0D9
:103A9000254AC5E72548806810F0010000D00120C4
:103AA00080F00100DBE7916821F4404191601968E2
:103AB0001A4C1B48814218BFA14215D1A16811F0D0
:103AC000010100D001211648806810F0010000D0EB
:103AD000012001430CBF01210021D9B19068114997
:103AE0000140916000200DE01049896811F001014A
:103AF00000D0012181F00101EFE75A6D42F0200270
:103B00005A650120002283F850201AB030BC70475B
:103B10000020F7E70020F5E7022070470020024070
:103B200000210240E0F0FFFF0063025800600258ED
:103B30000649CB6823F4E0631B041B0C000200F46D
:103B4000E0600343024A1A43CA60704700ED00E098
:103B50000000FA0530B4154BDB68C3F30223C3F150
:103B60000704042C28BF04241D1D062D14D9033B73
:103B70004FF0FF3505FA04F421EA0401994005FAF3
:103B800003F322EA03031943002807DB0901C9B242
:103B9000074B195430BC70470023E9E700F00F00D1
:103BA0000901C9B2034B1954F4E700BF00ED00E06E
:103BB00000E400E014ED00E0002807DB00F01F0245
:103BC000400901239340024A42F82030704700BF69
:103BD00000E100E0BFF35F8F044A536A23F48033AF
:103BE0005362034B00225A60704700BF00ED00E0B3
:103BF00090ED00E040F00100054B5860054A536A23
:103C000043F480335362BFF34F8FBFF36F8F70471E
:103C100090ED00E000ED00E04278134B9A600378ED
:103C2000EBB14368104AD360017BC37A1B0643EAB9
:103C30000173817A43EAC143417B43EA8143817B3B
:103C400043EA4143C17B43EA0143417A43EA01230A
:103C5000017A43EA410301780B4313617047024B39
:103C60000022DA601A61704790ED00E070B110B583
:103C70000446037933B1022323710020206101231C
:103C8000237110BD4371FDF7F5FAF4E70120704789
:103C9000F8B54379012B00F0A48004460D46164682
:103CA00001234371022303710B68042B16D02B6987
:103CB000012B5DD02068C16B06F0100207239340F2
:103CC00021EA0301EB68012B5FD0022B00F0858015
:103CD000AB68002B40F08380012757E0FEF724FFFC
:103CE00007467EB123685B6B002B3ADAFEF71CFFB8
:103CF000C01B0128F6D9236943F008032361032080
:103D0000207169E023685A6B374B13405BB1FEF7B3
:103D10000BFFC01B0128F5D9236943F00803236179
:103D20000320207158E00120FEF704FF2368AA69F0
:103D30001A642068836C06F0100240F2FF31914053
:103D400023EA0103E96991400B4383642068C36C53
:103D5000FF21914023EA0103296A91400B43C36488
:103D6000A5E70120FEF7E6FE2368AA695A64E0E7AA
:103D700021688A6B06F010001F23834022EA0302A9
:103D80006B69834013438B6394E700272B68AE680D
:103D900033433B4393400B43C363206803684FF4B2
:103DA0008041914023EA010303602068016840F6E6
:103DB000FE73934021EA03016B6893400B43036059
:103DC00020680368C02101FA02F223EA02030360BB
:103DD0000123237100206071F8BD0127D6E7002779
:103DE000D4E70220F8E700BF008000202DE9F04171
:103DF00082B0074600230193D0F8688008F11203CF
:103E000050F82340C56E012611E001A806F002F922
:103E1000019B2BB32361236011E04FF00143E3606A
:103E200017E003F1120257F82240013D9846002D99
:103E300014BF33460023ABB12369002BE5D0002E1D
:103E4000F5D0BFF35F8FBB6D002BE6D04FF0414341
:103E5000E36008F10103032BE3D9A8F10303E0E7D2
:103E60000026E4E7FB6EAB4207D03A6841F2281324
:103E70000021D150C7F86880FD6602B0BDE8F0812E
:103E800030B48B680A6813430A7943EAC2630A7B39
:103E900043EAC2534A7B43EA82538A7B43EA425352
:103EA000CA7B43EA02530A7C002A40F0B0804FF4F8
:103EB000002213434A7C002A40F0AB804FF40032CA
:103EC00013438A7C43EA02434A6913438A691343D2
:103ED0000A7F43EA02334A7F43EAC2238A7F002AE9
:103EE00040F099804FF480621343CA7F43EA422333
:103EF00091F82020002A40F090804FF48072134304
:103F00004A6A134391F8282043EA0213CA6A13430A
:103F10000468226822F07F4222F47B0222F4FE42EF
:103F200022F07C0213432360CA6B91F838301B06E1
:103F300043EA426391F8302043EA824391F831200A
:103F400043EA424391F83220002A68D14FF480328C
:103F500013434A6B13430468626822F07C5222F4D4
:103F6000EF2222F4FF6222F007021343636091F80C
:103F700040204B6C43EA02220468E5682B4B2B403F
:103F80001343E36091F854200B6D43EA420391F828
:103F90004C20002A45D1802213438A6C43EA024315
:103FA0000468226F22F0F2021204120C13432367FA
:103FB00091F8563091F8552043EA42020468D4F84B
:103FC000903023F003031343C4F890300268D2F812
:103FD000003D23F072038C6D2343C2F8003DCB6D8E
:103FE00091F86020FAB94022134391F8612043EA26
:103FF000021391F8622043EAC2030168D1F8302D20
:1040000022F07B021343C1F8303D30BC70470022E0
:104010004FE7002254E7002266E700226FE7002204
:1040200096E70022B8E70022DEE700BFF0FEFFFFC0
:1040300070B4026802F5805214681E4B23400C686D
:10404000234313600A798B6843EA02330A7B43EA0D
:10405000C232056841F204042E59174B3340134312
:104060002B514C7B0B6A43EA0444026802F58852E8
:104070001568124B2B40234313600B690A7D43EAFA
:1040800002134A7F43EA0232056841F204142E59B2
:104090000B4B334013432B510A7F8B6943EAC272A7
:1040A000006841F208114458064B23401343435023
:1040B00070BC7047FD87FFFFFE2FFFFF00C0FEFFB3
:1040C000EFEFC0FFFFFFC07F70B5A2B0064601252D
:1040D0008DF83350002412948DF841408DF8434000
:1040E0008DF828508DF856508DF832508DF84C4090
:1040F0008DF884504FF400530F938DF85C40189462
:104100008DF885408DF886404FF4C36316938DF883
:1041100030400B948DF835508DF836408DF8404086
:104120001D941B9414948DF864408DF87A408DF89A
:104130004250202320938DF844508DF855404FF085
:10414000405309934FF480430E938DF8314002237E
:104150001F938DF878408DF879408DF854408DF894
:1041600034501A948DF8705009A9FFF789FE8DF824
:104170000450029500948DF81C408DF80D408DF888
:104180000C404FF4001306938DF8144004938DF8FF
:104190001D404FF40673089369463046FFF748FF09
:1041A00022B070BD30B400220EE0C46802EB4203BE
:1041B000DD0004EBC3030021615159609960D960AF
:1041C000911D40F821300132032AEED90023836289
:1041D000026841F22C130321D150C168026841F2F8
:1041E0001413D150C268036803F589531A6030BCB8
:1041F000704730B4002111E0046901EB4103DD0098
:1042000004EBC303002262515A609A60DA601A61BB
:104210005A6101F1120240F8223001310329EBD931
:104220000023C36503668366C3668365026841F243
:1042300030130321D1500169026841F21C13D1509F
:1042400003694833016841F228128B5030BC704733
:104250002DE9F0419646866A00EB86039B69D1F80A
:1042600008C0DA68002AC0F2A281321D00EB820287
:10427000D269002A40F09D810A6812F0040F2CD008
:10428000DC68814A22404C6A2243DA60DA6842F4F0
:104290008032DA600468226E42F4801222660A6874
:1042A00012F0080F19D09A6892B2CC6A42EA04421E
:1042B0009A60DA6842F40032DA60DA6822F4402266
:1042C0000C6B2243DA600468626E42F4801262660C
:1042D0000468226D42F0806222650A6812F0100FB5
:1042E00009D09C68694A22408C6922439A60DA6846
:1042F00042F08062DA600D6815F0140520D0DA68AB
:1043000042F08042DA60BFF35F8FDA6842F0004229
:10431000DA60771C032F00D9F71E00EB87039B6937
:10432000DA68002A01DB01250BE000EB86008269D8
:10433000BFF35F8FD36823F00043D360022039E1DD
:1043400037460135DCF800201A609A684F4C14405B
:10435000DCF8042022439A60DCF80820002A49D0C7
:1043600014685C609C68DFF828C104EA0C0C54688F
:104370004CEA04449C600C6814F0100F42D0DC68D6
:1043800024F4F00C0C6A4CEAC444DC60DC68DFF80E
:1043900004C104EA0C0CCC694CEA0404DC60DC685F
:1043A00044F48024DC600C6814F0040F06D09C6890
:1043B00024F4404C8C6A4CEA04049C60DC6844F0B1
:1043C0000054DC60DC6824F08044DC60BFF35F8F65
:1043D000DC6844F00044DC600C6814F0020F06D086
:1043E000DC6824F0607CCC684CEA0404DC604FF0AC
:1043F000000C74E000225A609C68254A22409A60B2
:104400006246B8E7DC68DFF890C004EA0C0C4C6840
:104410004CEA0404DC600C6814F0010F06D0DC6880
:1044200024F4403C4C694CEA0404DC600C6814F051
:10443000200FB8D0DC6824F0406C0C694CEA04040E
:10444000DC60B0E700EB86039969002204E000EB32
:104450008301896901321E46AA420AD2BFF35F8FE7
:10446000CB6823F00043CB60731C032BEFD9F31E02
:10447000EDE702209EE000225A609F68044A3A401D
:104480009A60424662E000BF0000FFFF00C0FFFFED
:10449000FFFF00C00000FCFF0080FFFFDF68DFF8C7
:1044A0001C8107EA08084F6848EA0707DF600F68C1
:1044B00017F0010F06D0DF6827F440384F6948EA4B
:1044C0000707DF600CF1010CBFF35F8FDF6847F077
:1044D0000047DF60DF6827F08047DF602746946889
:1044E000002C45D0DC6824F08054DC607C1C032C5C
:1044F00000D9FC1E00EB84039B69DF6827F000579E
:10450000DF60DF68002F9DDB271D00EB8707FF6959
:10451000002F97D10135D2F80880D8F800201A6012
:104520009A68254F1740D8F804203A439A60D8F883
:104530000820002A9FD017685F609F68DFF880809E
:1045400007EA0808576848EA07479F600F6817F0AE
:10455000100FA3D0DF68DFF86C8007EA0808CF6986
:1045600048EA0707DF60DF6847F48027DF60A9E7D4
:10457000BEF1000F16D09A6842F000429A60DA68E5
:1045800042F08052DA60C26B3B1D00EB8303DA61BC
:10459000876272B6036C9C440CF10103036462B63B
:1045A000002007E09A6822F000429A60E7E70220C4
:1045B00000E00220BDE8F08100C0FFFF0080FFFFA7
:1045C000FFFF00C00000FCFF38B5D0F88430102B8E
:1045D00001D0012038BD04462325C0F884500123B2
:1045E00083650268D2F80C17204B0B43C2F80C37D6
:1045F0000268D2F810171E4B0B43C2F81037042381
:10460000C366FFF7F3FB2268136843F002031360ED
:104610002268136843F0010313602268D2F8003D5A
:1046200043F00103C2F8003D216841F204128B58A7
:1046300043F001038B50216841F208128B5843F07C
:1046400001038B50236803F58B531A6842F481727F
:104650001A60216841F2341288584DF2C1030343B5
:104660008B50C4F884500020B4E700BF6000020CF7
:1046700000C0200CD0F88430232B01D001207047DB
:1046800010B4C0F88430016841F234128C581C4BCD
:1046900023408B50016841F204128B5823F0010330
:1046A0008B50016841F208128B5823F001038B50A4
:1046B0000268136823F0010313600268D2F8003D1A
:1046C00043F00103C2F8003D0268136823F00203BF
:1046D0001360002308E003F1120250F82210CA68A8
:1046E00022F08042CA600133032BF4D90023836592
:1046F0001022C0F8842018465DF8044B704700BFB4
:104700003E2FFFFF10B5044629B1D4F88430232B87
:1047100009D0012010BDD0F8883043F00103C0F863
:1047200088300120F6E74B6BE36301222046FFF758
:104730008FFD38B1D4F8883043F00203C4F88830D4
:104740000120E7E7BFF34F8FA36A0133A362032B76
:1047500001D9043BA362A26A2368063254F82220DE
:1047600003F589531A600020D4E72DE9F84F044679
:1047700089B18B46D0F88430232B72D1D0F85C807D
:1047800008F1120350F82350C36EC3F1040A4FF02E
:1047900000094F4638E0D0F8883043F00103C0F8F4
:1047A000883001205EE0EB6813F0005F02D0002348
:1047B000236663666669EB6813F0805F08D0EE6875
:1047C000C6F30E06636EF61AEB6823674FF0010915
:1047D000B3B22A6904F1800104F17C0005F040FCC9
:1047E000236E01332366636E1E44666600232B61CD
:1047F00008F10103032B01D9A8F1030303F112020D
:1048000054F8225001379846EB68002B14DB89F0EE
:104810000103574510D27BB1EB6813F0804F03D0F2
:104820006B68A3672B686367EB6813F0005FBAD10E
:10483000E36F002BB7D1DBE7E36E1F44E76637B9C0
:10484000C4F85C80B9F1000F05D101200AE02046D0
:10485000FFF7CCFAF4E7E36FCBF800300020E06715
:1048600000E00120BDE8F88FF8B50646056C446C01
:10487000012702E0013404F00304002D14BF3B467D
:104880000023EBB1013D231D06EB8303D86900280B
:10489000F0D0F36804EB440203EBC203DB68002BA7
:1048A00001DA0027E9E705F009FC231D06EB830385
:1048B0000022DA61013404F0030435647464DCE737
:1048C0000020F8BD704770477047000010B50446DF
:1048D000036803F58B52126812F0400F05D041F2C5
:1048E00034129A5812F0400F54D1236803F58B52BA
:1048F000126812F0010F05D041F234129A5812F0EA
:10490000010F4FD1236803F58B52126812F4804FC8
:1049100028D041F234129A5812F4804F22D0D4F8A1
:10492000882042F00802C4F8882003F58B521268F0
:1049300012F4805F3FD003F58B52126822F46F624D
:1049400022F00D02D204D20CC4F88C2041F23411B2
:104950005A5822F440425A50E023C4F8843020468A
:1049600005F010FA2368D3F8B42012F4C04F2DD10B
:104970002368D3F8B02012F0100F3BD12368D3F88E
:10498000B02012F0200F42D12B4B9B6A13F4800F02
:104990004AD110BD03F58B5348F240021A6005F06E
:1049A000E1F9A2E703F58B5348F201021A602046B1
:1049B00005F0E0F9A6E703F58B531A6802F4CD423F
:1049C000C4F88C204FF4CD421A60C8E7D4F8882090
:1049D00042F01002C4F88820D3F8B830C4F8903000
:1049E000E023C4F88430204605F0CCF90023C4F855
:1049F0009030BDE7D3F8C03003F06003C4F89430C2
:104A00002046FFF75FFF0023C4F89430B6E7D3F8E1
:104A1000C03003F00F03C4F898302046FFF753FF6F
:104A20000023C4F89830AFE7034B4FF480029A623A
:104A30002046FFF749FFACE78000005870B50446F8
:104A40001D460068D0F8003213F0010F01D001209C
:104A500070BDD0F8003223F0787343EA415323F459
:104A6000F81343EA024242F00D02C0F80022FEF7BA
:104A70005BF806462268D2F8001211F0010F07D049
:104A8000FEF752F8821BB2F57A7FF3D90120DFE7F7
:104A9000D2F804329BB22B600020D9E738B5044627
:104AA0000068D0F8005215F0010F01D0012038BD88
:104AB000D0F8000220F0787040EA415121F4F8115A
:104AC00041EA024222F00C0242F005029BB20C497C
:104AD000C1F80432C1F80022FEF726F80546236823
:104AE000D3F8003213F0010F07D0FEF71DF8431B77
:104AF000B3F57A7FF3D90120D9E70020D7E700BFCB
:104B000000800240002900F0EE800268126802F086
:104B10000C02CA6202681268C2F3001281F82820EF
:104B20000268126802F060024A620268126812F4B7
:104B3000807F0CBF0122002281F8202002681268C9
:104B4000C2F34022CA770268126812F4806F0CBF69
:104B5000012200228A7702681268C2F3C0224A77D3
:104B600002681268C2F300320A770268126802F41F
:104B700000528A610268126802F480424A61026847
:104B80001268C2F300428A740268126812F4003F8D
:104B90000CBF012200224A740268126812F4002F2E
:104BA0000CBF012200220A7402681268C2F300528C
:104BB000CA7302681268C2F340528A7302681268AC
:104BC000C2F380524A7302681268C2F3C0520A7379
:104BD0000268126802F0E0628A6002681268C2F33A
:104BE000C0620A710268126802F0E0420A6002685C
:104BF0005268C2F30D024A630268526812F4803FA1
:104C00000CBF0122002281F8322002685268C2F3F0
:104C1000404281F8312002685268C2F3804281F834
:104C2000302002685268C2F3006281F838200268BE
:104C30005268C2F34462CA630268D268C2F30022B7
:104C400081F840200268D26802F00F024A640268CC
:104C5000126FC2F3400281F854200268126F12F002
:104C6000800F0CBF0122002281F84C200268126FD5
:104C700002F070020A650268126F120C8A64026800
:104C8000D2F8902002F0010281F856200268D2F892
:104C90009020C2F3400281F855200268D2F8002D1E
:104CA00002F072028A650268D2F8302D02F0230207
:104CB000CA650268D2F8302DC2F3C00281F86220C2
:104CC0000268D2F8302DC2F3001281F86120026828
:104CD000D2F8302D12F0400F0CBF0122002281F8D3
:104CE0006020002070470120704751B108B5D0F80E
:104CF0008430102B01D0012008BDFFF7C1F800203F
:104D0000FAE701207047000038B505460368D3F87C
:104D1000004224F4706401F05FFB114B0344114A1C
:104D2000934205D244F400742B68C3F8004238BDA6
:104D30000D4B03440D4A934202D844F44074F3E708
:104D40000B4B03440B4A9342EED30B4B03440B4AE9
:104D5000934202D844F48074E6E744F48064E3E7C5
:104D600000D3CEFEC0E1E40040F1E9FD3F787D01D3
:104D700000796CFC005A6202001F0AFA7FF0FA0206
:104D8000002800F0958030B583B00446D0F8843018
:104D90009BB3484BD3F8F42042F00202C3F8F4204E
:104DA000D3F8F43003F002030193019B237A53BB41
:104DB0000020FDF7D9FE404B5B68236803F5805364
:104DC0001A6842F001021A60FDF7AEFE054623683C
:104DD00003F580531B6813F0010F19D0FDF7A4FEF3
:104DE000401BB0F5FA7FF2D90423C4F88830E023E1
:104DF000C4F88430012003B030BD2323C0F88430D0
:104E000004F0F6FFC5E74FF40000FDF7ADFED2E772
:104E10002046FFF779FF01F0DFFA284BA3FB0023C0
:104E20009B0C2268013BC2F8DC302046FFF74CF9AE
:104E3000226802F58852136823F4E01343F4002338
:104E40001360626912F0030F06D00120C4F88800D5
:104E5000E023C4F88430CEE7206841F208114558B9
:104E6000174B2B4043EA420343502046FFF79AF981
:104E70002046FFF7BEF9626851791379226843EA48
:104E80000123C2F800336268D17893781B0443EAA7
:104E90000163517843EA0123117822680B43C2F879
:104EA00004330020C4F888001023C4F88430A2E73B
:104EB00001207047004402580004005883DE1B4361
:104EC0000180FFFFD0F88C007047000030B4446BC5
:104ED0000268D2F88410704B194041EA8401C2F88C
:104EE00084100268D2F8841021F47F01856B41EAB6
:104EF0000541C2F88410826B22440468D4F88810FB
:104F0000194041EA8201C4F888100468D4F8881076
:104F100021F4FE01C56B41EA0541C4F88810C16B5C
:104F200002EB41020468D4F8A010194041EA820162
:104F3000C4F8A0100468D4F8A01021F4FE01056C98
:104F400041EA0541C4F8A010046C416C01FB042443
:104F50000268D2F8B010194041EA8401C2F8B010DA
:104F60000268D2F8B01021F4FE01856C41EA0541D7
:104F7000C2F8B010826CC16C01FB02440268D2F826
:104F8000AC10194041EA8401C2F8AC10026D416DC9
:104F900001FB02420468D4F8F010194041EA820192
:104FA000C4F8F0100468D4F8F01021F47C11856D79
:104FB00041EA0541C4F8F010816D02EB410204683A
:104FC000D4F8C0100B4043EA8202C4F8C020026843
:104FD000D2F8C03023F47C13C16D43EA0143C2F818
:104FE000C0300268D2F8C03023F07C53016E43EA2F
:104FF0000163C2F8C030436B284A1A449200C2666B
:10500000836B02EB83030367C16B03EBC10343674D
:10501000046C416C01FB04F103EB81038367846C36
:10502000C16C01FB04F103EB8103C367046D416DA7
:1050300001FB04F103EB8103C0F88030816D03EBC9
:10504000C103C0F88430C46D856E05FB04F403EB26
:105050008403C0F88830016E01FB05F103EB810386
:10506000C0F890300E498B4207D8D0F89030934268
:105070000ED9002342F8043BF7E7D0F89C3043F008
:105080002003C0F89C30032380F89830012000E012
:10509000002030BC704700BF0300FFFF002B001052
:1050A000FCD3004030B595B004464C22A04901A87D
:1050B000FBF776F9002C00F0388123689D4A934273
:1050C00020D094F898300BB32268936923F0100332
:1050D0009361FDF729FD054623689A6912F0080FD0
:1050E0001AD0FDF721FD431B0A2BF5D9D4F89C30CB
:1050F00043F00103C4F89C30032384F89830012066
:1051000015B030BD03F580736360DAE784F8993039
:105110002046FCF747F9D7E79A6942F001029A6105
:10512000FDF702FD054623689A6912F0010F0FD1C1
:10513000FDF7FAFC401B0A28F5D9D4F89C3043F05F
:105140000103C4F89C30032384F898300120D7E78A
:105150009A6942F002029A61237C012B40D02268B6
:10516000936943F040039361637C012B3ED0226836
:10517000936923F480439361A37C012B3CD0226884
:10518000936943F4805393612268936923F44073D5
:10519000A1680B4393612268936923F0A403936190
:1051A0002268136923F010031361E368012B29D0EF
:1051B000002B2CD0022B00F09B802268936943F0D7
:1051C000800393612268136943F010031361E3685D
:1051D000032B1CD12268936943F02003936116E0EE
:1051E0002268936923F040039361BDE722689369C5
:1051F00043F480439361BFE72268936923F48053AB
:105200009361C1E72268936943F004039361A36942
:105210005A1EE369013B1B0243EA4263226A013AD8
:1052200013436269013A216843EA0243CB61A368F0
:10523000B3F5407F62D0236E33B12268D2F8C0301C
:10524000616E0B43C2F8C030E36D226ED3420DD0C5
:105250002168D1F8C83023F00703A26E14A800EB30
:10526000820252F84C2C1343C1F8C830236C6BB146
:105270002168D1F8BC3023F00703626C14A800EB5E
:10528000820252F84C2C1343C1F8BC30A36C73B1AA
:105290002168D1F8BC3023F07003E26C14A800EB55
:1052A000820252F84C2C43EA0213C1F8BC30236D41
:1052B00073B12168D1F8BC3023F4E063626D14A8A7
:1052C00000EB820252F84C2C43EA0223C1F8BC30B6
:1052D0002268184B9A4222D00023C4F89430C4F8B4
:1052E0009C30012384F898302046FFF7EFFD07E754
:1052F0002268936943F02003936188E7A36A013B26
:10530000E26A013A43EA0223226B013A43EA0213BA
:10531000626A013A216843EA0243CB608BE7626824
:10532000936823F003039360D6E70120E8E600BF0B
:1053300000E3010800A00040F0B482B000235FE069
:1053400086685F000325BD4026EA0506CD68BD409E
:1053500035438560466826EA04064D68C5F30014A7
:105360009C40344344605AE0DD08083550F825700D
:1053700003F00704A6000F24B44027EA04070C69D1
:10538000B4403C4340F825405DE0092400E000249F
:10539000B4403C4302355F4E46F825404FF0B044E0
:1053A0002568D44325EA02064F6817F4801F01D010
:1053B00042EA05064FF0B0452E606E6804EA060525
:1053C0004F6817F4001F01D042EA06054FF0B046BF
:1053D0007560514D6D6804EA05064F6817F4003F8B
:1053E00001D042EA05064C4D6E602D682C404E6897
:1053F00016F4803F01D042EA0504474A14600133A5
:105400000A6832FA03F400F0828001249C402240B2
:10541000F5D04D6805F00305013D012D90D94C688C
:1054200004F00304032C09D0C5685E000324B440D3
:1054300025EA04058C68B4402C43C4604C6804F031
:105440000304022C90D005685E000324B44025EAD2
:1054500004054C6804F00304B4402C4304604C6819
:1054600014F4403FCBD02D4CD4F8F45045F0020555
:10547000C4F8F450D4F8F44004F002040194019C00
:105480009D08AE1C234C54F8267003F00304A600BC
:105490000F24B44027EA0407214CA0423FF477AF21
:1054A00004F58064A04222D004F58064A04220D09C
:1054B00004F58064A0421ED004F58064A0421CD094
:1054C00004F58064A0421AD004F58064A04218D08C
:1054D00004F58064A04216D004F58064A04214D084
:1054E00004F58064A0423FF450AF0A2450E7012441
:1054F0004EE702244CE703244AE7042448E7052446
:1055000046E7062444E7072442E7082440E702B0C0
:10551000F0BC704700040058800000580044025856
:10552000000002580AB18161704709048161704727
:10553000002857D010B5044690F84130002B41D0D8
:10554000242384F841302268136823F00103136098
:105550006368226823F0706313612268936823F400
:1055600000439360E368012B31D0A368226843F4C1
:1055700004439360E368022B2FD0226851681A4BD2
:105580000B4353602268D36823F40043D36023693C
:1055900062691343A169226843EA0123D360E36986
:1055A000216A22680B4313602268136843F00103E9
:1055B000136000206064202384F84130206384F865
:1055C000420010BD80F84030FCF786F9B8E7A368C8
:1055D000226843F400439360CCE723684FF40062F1
:1055E0005A60CAE7012070470080000290F84130FD
:1055F000DBB2202B24D190F84030012B22D00123A4
:1056000080F84030242380F841300268136823F08A
:10561000010313600268136823F480531360026867
:105620001368194311600268136843F001031360A3
:10563000202380F84130002380F84030184670471E
:10564000022070470220704790F84130DBB2202BD7
:1056500022D190F84030012B20D0012380F8403037
:10566000242380F841300268136823F0010313609B
:105670000268136823F4706343EA01211160026831
:10568000136843F001031360202380F841300023A6
:1056900080F840301846704702207047022070475B
:1056A00000282FD038B5044603684CF6CC421A6067
:1056B000036845F255521A60036842685A600368ED
:1056C00082689A60FDF730FA05462368DA6812F0BE
:1056D000070F0BD0FDF728FA401B3128F5D92368B6
:1056E000DB6813F0070FF0D0032005E01969E268CA
:1056F000914202D01A61002038BD4AF6AA221A60EF
:105700000020F9E70120704703684AF6AA221A60D0
:105710000020704770B58AB0002800F097800546D9
:10572000046890F8BD343BB3032385F8BD34E36BC4
:1057300013F4807F01D100232B61286803F002FE5F
:105740002C4654F8106BEC460FCCACE80F000FCC95
:10575000ACE80F0094E803008CE803002B1D0ECB8F
:10576000304603F0A1FD044658B1022385F8BD344C
:10577000012420460AB070BD80F8BC34FDF72EF835
:10578000D2E70021286803F00FFF234616E003EB61
:10579000C30205EB8202012182F83D1082F83C3001
:1057A000A2F84430002182F840109164D16403EBE8
:1057B000C30205EB820251650133DBB269688B429B
:1057C000E5D316E004EBC40305EB8303002283F862
:1057D0007D2283F87C4283F88022C3F88822C3F8B4
:1057E0008C2204EBC40305EB8303C3F89422013439
:1057F000E4B2A142E6D82C4654F8106BEC460FCC2C
:10580000ACE80F000FCCACE80F0094E803008CE884
:1058100003002B1D0ECB304603F0F0FD044660B9AB
:10582000002385F83830012385F8BD346B6A012BDD
:1058300008D0286803F0A6FE9BE7022385F8BD3454
:10584000012496E7284600F003F8F2E7012490E7E8
:10585000034602680121C0F80015002083F8F40413
:10586000936943F000639361516D024B0B435365A1
:10587000704700BF03000010134BDB6813F0040FE8
:1058800007D1114BDB6803F0070383421AD00120D4
:10589000704710B50C4AD36823F007031843D06053
:1058A000FDF742F90446084B5B6813F4005F07D12B
:1058B000FDF73AF9001BB0F57A7FF4D9012000E03A
:1058C000002010BD0020704700480258024AD368EB
:1058D00043F08073D360704700480258002800F0FE
:1058E000188338B50446036813F0010F25D0A74A82
:1058F000136903F03803926A102B15D0182B0FD0C0
:105900006368B3F5803F3FD0002B53D19F4B1A689B
:1059100022F480321A601A6822F480221A6038E079
:1059200002F00302022AEBD1984B1B6813F4003FEC
:1059300003D06368002B00F0EE82236813F0020F9F
:1059400000F0A180914A1369926A13F038035AD08B
:10595000182B55D0E368002B00F0DE808B490A68D5
:1059600022F0190213430B60FDF7DEF80546874B62
:105970001B6813F0040F40F0AD80FDF7D5F8401B15
:105980000228F4D90320CDE2804A136843F480331F
:10599000136063682BB3FDF7C7F805467B4B1B68A4
:1059A00013F4003FC9D1FDF7BFF8401B6428F5D9B7
:1059B0000320B7E2B3F5A02F09D0744B1A6822F484
:1059C00080321A601A6822F480221A60E1E76F4B75
:1059D0001A6842F480221A601A6842F480321A600F
:1059E000D7E7FDF7A1F80546684B1B6813F4003FA5
:1059F000A3D0FDF799F8401B6428F5D9032091E264
:105A000012F0030FA6D1614B1B6813F0040F03D0F3
:105A1000E368002B00F081825C4A136823F01903CD
:105A2000E1680B431360FDF77FF80546574B1B6891
:105A300013F0040F06D1FDF777F8401B0228F5D9C3
:105A400003206FE2FDF78AF841F20303984212D86F
:105A50002269402A07D04D494B6823F47C3343EA3E
:105A600002334B600FE0494A536823F47C3343F41C
:105A70000033536007E0454A536823F0FE43216931
:105A800043EA01635360236813F0100F00F088802D
:105A90003E4A136903F03803926A082B54D0182B3E
:105AA0004ED0E369002B00F0B880384A136843F009
:105AB00080031360FDF738F80546344B1B6813F478
:105AC000807F40F08880FDF72FF8401B0228F4D932
:105AD000032027E2FDF742F841F20303984212D86F
:105AE0002269402A07D029494B6823F47C3343EAD2
:105AF00002334B60C7E7254A536823F47C3343F4F1
