:020000040800F2
:1000000000000824C9AA000885A6000887A60008E1
:1000100089A600088BA600088DA600080000000035
:10002000000000000000000000000000B10801080E
:100030008FA60008000000005109010825010108F1
:1000400019AB000819AB000819AB000819AB000880
:1000500019AB000819AB000819AB000819AB000870
:1000600019AB000819AB000819AB000819AB000860
:1000700019AB000819AB000819AB000819AB000850
:1000800019AB000819AB000819AB000819AB000840
:1000900019AB000819AB000819AB000819AB000830
:1000A00019AB000891A6000819AB000819AB0008AD
:1000B00019AB000819AB000819AB000819AB000810
:1000C00019AB000819AB000819AB000819AB000800
:1000D00019AB000819AB000819AB000819AB0008F0
:1000E00019AB000819AB00080000000019AB0008AC
:1000F00019AB000819AB000819AB000819AB0008D0
:1001000019AB000819AB000819AB000819AB0008BF
:1001100019AB000819AB000819AB000819AB0008AF
:1001200019AB000819AB000819AB000819AB00089F
:1001300019AB0008A1A6000819AB000819AB00080C
:1001400000000000000000000000000000000000AF
:1001500019AB000819AB000819AB000819AB00086F
:1001600019AB000819AB000819AB000819AB00085F
:1001700019AB000819AB000819AB0008000000001B
:1001800019AB000819AB000819AB000819AB00083F
:1001900019AB000819AB000819AB000819AB00082F
:1001A00019AB000819AB000819AB000819AB00081F
:1001B00019AB000819AB000819AB000819AB00080F
:1001C00019AB000819AB000819AB000819AB0008FF
:1001D00019AB000819AB000819AB000819AB0008EF
:1001E00019AB000819AB000819AB000819AB0008DF
:1001F00019AB000819AB000819AB000819AB0008CF
:1002000019AB000819AB000819AB000819AB0008BE
:1002100019AB0008B1A6000819AB000819AB00081B
:1002200019AB000819AB000819AB0008000000006A
:1002300019AB000819AB00080000000019AB00085A
:1002400019AB000819AB000819AB000819AB00087E
:1002500019AB000819AB000819AB000819AB00086E
:1002600019AB000819AB000819AB000819AB00085E
:1002700019AB000819AB000819AB0008000000001A
:1002800019AB000819AB000819AB0008000000000A
:080290000000000019AB00089A
:1002C00081F0004102E000BF83F0004330B54FEA07
:1002D00041044FEA430594EA050F08BF90EA020F74
:1002E0001FBF54EA000C55EA020C7FEA645C7FEA07
:1002F000655C00F0E2804FEA5454D4EB5555B8BF2A
:100300006D420CDD2C4480EA020281EA030382EA9A
:10031000000083EA010180EA020281EA0303362D2C
:1003200088BF30BD11F0004F4FEA01314FF4801CFF
:100330004CEA113102D0404261EB410113F0004F11
:100340004FEA03334CEA133302D0524263EB4303C8
:1003500094EA050F00F0A780A4F10104D5F1200E66
:100360000DDB02FA0EFC22FA05F2801841F10001C1
:1003700003FA0EF2801843FA05F359410EE0A5F195
:1003800020050EF1200E012A03FA0EFC28BF4CF0C6
:10039000020C43FA05F3C01851EBE37101F000457C
:1003A00007D54FF0000EDCF1000C7EEB00006EEB89
:1003B0000101B1F5801F1BD3B1F5001F0CD3490813
:1003C0005FEA30004FEA3C0C04F101044FEA44526A
:1003D00012F5800F80F09A80BCF1004F08BF5FEAF1
:1003E000500C50F1000041EB045141EA050130BDD1
:1003F0005FEA4C0C404141EB0101013C28BFB1F5E3
:10040000801FE9D291F0000F04BF01460020B1FA2D
:1004100081F308BF2033A3F10B03B3F120020CDA00
:100420000C3208DD02F1140CC2F10C0201FA0CF0DE
:1004300021FA02F10CE002F11402D8BFC2F1200C43
:1004400001FA02F120FA0CFCDCBF41EA0C019040F9
:10045000E41AA2BF01EB0451294330BD6FEA040442
:100460001F3C1CDA0C340EDC04F11404C4F120022D
:1004700020FA04F001FA02F340EA030021FA04F33F
:1004800045EA030130BDC4F10C04C4F1200220FA96
:1004900002F001FA04F340EA0300294630BD21FAD4
:1004A00004F0294630BD94F0000F83F4801306BF9A
:1004B00081F480110134013D4EE77FEA645C18BF8E
:1004C0007FEA655C29D094EA050F08BF90EA020F25
:1004D00005D054EA000C04BF1946104630BD91EA1D
:1004E000030F1EBF0021002030BD5FEA545C05D120
:1004F0004000494128BF41F0004130BD14F580045F
:100500003CBF01F5801130BD01F0004545F0FE41D2
:1005100041F470014FF0000030BD7FEA645C1ABF07
:10052000194610467FEA655C1CBF0B46024650EA3E
:10053000013406BF52EA033591EA030F41F400216A
:1005400030BD00BF90F0000F04BF0021704730B5F0
:100550004FF4806404F132044FF000054FF00001C5
:1005600050E700BF90F0000F04BF0021704730B586
:100570004FF4806404F1320410F0004548BF40425B
:100580004FF000013EE700BF42004FEAE2014FEAB0
:1005900031014FEA02701FBF12F07F4393F07F4F8B
:1005A00081F06051704732F07F4208BF704793F08E
:1005B0007F4F04BF41F40021704730B54FF46074A1
:1005C00001F0004521F000411CE700BF50EA0102A4
:1005D00008BF704730B54FF000050AE050EA01024D
:1005E00008BF704730B511F0004502D5404261EBBD
:1005F00041014FF4806404F132045FEA915C3FF4FE
:10060000D8AE4FF003025FEADC0C18BF03325FEA9A
:10061000DC0C18BF033202EBDC02C2F1200300FA4B
:1006200003FC20FA02F001FA03FE40EA0E0021FA70
:1006300002F11444BDE600BF4FEA410212F5001278
:1006400015D211D56FF47873B3EB625212D94FEA19
:10065000C12343F0004343EA505311F0004F23FA03
:1006600002F018BF404270474FF00000704750EA58
:10067000013005D111F0004008BF6FF00040704715
:100680004FF00000704700BF53B94AB9002908BFB6
:1006900000281CBF4FF0FF314FF0FF3000F00CB8C6
:1006A000ADF1080C6DE904CE1BF04AFBDDF804E067
:1006B000DDE9022304B07047704700BF0023014604
:1006C0001A46184603F064BE38B50A4C0A4D641B3E
:1006D000A4100AD004F18043013B05EB8305013CE3
:1006E00055F804399847002CF9D1BDE838401BF083
:1006F0008DBC00BFA4F30108A0F3010870B50D4E36
:100700000D4D761BB61006D00024013455F8043B7D
:100710009847A642F9D1094E094D761B1BF070FC93
:10072000B61006D00024013455F8043B9847A64281
:10073000F9D170BD98F3010898F30108A0F30108FE
:1007400098F30108032A70B412D940EA0105AD07F5
:1007500004460B4620D11946204653F8045B54F852
:10076000046BAE4218D1043A032A20461946F2D847
:10077000541E72B103780A789A4208BF241806D032
:100780000CE010F8013F11F8012F934206D1A0426E
:10079000F7D1002070BC7047541EEBE7981A70BC6C
:1007A000704700BF844641EA000313F003036DD194
:1007B000403A41D351F8043B40F8043B51F8043B24
:1007C00040F8043B51F8043B40F8043B51F8043B2B
:1007D00040F8043B51F8043B40F8043B51F8043B1B
:1007E00040F8043B51F8043B40F8043B51F8043B0B
:1007F00040F8043B51F8043B40F8043B51F8043BFB
:1008000040F8043B51F8043B40F8043B51F8043BEA
:1008100040F8043B51F8043B40F8043B51F8043BDA
:1008200040F8043B51F8043B40F8043B51F8043BCA
:1008300040F8043B403ABDD2303211D351F8043B6A
:1008400040F8043B51F8043B40F8043B51F8043BAA
:1008500040F8043B51F8043B40F8043B103AEDD219
:100860000C3205D351F8043B40F8043B043AF9D26A
:10087000043208D0D2071CBF11F8013B00F8013B3D
:1008800001D30B8803806046704700BF082A13D34A
:100890008B078DD010F003038AD0C3F10403D21A62
:1008A000DB071CBF11F8013B00F8013B80D331F896
:1008B000023B20F8023B7BE7043AD9D3013A11F816
:1008C000013B00F8013BF9D20B7803704B78437081
:1008D0008B788370604670478842F0B40DD98B18CE
:1008E00083420AD9841832B1224613F8014D02F826
:1008F000014D9942F9D1F0BC70470F2A0ED803463A
:10090000541E002AF7D001340C44013B11F8012B8E
:1009100003F8012FA142F9D1F0BC704740EA01036E
:100920009B073BD1A2F110073F0901F1200606EB1E
:10093000071601F1100300F1100453F8105C44F89D
:10094000105C53F80C5C44F80C5C53F8085C44F8F9
:10095000085C53F8045C44F8045C1033B34204F1BF
:100960001004EAD17B1C1B0112F00C0F194402F099
:100970000F05034415D0043DAD0803EB850C1C1F87
:100980000E4656F8047B44F8047F6445F9D10135DE
:10099000AD002B44294402F00302B1E7541E034684
:1009A000B1E72A46ACE700BFF0B4860746D0541E34
:1009B000002A3CD0CAB2034602E014F1FF3436D319
:1009C00003F8012B9D07F8D1032C29D9CDB245EAB4
:1009D00005250F2C45EA054533D9A4F11006360943
:1009E00003F1200707EB061703F1100242E9045553
:1009F00042E902551032BA42F8D1721C14F00C0FC1
:100A000003EB021204F00F0613D0331F23F003038D
:100A10000433134442F8045B9342FBD106F0030411
:100A20002CB1C9B21C4403F8011B9C42FBD1F0BCA1
:100A3000704734461346002CF3D1F8E714460346BA
:100A4000C2E71A462646E0E70EB400B582B003AB13
:100A5000816853F8042B019301F076FE02B05DF833
:100A600004EB03B0704700BF0FB400B5074983B073
:100A700004AB086853F8042B8168019301F064FE0D
:100A800003B05DF804EB04B0704700BF0000002421
:100A9000024B1B680022C3E92A02704700000024B1
:100AA0000B4B0C481968D1E92A2310B40A4C00FBFF
:100AB00002F004FB0300A2FB043404445A1C44F17A
:100AC0000000C1E92A205DF8044B20F00040704787
:100AD000000000242DF451582D7F954C38B50C465C
:100AE0000968054609B1FFF7F9FF21462846BDE828
:100AF000384004F0CBBE00BF204B1B6883423BD084
:100B0000C36C70B505468BB10026995939B10C6894
:100B1000284604F0BBFE2146002CF8D1EB6C0436CD
:100B2000802EF2D11946284604F0B0FE296C11B18E
:100B3000284604F0ABFED5F8481151B105F5A6766C
:100B4000B14206D00C68284604F0A0FEA642214619
:100B5000F8D1696D11B1284604F098FEAB6B53B122
:100B6000EB6B28469847D5F8E01221B12846BDE83E
:100B70007040FFF7B3BF70BD704700BF0000002496
:100B80000CB470B59CB020AC0B4E54F8042B029101
:100B9000234606916FF0004502A901940795CDE91F
:100BA000045600F0D5F8029B00221A701CB0BDE874
:100BB000704002B0704700BF0802FFFF0EB430B5AE
:100BC0009CB01FAB0C4C0D4D53F8042B0193014608
:100BD00002910691206802A96FF000440794CDE9C4
:100BE000044500F0B5F8029B00221A701CB0BDE865
:100BF000304003B0704700BF000000240802FFFF30
:100C000090F800F06DE9024520F007016FF0000C4C
:100C100010F0070491F820F040F049804FF00004F4
:100C20006FF00700D1E9002391F840F000F10800CF
:100C300082FA4CF2A4FA8CF283FA4CF3A2FA8CF307
:100C40004BBBD1E9022382FA4CF200F10800A4FA6E
:100C50008CF283FA4CF3A2FA8CF3E3B9D1E90423C2
:100C600082FA4CF200F10800A4FA8CF283FA4CF3F9
:100C7000A2FA8CF37BB9D1E9062301F1200182FAB3
:100C80004CF200F10800A4FA8CF283FA4CF3A2FAB9
:100C90008CF3002BC6D0002A04BF04301A4612BAC7
:100CA000B2FA82F2FDE8024500EBD2007047D1E9CA
:100CB000002304F00305C4F100004FEAC50514F059
:100CC000040F91F840F00CFA05F562EA05021CBF2A
:100CD00063EA050362464FF00004A9E770B440EAF6
:100CE0000104A30727D1032A25D90B460646194636
:100CF00053F8045BA5F1013424EA050414F0803FA5
:100D000006D1043A032A46F8045B1946EFD882B1AB
:100D100033460C7803F8014B551E74B132442E440F
:100D200005E011F8014FF51A03F8014B2CB19A4276
:100D3000F7D170BC70470646E9E7002DF9D01D4495
:100D4000002203F8012BAB42FBD170BC704700BFFF
:100D50002DE9F04FD5B00C460791934609930690C4
:100D600004F0E0FE036815931846FFF749FFA389D6
:100D70001390180603D52369002B01F00E80002381
:100D80005E469FED957B1293CDE92933149316931C
:100D9000CDE91833179304932BAB289399463378F6
:100DA0008DED107B002B00F03382252B00F0B686F2
:100DB000354603E0252B00F0E78025466B786C1C58
:100DC000002BF7D1A71B00F02382DDE92932013384
:100DD0003A44072BC9F80060C9F80470CDE92932FC
:100DE00000F3D68009F10809049A6B783A4404921A
:100DF000002B00F00D82002394F8018005938DF8FC
:100E00008330029304F1010B4FF0FF3A2B2720218E
:100E10000BF1010BA8F120035A2B00F26A83DFE8E3
:100E200013F06301680368035C01680368036803E7
:100E30003901680368032E012901680322011A039E
:100E400068033F02FE00FE00FE00FE00FE00FE0002
:100E5000FE00FE00FE006803680368036803680381
:100E600068036803A102680374017600A102A1026D
:100E7000A10268036803680368036D0168036803DF
:100E80006200680368036803E9026803A20068035C
:100E900068030D0168036803680368036803680357
:100EA00068036803A102680374017A00A102A10229
:100EB000A1020F037A005B006803650268034D021C
:100EC000660070025B006803E9025F00A600680329
:100ED0006803DF0068035F00029B43F02003029376
:100EE0009BF8008094E7029B43F010030293029B5F
:100EF000980640F1EE82099C073424F00703F3E8DA
:100F000002450993029B23F4806700230BE2029BB6
:100F100043F010030293029B990640F1C782099C9B
:100F2000073424F007031946F1E802230991144617
:100F30001D46002A73F10003C0F2E785BAF1FF3FB6
:100F400000F00285029B23F0800754EA050340F07D
:100F5000FC84BAF1000F40F0FD8402974FF0000AC4
:100F6000574654AE3AE3029B43F010030293029FAC
:100F7000BE0640F18A82099C073424F00703F3E897
:100F8000024509930123CEE1A71B3FF434AF1CE7D0
:100F900028AADDE9060105F0CBFE80B90DF1AC0908
:100FA00022E728AADDE9060105F0C2FE002800F0CC
:100FB0002081089B1BB10899069804F067FC079BE9
:100FC0009B8913F0400F049B18BF4FF0FF3304932D
:100FD000049855B0BDE8F08F00000000000000004C
:100FE000B34B1493029B98062DD5099C073424F02B
:100FF0000703F3E802450993029AD6070AD554EA93
:10100000050307D0302342F002028DF8858002925A
:101010008DF88430029B23F48067022383E1A8F1DA
:10102000300300221BF8018B02EB820203EB420229
:10103000A8F13003092BF5D90592EBE69D4B1493EB
:10104000029B9806D1D40299099AC90602F10403B9
:1010500000F19B85029A570640F19185099A099300
:1010600014880025C8E79BF80080029B43F0040326
:101070000293CDE68DF883709BF80080C8E6099B4B
:101080009BF8008053F8042B0592002AC0F2628678
:101090000993BDE6069D284604F044FD4368179376
:1010A0001846FFF7ADFD19900446284604F03AFDB6
:1010B000836818932021002C3FF412AF189B9BF8F3
:1010C0000080002B3FF4A4AE1B78002B3FF4A0AEB1
:1010D000029B43F4806302939AE6029B9BF8008094
:1010E00043F00103029393E69DF883309BF8008060
:1010F000002B7FF48DAE8DF8831089E6029B9BF860
:10110000008043F00803029382E6099C002354F810
:10111000042B8DF8EC2001271A4603970994CDE99A
:101120000E228DF88330089292460C923BAE029BC1
:1011300013F002030A9302D0039B02330393029B32
:101140002A9C13F084030B9304D1059B03995D1A29
:10115000002D69DC72B1299A013201340DF183004E
:101160000121072ACDE92924C9E9000100F384837C
:1011700009F108090A9B6BB1299B0133023421A9AB
:101180000222072BCDE92934C9E9001200F380833C
:1011900009F108090B9B802B00F09382AAEB07054D
:1011A000002D00F3D182029BDA0500F12D82299BEC
:1011B000C9F8006001333C44072B2A94C9F8047035
:1011C000299300F34D8309F10809029B590705D5BE
:1011D000059B039A9D1A002D00F36683DDE9043216
:1011E00003998A42ACBF9B185B180493002C7FF4D0
:1011F000D8AE00232993089B1BB10899069804F0E8
:1012000045FB0DF1AC095E463378002B7FF4CDAD84
:101210002A9B002B3FF4D3AE079C069828AA2146B0
:1012200005F086FDA389CCE6102D299A29DD4946D3
:101230002046B14610231E97069C079E04E0103DF1
:10124000102D01F1080118DD01321B4F1030072A63
:10125000CDE92920C1E90073F1DD28AA31462046F5
:1012600005F066FD00287FF4A4AE103D102DDDE9E9
:1012700029202BA94FF01003E6DC1E9F4E460446A2
:10128000894601320C4B2C44072ACDE92924C9E9AF
:10129000003500F35F8609F108099DF8832059E7BE
:1012A000029B9BF8008043F080030293B0E500BFEF
:1012B00084F2010898F201086CC10108099A52F8F9
:1012C000043B0992029A970600F13C85029AD606E1
:1012D00000F1B986029A550600F14C87029A9405EE
:1012E00040F1B186049A1A705E468DE79BF8008043
:1012F000029BB8F16C0F00F03B8543F010030293A2
:1013000086E5099C47F6300254F8043BADF884208A
:10131000029A09941C46B84B149342F00207002528
:1013200002234FF0780800228DF88320BAF1FF3FA6
:1013300000F0EB8027F08002029254EA050240F0B0
:10134000E380BAF1000F40F07986002B7FF406AEFF
:1013500017F0010700F0048430238DF84F310DF2AF
:101360004F163BE1099C073424F00703B3EC027BE2
:1013700055EC174B099325F000431B938DED1A7A1A
:10138000DDE91A014FF0FF329C4B8DED107B08F028
:1013900081FD002840F009844FF0FF32974BDDE9D2
:1013A0001A0108F059FD002840F0FF8300220023B5
:1013B0002046294608F046FD002840F0C0869DF8EA
:1013C00083208F4E8F4B02980021CDE90E11032709
:1013D00020F08000039708910290B8F1470FC8BF32
:1013E0001E468A460C91002A3FF4A1AE039B0133AE
:1013F00003939CE6099C54F8046B00258DF88350F8
:10140000002E00F0D984BAF1FF3F00F02186524649
:101410002946304604F0CCFE0890002800F08B8767
:10142000089BAA469F1B27EAE77309940393CDF80C
:1014300020A0CDF830A0CDE90EAA9DF88320D2E7F8
:101440009BF80080029BB8F1680F00F0888443F09D
:1014500040030293DCE45A4612F8018BB8F12A0FDC
:1014600001F05081A8F13003092B93464FF0000A98
:101470003FF6D0AC1BF8018B0AEB8A0A03EB4A0A51
:10148000A8F13003092BF5D9C4E4029F099BFD069E
:1014900003F1040200F14C84029F7C0640F1368681
:1014A000099B09921C88002501233CE7029A099BAD
:1014B000D20603F1040100F15B83029B5B0640F15D
:1014C0005183099B0991B3F90040E51722462B4649
:1014D0002FE50299099AC90602F1040300F160831D
:1014E000029A570640F15683099A099314880025F9
:1014F00008E5B8F1000F3FF48BAE002301271A4630
:1015000003978DF8EC800AE6029F012B00F01D8204
:10151000022B00F0018254A900E03146E20842EAC1
:101520004572E80804F0070305461446303354EAD0
:10153000050201F8013C01F1FF36EED1F8074AD56A
:10154000302B48D03023023906F8013C54AB0297C7
:101550000E465F1A42E007F480630022CDE902895B
:10156000CDF820A054AEBA469046DDF860901F46F4
:1015700007E0FFF789F8002D08BF0A2C20D30446A6
:101580000D460A22002320462946FFF77DF802F186
:10159000300C06F801CC204629460A22002308F127
:1015A0000108013E002FE4D099F800C0E045E0D1E9
:1015B000B8F1FF0FDDD09D4208BF944280F06E86E7
:1015C000CDF84880CDF860905746DDF80880DDF80A
:1015D0000C90DDF820A0029754AB9F1B00235745C9
:1015E00008930C93CDE90E333B46B8BF53469DF8A4
:1015F00083200393F7E600BF84F20108FFFFEF7F2B
:1016000074F2010878F20108B8F1650F40F3D68052
:1016100000220023DDE9100108F00AFC002800F098
:10162000A181299BC54AC9F8002001330134012258
:10163000072BCDE92934C9F8042000F3CE8409F141
:101640000809229B129A2A9C934280F28382299B4A
:10165000159AC9F80020139AC9F8042001331444DC
:10166000072BCDE9293400F38C8309F10809129B7B
:101670005D1E002D7FF7A9AD102D299AB04B40F3C8
:10168000B9841026DDE906789A4605E009F10809D3
:10169000103D102D40F3AD8401321034072ACDE9FE
:1016A0002924C9E900A6F1DD28AA4146384605F0FB
:1016B0003FFB00287FF47DACDDE929240DF1AC0966
:1016C000E6E7059B039A9D1A002D7FF767AD102D65
:1016D000299A9B4B28DD494620460A97B146069C2D
:1016E000079E1F4604E0103D102D01F1080116DD94
:1016F000013210301023072ACDE929200F604B60FA
:10170000F1DD28AA3146204605F012FB00287FF4BF
:1017100050AC103D102DDDE929202BA9E8DC3B461B
:101720000A9F4E460446894601322C44072ACDE9D9
:101730002924C9E9003500F37484AAEB0705002DBC
:1017400009F108097FF72FAD102D299A7C4B29DD6F
:10175000494620460A97B1464FF0100A069C079E5C
:101760001F4604E0103D102D01F1080115DD013286
:101770001030072ACDE92920C1E9007AF2DD28AA34
:101780003146204605F0D4FA00287FF412AC103D13
:10179000102DDDE929202BA9E9DC3B460A9F4E46A6
:1017A0000446894601322C44072ACDE92924C9E997
:1017B000003500F39D8109F10809F4E4129A299B90
:1017C000012A04F1010403F1010509F1080740F3BE
:1017D0004E810123072DC9F80060CDE92954C9F8CD
:1017E000043000F39E81139B159A691C1C44072941
:1017F0000B91CDE92914C7E9002300F39E81083736
:101800000B9A129D02F1010A00230022DDE910016A
:10181000CDF828A007F1080905F1FF3808F008FB0A
:10182000002840F037810A9BC7F804800136444401
:10183000072B3E602A94299300F37C830B9A07F1CF
:10184000100302324F460A929946169A7A6014445F
:101850000A9A2A9424AB072A29923B607FF7B5ACF9
:1018600028AADDE9060105F063FA00287FF4A1ABA0
:101870002A9C0DF1AC09A8E428AADDE9060105F0CF
:1018800057FA00287FF495AB2A9C0DF1AC0971E45E
:1018900028AADDE9060105F04BFA00287FF489ABA0
:1018A0002A9C0DF1AC0975E4102D299B20DD102632
:1018B000DDE9067804E0103D102D09F1080917DD77
:1018C0000133204A1034072BCDE92934C9E9002619
:1018D000F1DD28AA4146384605F02AFA00287FF4AF
:1018E00068AB103D102DDDE929340DF1AC09E7DCC2
:1018F0000133144A2C44072BCDE92934C9E90025CA
:101900007FF76CAC28AADDE9060105F011FA002882
:101910007FF44FAB2A9C61E4149854AE230904F081
:101920000F0143EA05732A091C461546435C06F875
:10193000013D54EA0503F1D14DE600BFCCEB0108AF
:101940007CC101086CC10108029F002D08BF0A2C50
:10195000BFF401AE303402978DF84F4101270DF2EC
:101960004F163BE6229B002B40F303830E9B129AFB
:101970009342A8BF1346002B1D460DDD299BC9F8D5
:10198000006001332C44072B2A94C9F80450299392
:1019900000F3778409F108090E9B002DA8BF5B1B9B
:1019A000002B1D4600F317820E9B33449A46029B80
:1019B0005F0500F13782229B129A934203DB029A61
:1019C000D50740F1CE83299A1599C9F800101399CB
:1019D000C9F8041001320C44072A2A94299200F312
:1019E000738409F10809129AB518A5EB0A05D31AF0
:1019F0009D42A8BF1D46002D0DDD299AC9F800A003
:101A000001322C44072A2A94C9F80450299200F381
:101A1000658509F10809002DACBF5D1B1D46002D31
:101A20007FF7D3AB102D299AC44B40F3E3821026E5
:101A3000DDE906789A4605E009F10809103D102D08
:101A400040F3D78201321034072ACDE92924C9E9AD
:101A500000A6F1DD28AA4146384605F069F90028BC
:101A60007FF4A7AADDE929240DF1AC09E6E7029A83
:101A7000D0073FF5AEAE0122072DC9F80060CDE9D1
:101A80002954C9F8042000F3558202330A9309F15E
:101A90001009DAE6B8F1000F7FF7D7AEB8F1100FF2
:101AA000A64B40F32D861A46554623461026DDF8F0
:101AB0001890DDF81CA0144607E00837A8F11008BC
:101AC000B8F1100F40F30A8301351033072DCDE92B
:101AD0002953C7E90046F0DD28AA5146484605F0DB
:101AE00027F900287FF465AADDE929532BAFE5E744
:101AF00028AADDE9060105F01BF900287FF459AAA0
:101B00002A9C0DF1AC09FFF74EBB2D2364428DF8E2
:101B1000833065EB4505029F012307E43446FFF758
:101B20006AB928AADDE9060105F002F900287FF468
:101B300040AADDE929542BAF55E628AADDE90601C4
:101B400005F0F6F800287FF434AADDE929342BAF3C
:101B50000B9355E6029BDB073FF579ADFFF735BBED
:101B600054AE3BE5029B13F4007F099B40F01883C1
:101B70001C680991E51722462B46FFF7DAB9029A4D
:101B800012F4007F099A40F0FA8214680993002544
:101B9000FFF732BA029A12F4007F099A40F0F482F9
:101BA000146809930025FFF7ADB9DDE9100102467D
:101BB0000B4608F06FF9002840F04C85B8F1610F32
:101BC00000F0DF84B8F1410F00F0D88328F0200343
:101BD000BAF1FF3F039300F0F982472B04D1BAF129
:101BE000000F08BF4FF0010ADDE910450299002DF2
:101BF00041F48072C0F26484CDE91C4500231E9339
:101C00000A9108930292039B462B00F06B83452BAD
:101C100000F0BC8426AA23ABCDE90032022122AB1E
:101C200052469DED1C0B069802F088FC039B472B47
:101C3000064640F076850A9BDB0700F16984269F03
:101C4000BB1B1293229B0E93039B472B00F0DD825C
:101C5000039B462B00F07B8303990E9B412903F1E4
:101C6000FF325FFA88F303BF0F33DBB2012100219B
:101C7000002A8DF89030B8BF0E9B2292B6BFC3F1F8
:101C800001022B232D23092A8DF8913040F3EE8495
:101C90000DF19F0420462A4D01E008461A4685FBB7
:101CA0000231D317C3EBA10303EB8301A2EB410184
:101CB0003031632A00F8011C00F1FF31EDDC3033D4
:101CC000821EDBB2944201F8013C40F226850DF100
:101CD000920201E011F8013B02F8013BA142F9D167
:101CE0000DF1A1030DF192021B1A134424AA9B1AB1
:101CF0001693129B169A012B02EB030740F3D28432
:101D0000139B1F440A9B002223F4806343F48073D7
:101D1000CDE90E22029327EAE7730C9203931E9BF0
:101D2000002B40F099829A469DF88320FFF75BBB19
:101D30001C68099200250123FFF7F5BA7CC1010850
:101D400067666666049A1046D117C3E900015E46CD
:101D5000FFF75ABA524205920993FFF786B943F446
:101D600000739BF8018002930BF1010BFFF750B851
:101D700043F020039BF8018002930BF1010BFFF766
:101D800047B828AADDE9060104F0D2FF00287FF455
:101D900010A92A9C0DF1AC0969E44021069803F0D2
:101DA00055FF079B18601861002800F0BD84079A52
:101DB00040235361FEF7E3BF5746062F28BF06278F
:101DC000B2460C96CDE90E66089632460397099402
:101DD000BF4EFFF708BB102D299ABE4B40F3A481DC
:101DE000194610272346DDE9068A0C4605E009F16D
:101DF0000809103D102D40F3948101321033072A59
:101E0000CDE92923C9E90047F1DD28AA514640461A
:101E100004F08EFF00287FF4CCA8DDE929230DF122
:101E2000AC09E6E7129BCDF82CB0F3180A930F9B90
:101E30000E964A465646A74FDDF86080DDF864A04E
:101E40002146DDE906B9002B33D00C9B002B34D1A1
:101E50000F9B013B08F1FF380F93299B17981060E7
:101E600001335144072B2A91C2F804A0299356DC70
:101E700008320A9898F80030851B9D42A8BF1D467D
:101E8000002D0CDD299B166001332944072B2A9174
:101E90005560299300F3B88098F800300832002D7F
:101EA000ACBF5D1B1D46002D0BDC1E440F9B002BA1
:101EB000CBD10C9B002B00F099810C9B013B0C9328
:101EC000CBE7102D29981CDD102404E0103D102DC7
:101ED00002F1080215DD013010310728CDE9290192
:101EE000C2E90074F2DD28AA4946584604F020FFF2
:101EF00000287FF45EA8103D102DDDE929012BAAF2
:101F0000E9DC013029440728CDE92901C2E900753F
:101F100000F3A98198F8003008321E44C6E728AAC9
:101F20004946584604F004FF00287FF442A82A9945
:101F30002BAA9EE728AADDE9060104F0F9FE002895
:101F40007FF437A8DDE9293401330A930DF1B40990
:101F50002BAF7AE428AADDE9060104F0E9FE0028A7
:101F60007FF427A89DF883202A9C0DF1AC09FFF788
:101F7000F1B8299A5849C9F80010013201340121F9
:101F8000072ACDE92924C9F8041000F3DD8009F1FE
:101F90000809002B63D1029B129A03F0010313433B
:101FA0003FF413A9299A159BC9F80030139BC9F86F
:101FB000043001321C44072A2A94299200F3F88045
:101FC00009F10809129B01321C44072ACDE9292492
:101FD000C9E900637FF7F7A842E428AADDE9060112
:101FE00004F0A6FE00287EF4E4AF0DF1AC09FFF783
:101FF00028BB534601322C44072ACDE92924C9E9DC
:1020000000357FF7E0A82BE428AA4946584604F09B
:102010008FFE00287EF4CDAF98F800302A992BAAC5
:102020003DE728AADDE9060104F082FE00287EF4DF
:10203000C0AF2A9C0DF1AC09FFF7B0B8012B029F8D
:102040007FF466AA86E4049A1A605E46FFF7DCB85D
:102050003046FEF7D5FDAA460746FFF7E4B9299AB0
:102060001599C9F800101399C9F8041001320C44ED
:10207000072A2A94299200F39B8009F10809002B72
:10208000A0DA5D421033134B80F2488219461027C4
:102090002346DDE9068A0C4605E009F10809103DF2
:1020A000102D40F3388201321033072ACDE929235D
:1020B000C9E90047F1DD28AA5146404604F038FE40
:1020C00000287EF476AFDDE929230DF1AC09E6E7BF
:1020D000ACF201087CC10108CCEB010822461C4689
:1020E00013462A4601320A9207F10802C7E900386E
:1020F0000A9B29934444072B2A943FF71BAF0133D3
:102100000A9302F108091746FFF79FBB029F099B3C
:1021100017F4007F3DD01C78099200250123FFF7BA
:1021200002B921461C460B4601322C44072ACDE950
:102130002924C9E900354CDC09F1080934E42D22D1
:102140008DF88320FFF73DB928AADDE9060104F0E8
:10215000EFFD00287EF42DAF229B2A9C0DF1AC09E7
:1021600017E7129AB518A5EB0A05D31A9D42A8BF26
:102170001D4650E4049A1A805E46FFF745B814786D
:1021800009930025FEF738BF147809930025FEF760
:10219000B9BE1C68029F099200250123FFF7C3B84E
:1021A00093F900400991E51722462B46FEF7C1BE80
:1021B00028AADDE9060104F0BBFD00287EF4F9AE93
:1021C000229BDDE929240DF1AC0958E74FF0060AFE
:1021D0000AE528AADDE9060104F0AAFD00287EF43C
:1021E000E8AE2A9C0DF1AC09FFF7DEBBB246129BAC
:1021F0000E9EDDF82CB0CDF86080F3189A4591461C
:102200000C4628BF9A46FFF7D6BB0E9BD81C01DBB5
:10221000534505DDA8F1020828F0200303931BE5D0
:10222000129B19460E9B994200F368810A9AD207C5
:1022300040F10E82139A9F180A9B5B0503D50E9BF3
:10224000002B00F3D78127EAE77303934FF0670869
:1022500000230C930F9362E52D228DF883204FF01D
:10226000000AFFF7C3B828AA4946584604F060FDA3
:1022700000287EF49EAE98F800302A992BAA1E44BE
:1022800014E628AADDE9060104F052FD00287EF4D8
:1022900090AE2A9C0DF1AC09FFF77EBB199B1799F4
:1022A000F61A1A463046FEF719FD99F801300BB1BF
:1022B00009F101090A220023204629464FF00008AF
:1022C000FEF7E2F9FFF75BB928AADDE9060104F0A1
:1022D0002FFD00287EF46DAE229B2A9C0DF1AC09E7
:1022E000FFF781BB26AA23ABCDE90032032122AB45
:1022F00052469DED1C0B069802F020F90378302B16
:10230000064600F0C281229B5344F41800220023A9
:10231000DDE91C0107F08CFD08B1274690E4269FFB
:10232000A742BFF48DAC30227B1C26933A70269FC7
:10233000BC42F9D884E45746CDF80CA009948246F3
:102340000C90CDE90E009DF88320FFF74CB80A9B56
:102350000E9A03F00103002A43EA0A0340F3B18115
:10236000002B40F06F810E9F4FF066080A9B5A05C4
:1023700000F1428127EAE773039369E730238DF880
:10238000843058238DF88530029BBAF1630F43F0F7
:1023900002030A9300F30B81002308933BAE029AD9
:1023A000119B42F481720292002B28F020020392CA
:1023B000C0F28B809DED107B8DED1C7B00231E9366
:1023C000B8F1610F00F0FE80B8F1410F7FF41BAC53
:1023D00022A89DED1C0B04F01BFC00224FF07F5344
:1023E00051EC100B07F0BCFA00220023CDE90C01E0
:1023F00007F01EFD08B101232293B54B0B930AF1A0
:10240000FF35CDE90E89CDF848B0CDF87CA0DDE9E7
:102410000C89DDF82CB00C96B24603E007F008FDFD
:1024200020BBBA460022AB4B4046494607F098FA1B
:1024300089468046FEF700F90646FEF793F8024605
:102440000B4640464946FDF73FFF57461BF80640FE
:1024500007F8014BB5F1FF3F2C46804689464FF007
:1024600000024FF0000305F1FF35D7D14046494641
:102470000022994BDDF848B0DDE90E893546CDF8EC
:1024800038A00C9EDDF87CA0CDE90C0107F0F8FC2B
:10249000002859D1DDE90C0100228F4B07F0C8FC60
:1024A00010B12B46DD074FD4002CFFF6C9AB631CDF
:1024B0003B44302207F8012B9F42FBD1FFF7C0BB02
:1024C000029B0A93002308930292DDE9101202F1A5
:1024D00000431D932D231C911E9371E728AADDE96B
:1024E000060104F025FC00287EF463AD229B129ABD
:1024F0002A9CD31A0DF1AC09FFF78DBADDE912322F
:102500009F180E9B002B40F3D3804FF067082DE7F8
:1025100006EB0A04FAE621461C460B4601322C441F
:10252000072ACDE92924C9E900357FF749AD28AA52
:10253000DDE9060104F0FCFB00287EF43AADDDE99C
:1025400029240DF1AC093DE50E9B26930B9B17F852
:10255000012CD97B8A423B4609D1302003F8010C7B
:10256000269B5A1E269213F8012C9142F6D0392A46
:102570000BBF0B9A0132927AD2B203F8012CFFF70B
:102580005FBB30238DF884307823FBE60AF1010429
:1025900026A923ABCDE90031224622AB02219DEDD5
:1025A0001C0B069801F0CAFF06463444AEE60AF159
:1025B0000101069803F04AFB0646002800F0BC80A3
:1025C0000890ECE622A89DED1C0B04F021FB0022F4
:1025D0004FF07F5351EC100B07F0C2F9002200239B
:1025E000CDE90C0107F024FC08B1012322933B4BF9
:1025F0000B9304E74FF06708189800220C920F9293
:1026000003780E9AFF2B0CD093420ADA4178D21A43
:10261000A1B10F9B01330F930B46FF2B00F101007B
:10262000F2D10E920F9B0C9A18901344199A02FB48
:10263000037727EAE7730393FFF771BB0C99013126
:102640000C91DFE7139BD71857444FF066088DE6CF
:102650000E9FF1E5119B224E002BB6BF2D229DF857
:1026600083208DF883201F4BFEF7ADBE002944D197
:1026700030238DF892300DF19303303203F8012BA3
:1026800024AA9B1A1693FFF734BB00220023DDE92E
:102690001C0107F0CDFB00287FF435AECAF1010321
:1026A000229331E60A9BD9077FF52CABFFF728BBB5
:1026B000C3F101031F4427EAE77303934FF0670850
:1026C000C6E58BB9012303931F464FF06608BFE5AB
:1026D00098F20108000030400000E03F84F2010859
:1026E0007CF2010880F20108139B5F1C574427EA23
:1026F000E77303934FF06608AAE50DF19203BCE778
:102700004A46F3E4099B9BF8018053F8040B0993B4
:10271000934640EAE07AFEF77BBB02231693FFF76D
:10272000E8BA54463444F1E5069A0C2313604FF09E
:10273000FF330493FEF74CBC079A938943F04003A0
:102740009381FEF73EBC00BF2DE9F04FD5B01C468B
:10275000049191460546069003F0E4F90368159349
:102760001846FEF74DFA089413901DB1AB6B002B81
:1027700000F0CB83049B596EB3F90C20CD0793B2C4
:1027800002D4980540F12A87990408D40498416E30
:1027900042F4005321F40051838141669BB21A0731
:1027A00040F1BE80049A1269002A00F0B98003F05B
:1027B0001A020A2A00F0C28000234E469FED987B41
:1027C0001293CDE9293314931693CDE91833179357
:1027D00005932BAB28939B4633788DED107B002B14
:1027E00000F0EA81252B01F09B80354603E0252B84
:1027F00000F0BB8025466B786C1C002BF7D1A71B23
:1028000000F0DA81DDE9293201333A44072BCBF8B5
:102810000060CBF80470CDE9293200F3AA800BF1F7
:10282000080B059A6B783A440592002B00F0C4819E
:10283000002394F8018007938DF88330029304F10C
:10284000010A4FF0FF392B2720210AF1010AA8F1D4
:1028500020035A2B00F25D83DFE813F01C035B03B7
:102860005B0306025B035B035B03E3015B035B0348
:10287000D801D3015B036B0172015B038C0128015A
:102880002801280128012801280128012801280100
:102890005B035B035B035B035B035B035B03D402D0
:1028A0005B031402B600D402D402D4025B035B03C0
:1028B0005B035B030D025B035B0314015B035B03C0
:1028C0005B0331035B03E6005B035B0356015B03C1
:1028D0005B035B035B035B035B035B035B03D40290
:1028E0005B031402BA00D402D402D4022603BA0055
:1028F0005B005B03B5015B0393011801C0015B0042
:102900005B0331035F00EA005B035B0337015B039A
:102910005F00029B43F0200302939AF8008094E743
:10292000049D0698294601F0CBFC002841F02D8338
:10293000AB8903F01A020A2A7FF43EAF0499B1F979
:102940000E20002AFFF638AF4A6ED50702D498054C
:1029500041F16B8123464A460499069801F06EFCCA
:102960000590059855B0BDE8F08FA71B3FF460AF08
:1029700048E728AA0499069805F04CF880B90DF1AB
:10298000AC0B4EE728AA0499069805F043F80028F6
:1029900000F0EC81099B1BB11946069802F076FF06
:1029A000049B5A6E9B89D40706D5590601F1F9821A
:1029B000059855B0BDE8F08F9805F6D4049CA06D3D
:1029C00003F0CAF8A389F0E7029B43F010030293D7
:1029D000029B990640F1DD85089C073424F007032B
:1029E0001946F1E80223089114461D46002A73F1A6
:1029F0000003C0F23F86B9F1FF3F00F0D284029B92
:102A000023F0800754EA050340F0CC84B9F1000FAD
:102A100040F0CD8402974FF000094F4654AEEDE2EE
:102A20000000000000000000029B43F0100302932E
:102A3000029FB80640F1BF85089C073424F00703C5
:102A4000F3E802450893012300228DF88320B9F1B1
:102A5000FF3F00F06A8227F08002029254EA0502EA
:102A600040F06282B9F1000F40F09C87002BD2D178
:102A700017F0010700F0EC8530238DF84F310DF28F
:102A80004F16BBE2029B43F010030293029B9E068B
:102A900040F16E85089C073424F00703F3E80245F3
:102AA0000893029B23F480670023CDE7A8F130034D
:102AB00000221AF8018B02EB820203EB4202A8F11A
:102AC0003003092BF5D90792C1E6AE4B1493029B54
:102AD0009D061ED5089C073424F00703F3E8024541
:102AE0000893029AD1070AD554EA050307D0302388
:102AF00042F002028DF8858002928DF88430029BAC
:102B000023F4806702239FE79F4B1493029B9D064B
:102B1000E0D40299089ACC0602F1040300F1C585BD
:102B2000029A500640F1BB85089A08931488002544
:102B3000D7E79AF80080029B43F00403029384E6EF
:102B4000524612F8018BB8F12A0F01F04A83A8F11E
:102B50003003092B92464FF000093FF678AE1AF881
:102B6000018B09EB890903EB4909A8F13003092B13
:102B7000F5D96CE6029B9AF8008043F0800302933B
:102B800063E6089A52F8043B0892029A900600F114
:102B90005E86029AD10600F10A87029A520600F177
:102BA0007B87029A970540F10287059A1A7056466C
:102BB0003378002B7FF416AE2A9B002B41F01C804B
:102BC00000232993ECE69AF80080029BB8F16C0F81
:102BD00000F08E8643F01003029336E6089C47F619
:102BE000300254F8043BADF88420029A08941C4645
:102BF000644B149342F00207002502234FF078083B
:102C000022E78DF883709AF800801EE6089B9AF8F8
:102C1000008053F8042B0792002AC0F22086089304
:102C200013E6069D284602F07DFF43681793184679
:102C3000FDF7E6FF19900446284602F073FF83680B
:102C400018932021002C3FF468AE189B9AF800805E
:102C5000002B3FF4FAAD1B78002B3FF4F6AD029B3E
:102C600043F480630293F0E5029B9AF8008043F0FE
:102C700001030293E9E5029B9AF8008043F0080300
:102C80000293E2E5089C002354F8042B8DF8EC2015
:102C900001271A4603970894CDE90E228DF8833058
:102CA000099291460C923BAE029B13F002030A93E9
:102CB00002D0039B02330393029B2A9C13F08403EC
:102CC0000B9304D1079B03995D1A002D5EDC72B152
:102CD000299A013201340DF183000121072ACDE93F
:102CE0002924CBE9000100F3FA820BF1080B0A9BBF
:102CF0006BB1299B0133023421A90222072BCDE9B4
:102D00002934CBE9001200F3F6820BF1080B0B9B80
:102D1000802B00F0EB81A9EB0705002D00F3298241
:102D2000029BDB0500F17781299BCBF80060013322
:102D30003C44072B2A94CBF80470299300F370824B
:102D40000BF1080B029B5D0705D5079B039A9D1AA3
:102D5000002D00F3DC82059B079A03998A42ACBFE1
:102D60009B185B180593002C7FF40CAE002329936D
:102D7000099B1BB10999069802F088FD0DF1AC0B77
:102D8000564615E784F2010898F20108102D299A99
:102D900029DD59462046B34610231E97069C049E03
:102DA00004E0103D102D01F1080118DD0132C94F7A
:102DB0001030072ACDE92920C1E90073F1DD28AAE6
:102DC0003146204604F026FE00287FF4E3AD103D96
:102DD000102DDDE929202BA94FF01003E6DC1E9F02
:102DE0005E4604468B460132BA4B2C44072ACDE995
:102DF0002924CBE9003500F3AF850BF1080B9DF8D2
:102E0000832064E7089C073424F00703B3EC027BBB
:102E100055EC174B089325F000431B938DED1A7A60
:102E2000DDE91A014FF0FF32AB4B8DED107B07F05F
:102E300031F8002840F042844FF0FF32A64BDDE924
:102E40001A0107F009F8002840F038840022002316
:102E50002046294606F0F6FF002840F0C8879DF876
:102E600083209E4E9E4B02980021CDE90E11032730
:102E700020F08000039709910290B8F1470FC8BF76
:102E80001E4689460C91002A3FF40EAF039B013386
:102E9000039309E79DF883309AF80080002B7FF4B4
:102EA000D4AC8DF88310D0E49AF80080029BB8F17E
:102EB000680F00F0148543F040030293C5E4089CBA
:102EC00054F8046B00258DF88350002E00F019850E
:102ED000B9F1FF3F00F070854A462946304603F0BD
:102EE00067F90990002801F02A80099BA9469F1BD9
:102EF00027EAE77308940393CDF82490CDF8309037
:102F0000CDE90E999DF88320BDE7069802F0B6FB47
:102F100030E4B8F1000F3FF44FAE002301271A460A
:102F200003978DF8EC80B7E6029F012B00F03A8200
:102F3000022B00F0258254A900E03146E20842EA63
:102F40004572E80804F0070305461446303354EA96
:102F5000050201F8013C01F1FF36EED1FA074AD52E
:102F6000302B48D03023023906F8013C54AB02978D
:102F70000E465F1A42E007F480630022CDE902B8F2
:102F8000CDF8249054AEB9469346DDF860801F46D4
:102F900007E0FDF779FB002D08BF0A2C20D304467B
:102FA0000D460A22002320462946FDF76DFB02F15B
:102FB000300C06F801CC204629460A2200230BF1EA
:102FC000010B013E002FE4D098F800C0E345E0D1AA
:102FD000BBF1FF0FDDD09D4208BF944280F04B87CC
:102FE000CDF848B04F46CDF86080DDF808B0DDF888
:102FF0002490DDF80C80029754AB9F1B0023B94549
:1030000009930C93CDE90E334B46B8BF3B469DF870
:103010008320039337E7B8F1650F40F30D81002259
:103020000023DDE9100106F003FF002800F0CC8149
:10303000299B2C4ACBF80020013301340122072BB5
:10304000CDE92934CBF8042000F395840BF1080B6B
:10305000229B129A2A9C934280F2C982299B159A3C
:10306000CBF80020139ACBF8042001331444072B2B
:10307000CDE9293400F326840BF1080B129B5D1E69
:10308000002D7FF75FAE102D299A174B40F38084F7
:103090001026069FDDF81080994605E00BF1080B1D
:1030A000103D102D40F3738401321034072ACDE90E
:1030B0002924CBE90096F1DD28AA4146384604F0E0
:1030C000A9FC00287FF466ACDDE929240DF1AC0BE6
:1030D000E6E700BF8CC10108FFFFEF7F74F2010833
:1030E00078F20108CCEB01089CC10108079B039A08
:1030F0009D1A002D7FF70FAE102D299AB04B28DDB9
:1031000059460A972046B346069C049E1F4604E093
:10311000103D102D01F1080116DD01321030102391
:10312000072ACDE929200F604B60F1DD28AA31463E
:10313000204604F06FFC00287FF42CAC103D102DCD
:10314000DDE929202BA9E8DC3B460A9F5E460446C0
:103150008B4601322C44072ACDE92924CBE90035DE
:1031600000F38283A9EB0705002D0BF1080B7FF715
:10317000D7AD102D299A924B29DD59460A97204642
:10318000B3464FF01009069C049E1F4604E0103D14
:10319000102D01F1080115DD01321030072ACDE9AB
:1031A0002920C1E90079F2DD28AA3146204604F041
:1031B00031FC00287FF4EEAB103D102DDDE9292015
:1031C0002BA9E9DC3B460A9F5E4604468B4601324A
:1031D0002C44072ACDE92924CBE9003500F3BB8133
:1031E0000BF1080B9CE5299A1599CBF8001013995F
:1031F000CBF8041001320C44072A2A94299200F3D8
:1032000005850BF1080B002BC0F2D386129B01320F
:103210001C44072ACDE92924CBE900637FF790AD50
:1032200028AA0499069804F0F5FB00287FF4B2ABB5
:103230002A9C0DF1AC0B85E5129A299B012A04F119
:10324000010403F101050BF1080740F34381012359
:10325000072DCBF80060CDE92954CBF8043000F3FA
:103260006283139B159A691C1C4407290B91CDE9B5
:103270002914C7E9002300F3628308370B9A129DD3
:1032800002F1010900230022DDE91001CDF82890A8
:1032900007F1080B05F1FF3806F0CAFD002840F0E1
:1032A0002C810A9BC7F8048001364444072B3E60FA
:1032B0002A94299300F3F6820B9A07F11003023245
:1032C0005F460A929B46169A7A6014440A9A2A9498
:1032D00024AB072A29923B607FF734ADA0E728AAE8
:1032E0000499069804F096FB00287FF453AB2A9CBF
:1032F0000DF1AC0BFBE428AA0499069804F08AFBB4
:1033000000287FF447AB2A9C0DF1AC0BFFE4102D95
:10331000299B21DD1026069FDDF8108004E0103D7A
:10332000102D0BF1080B17DD0133264A1034072B43
:10333000CDE92934CBE90026F1DD28AA41463846FB
:1033400004F068FB00287FF425AB103D102DDDE96B
:1033500029340DF1AC0BE7DC01331A4A2C44072B5E
:10336000CDE92934CBE900257FF7F5AC28AA0499EB
:10337000069804F04FFB00287FF40CAB2A9CEAE48B
:10338000149854AE230904F00F0143EA05732A0987
:103390001C461546435C06F8013D54EA0503F1D18D
:1033A00029E6029F002D08BF0A2CBFF4E4AD30349B
:1033B00002978DF84F4101270DF24F161EE600BF10
:1033C0009CC101088CC10108229B002B40F3158190
:1033D0000E9B129A9342A8BF1346002B1D460DDD8B
:1033E000299BCBF8006001332C44072B2A94CBF89F
:1033F0000450299300F324850BF1080B0E9B002D3C
:10340000A8BF5B1B002B1D4600F3DD820E9B3344DF
:103410009946029B580500F14784229B129A9342D9
:1034200003DB029AD10740F11583299A1599CBF84D
:1034300000101399CBF8041001320C44072A2A9487
:10344000299200F32E850BF1080B129AB518A5EB03
:103450000905D31A9D42A8BF1D46002D0DDD299AEE
:10346000CBF8009001322C44072A2A94CBF8045060
:10347000299200F37A850BF1080B002DACBF5D1B80
:103480001D46002D7FF75EAC102D299A894B40F325
:103490007F821026069FDDF81080994605E00BF12B
:1034A000080B103D102D40F3728201321034072AB0
:1034B000CDE92924CBE90096F1DD28AA414638461A
:1034C00004F0A8FA00287FF465AADDE929240DF1AB
:1034D000AC0BE6E7029AD2073FF5B9AE0122072D01
:1034E000CBF80060CDE92954CBF8042000F3DA8151
:1034F00002330A930BF1100BE5E6B8F1000F7FF7EA
:10350000E2AEB8F1100F6B4B40F355861A464D46AC
:1035100023461026DDF810B0DDF81890144607E0B9
:103520000837A8F11008B8F1100F40F3AA8101354F
:103530001033072DCDE92953C7E90046F0DD28AA4D
:103540005946484604F066FA00287FF423AADDE9CC
:1035500029532BAFE5E728AA0499069804F05AFAF4
:1035600000287FF417AA2A9C0DF1AC0BFFF7D8BBFB
:103570000299089ACD0602F1040300F18B80029AA9
:10358000540640F18180089A089314880025FFF7BB
:1035900088BA029A089BD20603F1040160D4029B08
:1035A0005B0657D5089B0891B3F90040E517224602
:1035B0002B46FFF71BBA029F089B3946C90603F149
:1035C000040200F13E81029F7E0640F12382089BA7
:1035D00008921C8800250123FFF736BA049DA86DC8
:1035E00002F0B2FAB5F90C2093B2FFF7CDB8029B06
:1035F000DD073FF533ADFFF7A5BB299A2E49CBF880
:103600000010013201340121072ACDE92924CBF829
:10361000041000F3F1830BF1080B002B7FF4E3ADF2
:10362000029B129A03F0010313433FF48BAB299AD8
:10363000159BCBF80030139BCBF8043001321C44AF
:10364000072A2A94299200F3E1820BF1080BDDE5A9
:1036500054AED3E4029B13F4007F089B40F0148225
:103660001C680891E51722462B46002A73F10003D7
:10367000BFF6C1A92D2364428DF8833065EB450563
:10368000029F0123FFF7E3B9029A12F4007F089A20
:1036900040F0F581146808930025FFF702BA029AFA
:1036A00012F4007F089A40F0E58114680893002521
:1036B000FFF717BA9CC10108CCEB0108DDE9100146
:1036C00002460B4606F0E6FB002840F04C85B8F1B8
:1036D000610F00F0CC84B8F1410F00F0E98128F0CF
:1036E0002003B9F1FF3F039300F0E284472B04D19C
:1036F000B9F1000F08BF4FF00109DDE9104502994B
:10370000002D41F48072C0F28D830023CDE9093190
:10371000CDE91C451E930292039B462B00F0CF83FC
:10372000452B00F0B48426AA23ABCDE90032022158
:1037300022AB4A469DED1C0B069800F0FFFE039B52
:10374000472B064640F05C850A9BDB0700F12E8480
:10375000269FBB1B1293229B0E93039B472B00F0CB
:103760007682039B462B00F0D38303990E9B41295D
:1037700003F1FF325FFA88F303BF0F33DBB201219D
:103780000021002A8DF89030B8BF0E9B2292B6BF60
:10379000C3F101022B232D23092A8DF8913040F328
:1037A000D3840DF19F042046BE4D01E008461A4621
:1037B00085FB0231D317C3EBA10303EB8301A2EB1B
:1037C00041013031632A00F8011C00F1FF31EDDCCA
:1037D0003033821EDBB2944201F8013C40F20C858A
:1037E0000DF1920201E011F8013B02F8013B8C421D
:1037F000F9D10DF1A1030DF192021B1A134424AA71
:103800009B1A1693129B169A012B03EB020740F3A7
:10381000B684139B1F440A9B002223F4806343F465
:103820008073CDE90E22029327EAE7730C9203938B
:103830001E9B002B40F0168299469DF88320FFF7CF
:1038400022BB1C68089200250123FFF7FDB8059AEA
:103850001046D117C3E900015646FFF7A9B95242F5
:10386000CDE90723FFF767B928AA0499069804F061
:10387000D1F800287FF48EA82A9C0DF1AC0BFFF73D
:103880004ABA22461C4613462A4601320A9207F1DA
:103890000802C7E900380A9B29934444072B2A945D
:1038A00040F3D28028AA0499069804F0B3F80028BF
:1038B0007FF470A8DDE9293401330A930DF1B40BCC
:1038C0002BAF00E528AA0499069804F0A3F8002875
:1038D0007FF460A82A9C0DF1AC0BFFF7CFBB43F43B
:1038E00000739AF8018002930AF1010AFEF7ADBF56
:1038F00043F020039AF8018002930AF1010AFEF7CF
:10390000A4BF4F46062F28BF0627B1460C96CDE927
:103910000E660996324603970894634EFFF7B3BAD2
:103920003446FEF785BF28AA0499069804F072F879
:1039300000287FF42FA8DDE929542BAF91E428AAB1
:103940000499069804F066F800287FF423A8DDE9BE
:1039500029342BAF0B9391E428AA0499069804F01C
:1039600059F800287FF416A89DF883202A9C0DF1B1
:10397000AC0BFFF7ACB928AA0499069804F04AF8F2
:1039800000287FF407A80DF1AC0BFFF761BB4B4695
:1039900001322C44072ACDE92924CBE900357FF7F1
:1039A000CFA93DE4012B029F7FF4C2AAFFE4059A50
:1039B0001A605646FFF7FCB83046FDF721F9A946D4
:1039C0000746FFF795BA102D299A384B30DD194676
:1039D00010272346DDF81880DDF810900C4604E02F
:1039E0000BF1080B103D102D1FDD01321033072A9B
:1039F000CDE92923CBE90047F2DD28AA4946404614
:103A000004F008F800287EF4C5AFDDE929230DF1A4
:103A1000AC0BE7E7029F089B17F4007F23D01C78CC
:103A2000089200250123FFF70FB821461C460B46DC
:103A300001322C44072ACDE92924CBE9003500F3D3
:103A4000F9800BF1080BE1E401330A9302F1080B52
:103A5000174638E4129AB518A5EB0905D31A9D420A
:103A6000A8BF1D4609E51C68029F08920025012396
:103A7000FEF7EABF147808930025FFF732B81478F0
:103A800008930025FFF70DB893F900400891E5175A
:103A900022462B46FEF7AABF059A1A805646FFF724
:103AA00087B800BF67666666ACF201089CC1010872
:103AB00030238DF8843058238DF88530029BB9F17E
:103AC000630F43F002030A9300F3D68200230993A5
:103AD0003BAE029A119B42F481720292002B28F0B5
:103AE00020020392C0F2A3819DED107B8DED1C7B23
:103AF00000231E93B8F1610F00F00E83B8F1410F5F
:103B00007FF40AAE22A89DED1C0B03F081F8002281
:103B10004FF07F5351EC100B05F022FF00220023E1
:103B2000CDE90C0106F084F908B101232293B94BC9
:103B30000B93CDE90EBA09F1FF35CDF84880CDF8E9
:103B40007C90DDF82CB0DDE90C89B2460C9603E0E0
:103B500006F06EF920BBBA460022AF4B40464946FC
:103B600005F0FEFE89468046FCF766FD0646FCF73A
:103B7000F9FC02460B4640464946FCF7A5FB574672
:103B80001BF8064007F8014BB5F1FF3F2C46804675
:103B900089464FF000024FF0000305F1FF35D7D101
:103BA0004046494600229D4BDDF838B0DDF848809C
:103BB000CDF838A03546DDF87C900C9EDDF83CA0B1
:103BC000CDE90C0106F05CF9002840F03382DDE914
:103BD0000C010022914B06F02BF910B1E90700F11E
:103BE0002982002CFFF6B5AD631C3B44302207F858
:103BF000012BBB42FBD1ACE50698049928AA03F03F
:103C000009FF00283EF4DCAFFEF7CABE28AA0499DB
:103C1000069803F0FFFE00287EF4BCAE229BDDE98F
:103C200029240DF1AC0BFFF7EEBA886D01F094FF7B
:103C3000FEF790BE28AA0499069803F0EBFE002830
:103C40007EF4A8AE2A9C0DF1AC0BFFF7DFBB0E9BF8
:103C5000DA1C01DB4B450CDDA8F1020828F020033B
:103C6000039382E52D228DF883204FF00009FFF7A2
:103C70000DB90E9B12998B42C0F26D810A9AD5073D
:103C800040F14882139A9F180A9B5C0503D50E9B4E
:103C9000002B00F3118227EAE77303934FF06708C4
:103CA00000230C930F93C3E5129BCDF82CA0F318BF
:103CB0000A930F9B0E965A464E46594FDDF8608088
:103CC000DDF818A0DDF810B0DDF864902146002B77
:103CD00032D00C9B002B6ED10F9B013B08F1FF38BB
:103CE0000F93299B1798106001334944072B2A91A1
:103CF000C2F80490299362DC08320A9898F80030E0
:103D0000851B9D42A8BF1D46002D0BDD299B16601B
:103D100001332944072B2A91556029935ADC98F8DE
:103D200000300832002DACBF5D1B1D46002D15DC98
:103D30001E440F9B002BCCD10C9B002B3BD1B146DA
:103D4000129B0E9EDDF82CA0CDF86080F3189945EB
:103D500093460C4628BF9946FFF75FBB102D299864
:103D60001CDD102404E0103D102D02F1080215DDC9
:103D7000013010310728CDE92901C2E90074F2DDD4
:103D800028AA5946504603F045FE00287EF402AEAC
:103D9000103D102DDDE929012BAAE9DC0130294471
:103DA0000728CDE92901C2E9007556DC98F80030F2
:103DB00008321E44BDE70C9B013B0C9391E728AAF7
:103DC0005946504603F026FE00287EF4E3AD2A99BA
:103DD0002BAA92E728AA5946504603F01BFE00285A
:103DE0007EF4D8AD98F800302A992BAA9AE72D22B4
:103DF0008DF88320FFF735B828AA0499069803F0B8
:103E000009FE00287EF4C6AD229B2A9C0DF1AC0B66
:103E100003E400BF98F20108000030400000E03FDA
:103E20009CC10108029B0A93002309930292DDE9D9
:103E3000101202F100431D932D231C911E9359E68D
:103E400028AA0499069803F0E5FD00287EF4A2ADA7
:103E50002A9C0DF1AC0BFFF7D1BA28AA594650465F
:103E600003F0D8FD00287EF495AD98F800302A992B
:103E70002BAA1E445DE7199B1799F61A1A4630467D
:103E8000FCF72CFF98F801300BB108F101080A2269
:103E90000023204629464FF0000BFCF7F5FBFFF707
:103EA0007EB828AA0499069803F0B4FD00287EF491
:103EB00071AD229B2A9C0DF1AC0BFFF7C6BA26AA66
:103EC00023ABCDE90032032122AB4A469DED1C0B0A
:103ED000069800F033FB0378302B064600F05E8135
:103EE000229B4B44F41800220023DDE91C0105F05D
:103EF0009FFF08B127462CE4269FA742BFF429ACB8
:103F000030227B1C26933A70269FBC42F9D820E4CD
:103F10000A9B0E9A03F00103002A43EA090340F3C7
:103F20004D81002B40F0F0800E9F4FF066080A9BF9
:103F30005A0500F1C38027EAE7730393B0E64F46C2
:103F4000CDF80C90089481460C90CDE90E009DF8B8
:103F50008320FEF798BFDDE912329F180E9B002BDD
:103F600040F313814FF06708E1E728AA0499069807
:103F700003F050FD00287EF40DAD229B129A2A9C7E
:103F8000D31A0DF1AC0BFFF778BA049B5B6EDF0719
:103F900007D4049B9B899E0503D4049B986D01F074
:103FA000DBFD4FF0FF330593FEF702BD06EB09047E
:103FB00099E75D421033974B25DA194610272346BF
:103FC000DDF81880DDF810900C4604E00BF1080BCA
:103FD000103D102D14DD01321033072ACDE92923BD
:103FE000CBE90047F2DD28AA4946404603F012FD1E
:103FF00000287EF4CFACDDE929230DF1AC0BE7E717
:1040000021461C460B4601322C44072ACDE92924BF
:10401000CBE900357FF719AB28AA0499069803F07D
:10402000F9FC00287EF4B6ACDDE929240DF1AC0BD7
:10403000FFF7ECB80E9B26930B9B17F8012CD97B4E
:104040008A423B4609D1302003F8010C269B5A1EB8
:10405000269213F8012C9142F6D0392A0BBF0B9A05
:104060000132927AD2B203F8012CFFF772BB3023EF
:104070008DF8843078231FE509F10101069801F0DD
:10408000E5FD0646002800F0BE80099021E509F113
:10409000010426A923ABCDE90031224622AB02213F
:1040A0009DED1C0B069800F049FA064634441AE7C9
:1040B0004FF00609FFF721BB4FF067081898002260
:1040C0000C920F9203780E9AFF2B0CD093420ADACF
:1040D0004178D21AA1B10F9B01330F930B46FF2BEE
:1040E00000F10100F2D10E920F9B0C9A189013442C
:1040F000199A02FB037727EAE7730393FFF798BB4C
:104100000C9901310C91DFE7139BD7184F444FF006
:1041100066080CE70E9FB7E522A89DED1C0B02F088
:1041200077FD00224FF07F5351EC100B05F018FC87
:1041300000220023CDE90C0105F07AFE08B101232D
:104140002293354B0B93F4E4002947D130238DF8AB
:1041500092300DF19303303203F8012B24AA9B1AFD
:104160001693FFF74FBB119B2C4E002BB6BF2D2291
:104170009DF883208DF88320294BFEF774BE0A9B9F
:10418000DB077FF548ABFFF744BBC3F101031F44D6
:1041900027EAE77303934FF0670881E500220023C5
:1041A000DDE91C0105F044FE00287FF499AEC9F159
:1041B0000103229395E65A46FFF76BBB2BB9012307
:1041C00003931F464FF066086AE5139B5F1C4F443C
:1041D00027EAE77303934FF0660861E50DF1920358
:1041E000B9E7089B9AF8018053F8040B08939246AC
:1041F00040EAE079FEF729BB02231693FFF702BBE2
:104200004C4634446FE6049A938943F0400393810B
:10421000FEF7C6BB9CC1010884F201087CF20108CC
:1042200080F2010810B4044C13460A460146206887
:104230005DF8044BFEF788BA000000242DE9F04138
:104240000C46ADF58D6D8989666EE589199621F06C
:1042500002010646E069ADF80C1017464FF4806184
:10426000626AADF80E5098461AAD0023079016A862
:1042700009920693009504950291059101F05CFC6A
:1042800043463A4669463046FEF75EFA051E07DBAE
:104290003046694601F046F9002818BF4FF0FF3557
:1042A000BDF80C305B0603D5A38943F04003A3811E
:1042B000169801F045FC28460DF58D6DBDE8F0819E
:1042C00038B5324B1B6805460C460BB19A6B12B3DE
:1042D000B4F90C2093B2180725D5206900282DD0F9
:1042E00013F0010207D0636900225B42A361A26060
:1042F00038B1002038BD990758BF6269A260002814
:10430000F7D1B4F90C301A06F4D543F04003A38179
:104310004FF0FF3038BD184601F0B0F9B4F90C2069
:1043200093B21807D9D4D90628D5580712D42069D2
:1043300042F00803A3819BB20028D1D103F420727C
:10434000B2F5007FCCD02846214601F035FCA38988
:104350002069C5E7216B51B104F14003994204D0B3
:10436000284601F093FAB4F90C20002323630023BC
:104370002069636022F024022060D9E742F0400205
:1043800009232B604FF0FF30A28138BD00000024CC
:104390002DE9F0411E4C0546206890461F460E460A
:1043A00001F0D2FB1B4B1A68D2F8483133B35A687C
:1043B00020681F2A27DC4DB9911C01325A6043F84E
:1043C000216001F0C9FB0020BDE8F08103EB820110
:1043D0000124C1F8888004FA02FED3F88841022D36
:1043E00044EA0E0CC3F888C1C1F80871E4D1D3F8CF
:1043F0008C114EEA0104C3F88C41DDE702F5A67387
:10440000C2F84831D3E701F0A7FB4FF0FF30DBE7FC
:104410003004002468C101082DE9F04F03690F69D9
:10442000BB4283B0C0F28680013F01F1140600F167
:10443000140A56F827305AF82720BC00013300949C
:1044400006EB04099A425444B2FBF3F801943AD3C0
:1044500000252A46B646D4465EF8044BDCF8003008
:104460001FFA84FB08FB0B554FEA154B240C08FB85
:1044700004B4ADB2551BA2B2C2EB134215FA83F3DA
:1044800002EB23429BB243EA0243F1454FEA144553
:104490004CF8043B4FEA2242DED2009B5AF803302C
:1044A0008BB9019A131F9A450CD252F8043C4BB9B0
:1044B000A2F1080302E01A68043B1AB99A4507F111
:1044C000FF37F8D30761044602F064F900282DDBBA
:1044D00008F101085046002356F8041B05688AB20B
:1044E0009A1A0B0C12FA85F2C3EB154303EB224325
:1044F00092B242EA0342B14540F8042B4FEA23430B
:10450000EAD25AF827200AEB87037AB91A1F924594
:104510000BD253F8042C42B9083B02E01A68043B62
:104520001AB99A4507F1FF37F8D32761404603B01F
:10453000BDE8F08F002003B0BDE8F08F2DE9F04F0B
:1045400057EC106B97B0056C209C039182460A9241
:104550000793CDE9006755B1426C6A60012393402F
:10456000AB60294601F0A6FE0023CAF840303E1E8B
:10457000B4BF012300232360754BBCBF26F0004667
:104580000196B34300F0AE809DED007B0022002336
:1045900051EC170B8DED047B05F04AFC054678B114
:1045A000079A01231360219B002B00F01083694BB5
:1045B000219A1360013B0293029817B0BDE8F08F77
:1045C000DDE9047814AA15A948EC107B504602F0E6
:1045D00015FA340D834640F09B80DDE914542C44D9
:1045E00004F23243202B40F3BA83C3F140039E40D0
:1045F000009B04F2124023FA00F03043FBF7A2FFC5
:10460000A1F1F87301210246013C0E9110461946B2
:104610000022514BFBF758FE47A3D3E9002305F0D6
:104620009FF947A3D3E90023FBF750FE0646204637
:104630000F46FBF797FF44A3D3E9002305F090F959
:1046400002460B4630463946FBF740FE06460F460B
:10465000FBF7F2FF0022814600233046394605F081
:10466000F1FB002840F0A6822C1BB9F1160F04F1D3
:10467000FF3800F29382394B03EBC903D3E90023DF
:10468000DDE9040105F0DEFB00286DD00023B8F160
:10469000000F09F1FF390D93C0F2868200230993C0
:1046A000B9F1000F66DA099BCDF81890A3EB090366
:1046B0000993C9F100030C93039B092B4FF00009E8
:1046C00060D8052B40F34983043B03930024039BEC
:1046D000023B032B00F25186DFE813F06804650407
:1046E0003E045804079A42F20F731360009BC6F30E
:1046F0001306334318D1219B002B00F03586184B4D
:1047000002930833219A0298136017B0BDE8F08F26
:10471000C8F3130141F07F530E953A46A4F2FF34DB
:1047200043F44013149D71E7219B002B40F0038458
:104730000C4B029340E700BF61436F63A787D23FF2
:10474000B3C8608B288AC63FFB799F501344D33F80
:104750000000F07FCDEB01080000F83FC0C1010868
:10476000B8F20108B4F20108B8F1000FC0F2BE843B
:104770000D90099000230C93039BCDF81890092B02
:10478000C8449ED9002301240393CDE90A344FF095
:10479000FF3308930021089BCAF844100F9350463A
:1047A00001F062FD0290002800F0F085029BCAF83B
:1047B0004030089B0E2B00F20A81002C00F007818C
:1047C0000699002940F36884B14B01F00F0203EB16
:1047D000C20393ED007B0C11E2068DED107B40F1DE
:1047E0000884AC4BDDE90401D3E9082305F0E2F9C4
:1047F000CDE9000104F00F0403267CB1DDE91001CE
:10480000A44DE30704D5D5E9002305F0A9F8013646
:10481000641005F10805F4D1CDE91001DDE90001CE
:10482000DDE9102305F0C6F9CDE900010D9B53B178
:10483000DDE900450022984B2046294605F002FBA1
:10484000002840F027853046FBF78CFEDDE9002389
:1048500005F086F8914B0022FBF738FD089B0446D3
:10486000A1F15075002B00F0FB83069B1293089B6F
:104870001093DDE9006739463046FBF7DDFE009016
:10488000FBF770FE02460B4630463946FBF71CFD2F
:104890007F4B009A0F461099064603EBC1030B9815
:1048A00002993032CDE90045D5B24C1C53E90223C0
:1048B000002800F097840020794905F07BF9DDE9B4
:1048C0000023FBF701FD029B32461D703B46CDE9FC
:1048D000000105F0D5FA002840F0D48432463B466A
:1048E00000206D49FBF7F0FC02460B46DDE90001B4
:1048F00005F0C6FA002840F03285109B012B62D0EB
:10490000029ACDF840901344CDF84C80DDE900893F
:10491000CDF800B0D3469A460EE032463B46002022
:104920005D49FBF7D1FC42464B4605F08BFA002867
:1049300040F0EE8454453FD0404649460022594B52
:1049400005F00EF80022574B80468946304639461E
:1049500005F006F80F460646FBF76EFE0546FBF728
:1049600001FE02460B4630463946FBF7ADFC3035BA
:10497000EDB204F8015B42464B4606460F4605F091
:1049800061FA0028C9D0129BDA460133DDF800B085
:1049900006935946504601F08DFC00232370079B77
:1049A0001A46069B1360219B002B3FF405AE02982C
:1049B0001C6017B0BDE8F08FDA46DDF84090DDF8F6
:1049C0004C80DDF800B0DDE90434CDE90034159BFE
:1049D000002BC0F2C680069A0E2A00F3C2802C4B30
:1049E00003EBC203D3E900890A9B002B17DA089F67
:1049F000002F14DC40F04D8300222B4B40464946EB
:104A000004F0AEFFDDE9002305F030FA002800F0E5
:104A1000C483089F3D460A9B029CDB435FE2DDE9BD
:104A2000004542464B462046294605F0C3F8FBF7B1
:104A300003FE06460090FBF795FD42464B4604F008
:104A40008FFF02460B4620462946029C35463035EC
:104A5000FBF73AFC069E04F8015B089D0136012D28
:104A600002460B46069652D000220E4B04F078FF09
:104A70000022002306460F4605F0DAF9002888D107
:104A8000CDF800B00125DDF820B0CDF80CA01AE07B
:104A9000C0C10108B0C201080000F03F00001C4086
:104AA0000000E03F00002440000014400022B94B09
:104AB00004F056FF0022002306460F4605F0B8F921
:104AC000002840F0608342464B463046394605F0A8
:104AD00071F8FBF7B1FD8246FBF744FD42464B46B9
:104AE00004F03EFF02460B4630463946FBF7ECFB2E
:104AF00001350AF13006AB4502460B4604F8016B5E
:104B0000D4D1DDF800B0CDF800A0DDF80CA010463F
:104B10001946FBF7DBFB42464B4606460F4605F0BF
:104B2000AFF960B942464B463046394605F080F948
:104B300000283FF42EAF009BD9077FF52AAF14F869
:104B4000015C029A631E04E09A4200F0C98313F8E4
:104B5000015D392D03F10104F6D06A1CD2B21A703E
:104B600017E70B9A002A38D0039A012A40F356829D
:104B7000089B5E1E0C9BB342C0F235829E1B089BB5
:104B8000002BC0F20583099A14461A4498440992EE
:104B90000121504601F090FC054621E00123B8F1C7
:104BA000000F0D93BFF67AADC4F1010309934FF0E6
:104BB000000875E54846FBF7D5FC32463B4605F054
:104BC00037F900287FF450AD09F1FF394CE5724BFD
:104BD0000293029817B0BDE8F08F0C9E099C0B9DC4
:104BE000002C0CDDB8F1000F09DD4445099A23467D
:104BF000A8BF4346D21A0992E41AA8EB03080C9BFB
:104C0000D3B10B9B002B00F08F81002E10DD2946C5
:104C10003246504601F00CFD5A46014605465046C4
:104C200001F060FC59460746504601F043FBBB4685
:104C30000C9B9A1B40F079810121504601F03CFC0D
:104C4000B9F1000F074600F39080039B012B40F35E
:104C5000778100260120B9F1000F40F09180404497
:104C600010F01F0077D0C0F12003042B40F38083A5
:104C7000C0F11C00099B0344099304448044099B30
:104C8000002B05DD59461A46504601F01DFD8346AE
:104C9000B8F1000F05DD39464246504601F014FDDB
:104CA00007460D9B002B40F02481089B002B40F30E
:104CB000FB800B9B002B7FD1069B01330693029C4C
:104CC000DDF82080012607E0594600230A225046DD
:104CD00001F0FAFA0136834639465846FFF79CFB45
:104CE000B04500F1300004F8010BEDDC03464FF055
:104CF0000009594601225046009301F0E5FC39466F
:104D0000834601F047FD002814F8012C40F3788118
:104D1000631E029904E0994200F08D8113F8012D81
:104D2000392A03F10104F6D001321A70394650468F
:104D300001F0C0FA002D3FF42CAEB9F1000F05D000
:104D4000A94503D04946504601F0B4FA29465046D9
:104D500001F0B0FA1DE61C208CE70124B7E4C3F192
:104D60002006009B03FA06F048E401464A465046F6
:104D700001F05EFC039B012B074640F3B98100263E
:104D80003B6907EB8303186901F046FBC0F1200083
:104D900065E700BF00002440CCEB01082946002352
:104DA0000A22504601F090FA0F9B002B054640F373
:104DB000CE82CDF818800893002C00F30D81002ED0
:104DC00040F0CA81A846009B0399029E03F00102AD
:104DD0000B920A430A92089A731E1A4409923946A2
:104DE0005846FFF719FB29460090584601F0D2FCBF
:104DF000424681463946504601F0E8FC009BC268B5
:104E000004463033002A41D101465846089301F048
:104E1000C1FC21460490504601F04CFA049A089BCC
:104E20001AB90A99002900F07A82B9F1000F06F147
:104E30000104C0F27481039941EA09090B9951EA0E
:104E4000090100F06C81002A00F3A981099A3370EE
:104E5000B24200F0B081594600230A22504601F0C8
:104E600033FA4545834629464FF000034FF00A02C6
:104E7000504613D001F028FA4146054600230A2285
:104E8000504601F021FA26468046A8E701465046E2
:104E9000049301F00FFA0122049BC6E701F014FA13
:104EA0002646054680469AE7039B022B40F3818005
:104EB000089B002B7FF4AFAD39460522504601F028
:104EC00003FA01460746584601F064FC00287FF7C4
:104ED000A2AD029C069B312204F8012B0133013361
:104EE00039465046069301F0E5F9002D7FF42EAFC8
:104EF0004FE53946584601F04DFC0028BFF6D5AEC7
:104F0000594600230A22504601F0DEF9069B03F1C0
:104F1000FF380B9B8346002B7FF440AF0F9B002B89
:104F200040F30A820893CAE60C9A5946504601F0AB
:104F30007FFB834680E6A54B02930333FFF7E2BB7A
:104F4000DDE9001200297FF484AEC2F31303002BC5
:104F500000F0D980009E7DE601230B930A9D002D71
:104F600049DD0F9508950021172DCAF844107FF7E9
:104F700016AC012204235B0003F11400A842114681
:104F800002F10102F7D9CAF8441008E401230B9397
:104F90000A9B069A13440F930133012B1D46089375
:104FA000B8BF0125DFE700230B93F1E700230B9344
:104FB000D4E70B9B002B7FF4FFAE39465846FFF732
:104FC0002BFA069A029C00F130030132069204F893
:104FD000013B4FF000098CE629462246504601F07D
:104FE00073FB0546EBE60C9B0C96F31A99440026DE
:104FF000C5E5022601E401230A930893FFF7CABB23
:1050000003D1009BDB073FF583AE631E01E013F87D
:10501000012D302A03F10104F9D087E60E9A002A07
:1050200000F0CF8003F23343099A0C9E14461A44D1
:1050300098440992ACE5069A01320692029A31230D
:10504000137073E63046FBF78DFADDE9002304F0B8
:1050500087FC00225E4BFBF739F90446A1F150753D
:1050600000225C4BDDE90001FBF72EF922462B46BE
:1050700006460F4604F004FF002840F08D802246CB
:1050800005F100433046394604F0DCFE00283FF4C9
:105090009AAC00273D46BEE400F0F980069B5C42D6
:1050A0004D4B04F00F0203EBC203D3E90023DDE90B
:1050B000040104F055FC2411CDE9000100F0E78063
:1050C000464D00230226E70705D5D5E9002304F065
:1050D00047FC01360123641005F10805F3D1002BCC
:1050E0003FF4A4ABCDE90001FFF7A0BB0D905BE559
:1050F000009B002B7FF443AEDDE90012C2F31303E3
:10510000002B7FF43CAE364E1640002E3FF4A2AD8D
:10511000099B0133099308F1010801269AE50699D4
:10512000002A01F10101069112DD59460122504683
:10513000039301F0C9FA3946834601F02BFB00289E
:10514000039B40F3DF80392B00F0D180009B31338B
:10515000A94633704546E9E56968504601F084F890
:105160000446002800F019812B6902339A0005F1EA
:105170000C010C30FBF716FB21460122504601F0D2
:10518000A3FA80461FE6DDF800B0DDF80CA000E4CD
:10519000DDE908239C1AFBE400273D4699E6069AC0
:1051A000392B02F10102069200F0A1800133A946D9
:1051B00033704546BAE5069A0132A946069245463D
:1051C00097E5149BC3F136032EE700BFB4F2010844
:1051D00000001C4000001440C0C10108B0C201081A
:1051E0000000F07FDDE9000104F0BAFB029B1D70B6
:1051F000109B012BCDE9000123D0109B029ACDF822
:1052000040901344C146984600226D4B30463946C3
:1052100004F0A6FB0F460646FBF70EFA0546FBF721
:10522000A1F9303502460B4630463946FBF74CF8BB
:1052300004F8015B444506460F46E5D1C846DDF853
:105240004090604B0022DDE90001FBF73FF8324659
:105250003B4604F0F7FD00284ED1DDE90023002095
:105260005849FBF731F832463B4604F009FE002866
:105270003FF4A9AB00E0144614F8013C302B04F1D4
:10528000FF32F8D0129B01330693FFF782BB022650
:10529000FFF7CCBA089B002B3FF4D4AE0F9F002F32
:1052A0007FF791AB0022464B2046294604F058FB7D
:1052B00004460D46701CCDE90045FBF753F9224624
:1052C0002B4604F04DFB404B0022FAF7FFFF069BF4
:1052D0001097013B0446A1F150751293FFF7C9BA2C
:1052E000069A0132069231221A70FFF752BB392218
:1052F000A946327045460BE5129B0133069314F81C
:10530000015C1EE47FF424AFDA077FF521AF1AE7D2
:10531000129B0133DA460693DDF800B011E4069AD9
:10532000392B02F10102069206F10104DFD0B9F136
:10533000000F3FF70BAF0BE7039B022B02DCCDF80E
:1053400018803AE60F9B0893CDF81880B0E5039BD0
:10535000022BF7DC0F9BCDF8188008932CE5129BED
:1053600001330693FFF7EDBB184B0293FFF724B907
:105370003FF485ACC0F13C007CE40024CAF8444012
:105380002146504600F070FF029068B9104B11485A
:1053900000224FF4D57103F071FA02460C4B0D4810
:1053A00040F2EA2103F06AFA4FF0FF330893029AC1
:1053B0000F930123CAF840200A940B93FFF707BB11
:1053C000000024400000E03F00001C40B8F201084B
:1053D000C4F20108D8F20108B1F90C309AB22DE9F3
:1053E000F0410C461107804648D4626843F40063DC
:1053F000002AA3815DDDA56A002D57D000229BB253
:10540000D8F80060E169C8F8002013F4805254D144
:1054100001234046A847431C66D0A389A56AE169D9
:105420005F0705D56268236B801A0BB1E36BC01A66
:10543000024600234046A847451C48D1D8F8002022
:10544000B4F90C30002A5CD01D2A01D0162A64D190
:1054500022690021C4E9002123F40063A381216BA8
:10546000C8F8006011B304F14003994202D04046ED
:1054700000F00CFA00202063BDE8F0812669AEB18F
:105480002568266091070CBF63690023AD1BA360EC
:105490000AE02B463246676AE1694046B847002871
:1054A000A5EB000506440ADD002DF2DC0020BDE876
:1054B000F081E26B002A9EDCF8E7206DB0E7A3895B
:1054C00043F04003A3814FF0FF30BDE8F081B4F911
:1054D0000C302269226023F4006300226260DA0447
:1054E000A381BCD52065BAE7D8F80030002B94D052
:1054F0001D2B0FD0162B0DD0A38943F04003A381A1
:10550000D5E723F400632169A381DB04C4E9001219
:10551000A5D5E7E7C8F80060C8E743F04003A381DA
:10552000C5E700BF38B50D46044608B1836BA3B18B
:10553000B5F90C00B8B16B6EDB0701D4810515D548
:1055400020462946FFF748FF6B6EDA07044602D46F
:10555000AB899B050ED5204638BD00F08FF8B5F914
:105560000C000028E7D10446204638BDA86D00F0A5
:10557000EBFAE5E7A86D00F0EFFA204638BD00BF72
:1055800020B1054B01461868FFF7CCBF034B044917
:10559000186800F09BBA00BF0000002468C1010831
:1055A0002555000810B5002304468181C281C0E959
:1055B000003383604366C0E90433836119460822DF
:1055C0005C30FBF7F1F907480749084A084BE362EA
:1055D000C4E90740C4E9091204F15800BDE81040CD
:1055E00000F0AABAA16C0008C96C0008096D000897
:1055F000296D0008014900F069BA00BF4989000817
:1056000008B5436EDA0702D483899B0501D50020D3
:1056100008BD806D00F098FA002008BD08B5436E03
:10562000DA0702D483899B0501D5002008BD806D6F
:1056300000F092FA002008BD70B54A1E682505FBEF
:1056400002F50E4605F1740100F000FB044640B17E
:1056500000210C30666005F168022160A060FBF754
:10566000A3F9204670BD00BF024B0349186800F043
:105670002DBA00BF68C101084989000810B5044669
:10568000114800F061FAA26BC2B904F53B730F48F0
:10569000C4F8E0220321C4E9B913E063042160687F
:1056A000FFF780FF01220921A068FFF77BFF02229C
:1056B0001221E068FFF776FF0123A3630248BDE8EB
:1056C000104000F049BA00BF20FB0524F555000842
:1056D00070B50646244800F037FA244B1D68AB6BC2
:1056E00083B305F53875D5E90134013B05D525E0CF
:1056F000013B5A1C04F1680420D0B4F90C20002AA4
:10570000F6D100251A4BE36004F15800656600F0FD
:1057100013FA154800F020FA2560C4E90155C4E9E0
:105720000455A5612946082204F15C00FBF73CF909
:10573000C4E90C55C4E91155204670BD2C682CB144
:105740002546D0E72846FFF799FFCAE704213046EF
:10575000FFF772FF044628600028F1D1024800F0EC
:10576000FBF90C233360E7E734FB052468C101082B
:105770000100FFFF014800F0E7B900BF34FB05243A
:10578000014800F0E9B900BF34FB0524014800F0EE
:10579000DBB900BF20FB0524014800F0DDB900BFE4
:1057A00020FB052408B5054800F0CEF9044B054957
:1057B0001868BDE8084000F063B900BF34FB052459
:1057C000000000240156000808B5054B054918687B
:1057D00000F056F90448BDE8084000F0BDB900BF2C
:1057E000000000241D56000834FB0524F8B5244FA2
:1057F0000C46064600F02CFDBB685D68C4F57E6172
:105800000F3125F00305294421F47F6121F00F01B8
:10581000A1F58054B4F5805F07DB0021304601F02C
:105820002DFABB682B44984204D0304600F016FD98
:105830000020F8BD6142304601F020FA01300DD061
:10584000104BBA6819682D1B45F001053046091B3D
:105850005560196000F002FD0120F8BD00213046BE
:1058600001F00CFABA68831A0F2BDEDD064C0549ED
:10587000246843F00103001B53600860D5E700BFB4
:10588000340400246C5300243C08002400295ED01A
:10589000F8B50F46064600F0DBFC57F804CC754D12
:1058A0002CF00103A7F10800C218A96854689142BE
:1058B00024F0030400F084801CF0010F546002EB1C
:1058C000040133D157F808EC4968A0EB0E0005F14C
:1058D000080C87686745734401F0010160D0D0F877
:1058E0000CE0C7F80CE0CEF80870002900F08D80BD
:1058F00043F0010141601360B3F5007F30D2DB0853
:10590000591C6C689A1001239340234305EBC10294
:1059100055F831406B60083AC0E9024245F8310061
:10592000E0603046BDE8F84000F098BC4968C9071F
:105930000ED4234405F1080C9168614543F001043D
:105940006BD0D268CA6091604460C350D4E770479E
:1059500043F00101B3F5007F47F8041C1360CED378
:105960005A0A042A46D89A0902F13907FF0002F1BF
:105970003801EC19EA59083C944255D0516821F09D
:105980000301994202D992689442F7D1D468C0E9E0
:105990000224A060D0603046BDE8F84000F05EBC54
:1059A000002962D1D2E90221234443F00104D160ED
:1059B0008A604460C3503046BDE8F84000F04EBCF9
:1059C0001CF0010F234407D157F8082C801A134408
:1059D000D0E90212CA609160274A126843F00101BF
:1059E0009A424160A8609CD8244B30461968FFF762
:1059F000FDFE96E7142A0AD9542A1DD81A0B02F183
:105A00006F07FF0002F16E01B3E7234494E702F150
:105A10005C07FF0002F15B01ABE7C5E90400C0E9E8
:105A200002CC4460C3507CE76B688910012707FAF9
:105A300001F119436960AAE7B2F5AA7F06D8DA0B2B
:105A400002F17807FF0002F1770192E740F254512A
:105A50008A4206D89A0C02F17D07FF0002F17C0110
:105A600087E74FF47E777E2183E743F001014160B1
:105A7000136056E7340400244008002468530024CF
:105A80002DE9F04110F538771BD088460026D7E97C
:105A90000154013D0FD4A389012B05F1FF3506D92F
:105AA000B4F90E300133204601D0C04706436B1CC9
:105AB00004F16804EFD13F68002FE8D13046BDE81B
:105AC000F0813E463046BDE8F08100BF2DE9F84345
:105AD00010F538771FD0884606464FF00009D7E901
:105AE0000154013D11D4A389012B05F1FF3508D9DB
:105AF000B4F90E3001332146304602D0C04749EA9E
